{
  "address": "0xe5F6ee1DCE971D2A9706390033459579AF62273c",
  "abi": [
    {
      "inputs": [
        {
          "internalType": "address",
          "name": "_grave",
          "type": "address"
        },
        {
          "internalType": "uint256",
          "name": "_poolStartTime",
          "type": "uint256"
        },
        {
          "internalType": "address",
          "name": "_daoFund",
          "type": "address"
        },
        {
          "internalType": "uint256",
          "name": "_depositFee",
          "type": "uint256"
        }
      ],
      "stateMutability": "nonpayable",
      "type": "constructor"
    },
    {
      "anonymous": false,
      "inputs": [
        {
          "indexed": true,
          "internalType": "address",
          "name": "user",
          "type": "address"
        },
        {
          "indexed": true,
          "internalType": "uint256",
          "name": "pid",
          "type": "uint256"
        },
        {
          "indexed": false,
          "internalType": "uint256",
          "name": "amount",
          "type": "uint256"
        }
      ],
      "name": "Deposit",
      "type": "event"
    },
    {
      "anonymous": false,
      "inputs": [
        {
          "indexed": true,
          "internalType": "address",
          "name": "user",
          "type": "address"
        },
        {
          "indexed": true,
          "internalType": "uint256",
          "name": "pid",
          "type": "uint256"
        },
        {
          "indexed": false,
          "internalType": "uint256",
          "name": "amount",
          "type": "uint256"
        }
      ],
      "name": "EmergencyWithdraw",
      "type": "event"
    },
    {
      "anonymous": false,
      "inputs": [
        {
          "indexed": true,
          "internalType": "address",
          "name": "user",
          "type": "address"
        },
        {
          "indexed": false,
          "internalType": "uint256",
          "name": "amount",
          "type": "uint256"
        }
      ],
      "name": "RewardPaid",
      "type": "event"
    },
    {
      "anonymous": false,
      "inputs": [
        {
          "indexed": true,
          "internalType": "address",
          "name": "user",
          "type": "address"
        },
        {
          "indexed": true,
          "internalType": "uint256",
          "name": "pid",
          "type": "uint256"
        },
        {
          "indexed": false,
          "internalType": "uint256",
          "name": "amount",
          "type": "uint256"
        }
      ],
      "name": "Withdraw",
      "type": "event"
    },
    {
      "inputs": [],
      "name": "TOTAL_REWARDS",
      "outputs": [
        {
          "internalType": "uint256",
          "name": "",
          "type": "uint256"
        }
      ],
      "stateMutability": "view",
      "type": "function"
    },
    {
      "inputs": [
        {
          "internalType": "uint256",
          "name": "_allocPoint",
          "type": "uint256"
        },
        {
          "internalType": "contract IERC20",
          "name": "_token",
          "type": "address"
        },
        {
          "internalType": "bool",
          "name": "_withUpdate",
          "type": "bool"
        },
        {
          "internalType": "uint256",
          "name": "_lastRewardTime",
          "type": "uint256"
        }
      ],
      "name": "add",
      "outputs": [],
      "stateMutability": "nonpayable",
      "type": "function"
    },
    {
      "inputs": [],
      "name": "daoFund",
      "outputs": [
        {
          "internalType": "address",
          "name": "",
          "type": "address"
        }
      ],
      "stateMutability": "view",
      "type": "function"
    },
    {
      "inputs": [
        {
          "internalType": "uint256",
          "name": "_pid",
          "type": "uint256"
        },
        {
          "internalType": "uint256",
          "name": "_amount",
          "type": "uint256"
        }
      ],
      "name": "deposit",
      "outputs": [],
      "stateMutability": "nonpayable",
      "type": "function"
    },
    {
      "inputs": [],
      "name": "depositFee",
      "outputs": [
        {
          "internalType": "uint256",
          "name": "",
          "type": "uint256"
        }
      ],
      "stateMutability": "view",
      "type": "function"
    },
    {
      "inputs": [
        {
          "internalType": "uint256",
          "name": "_pid",
          "type": "uint256"
        }
      ],
      "name": "emergencyWithdraw",
      "outputs": [],
      "stateMutability": "nonpayable",
      "type": "function"
    },
    {
      "inputs": [
        {
          "internalType": "uint256",
          "name": "_fromTime",
          "type": "uint256"
        },
        {
          "internalType": "uint256",
          "name": "_toTime",
          "type": "uint256"
        }
      ],
      "name": "getGeneratedReward",
      "outputs": [
        {
          "internalType": "uint256",
          "name": "",
          "type": "uint256"
        }
      ],
      "stateMutability": "view",
      "type": "function"
    },
    {
      "inputs": [
        {
          "internalType": "contract IERC20",
          "name": "_token",
          "type": "address"
        },
        {
          "internalType": "uint256",
          "name": "amount",
          "type": "uint256"
        },
        {
          "internalType": "address",
          "name": "to",
          "type": "address"
        }
      ],
      "name": "governanceRecoverUnsupported",
      "outputs": [],
      "stateMutability": "nonpayable",
      "type": "function"
    },
    {
      "inputs": [],
      "name": "grave",
      "outputs": [
        {
          "internalType": "contract IERC20",
          "name": "",
          "type": "address"
        }
      ],
      "stateMutability": "view",
      "type": "function"
    },
    {
      "inputs": [],
      "name": "gravePerSecond",
      "outputs": [
        {
          "internalType": "uint256",
          "name": "",
          "type": "uint256"
        }
      ],
      "stateMutability": "view",
      "type": "function"
    },
    {
      "inputs": [],
      "name": "massUpdatePools",
      "outputs": [],
      "stateMutability": "nonpayable",
      "type": "function"
    },
    {
      "inputs": [],
      "name": "operator",
      "outputs": [
        {
          "internalType": "address",
          "name": "",
          "type": "address"
        }
      ],
      "stateMutability": "view",
      "type": "function"
    },
    {
      "inputs": [
        {
          "internalType": "uint256",
          "name": "_pid",
          "type": "uint256"
        },
        {
          "internalType": "address",
          "name": "_user",
          "type": "address"
        }
      ],
      "name": "pendingGRAVE",
      "outputs": [
        {
          "internalType": "uint256",
          "name": "",
          "type": "uint256"
        }
      ],
      "stateMutability": "view",
      "type": "function"
    },
    {
      "inputs": [],
      "name": "poolEndTime",
      "outputs": [
        {
          "internalType": "uint256",
          "name": "",
          "type": "uint256"
        }
      ],
      "stateMutability": "view",
      "type": "function"
    },
    {
      "inputs": [
        {
          "internalType": "uint256",
          "name": "",
          "type": "uint256"
        }
      ],
      "name": "poolInfo",
      "outputs": [
        {
          "internalType": "contract IERC20",
          "name": "token",
          "type": "address"
        },
        {
          "internalType": "uint256",
          "name": "allocPoint",
          "type": "uint256"
        },
        {
          "internalType": "uint256",
          "name": "lastRewardTime",
          "type": "uint256"
        },
        {
          "internalType": "uint256",
          "name": "accGravePerShare",
          "type": "uint256"
        },
        {
          "internalType": "bool",
          "name": "isStarted",
          "type": "bool"
        }
      ],
      "stateMutability": "view",
      "type": "function"
    },
    {
      "inputs": [],
      "name": "poolStartTime",
      "outputs": [
        {
          "internalType": "uint256",
          "name": "",
          "type": "uint256"
        }
      ],
      "stateMutability": "view",
      "type": "function"
    },
    {
      "inputs": [],
      "name": "runningTime",
      "outputs": [
        {
          "internalType": "uint256",
          "name": "",
          "type": "uint256"
        }
      ],
      "stateMutability": "view",
      "type": "function"
    },
    {
      "inputs": [
        {
          "internalType": "uint256",
          "name": "_pid",
          "type": "uint256"
        },
        {
          "internalType": "uint256",
          "name": "_allocPoint",
          "type": "uint256"
        }
      ],
      "name": "set",
      "outputs": [],
      "stateMutability": "nonpayable",
      "type": "function"
    },
    {
      "inputs": [
        {
          "internalType": "address",
          "name": "_operator",
          "type": "address"
        }
      ],
      "name": "setOperator",
      "outputs": [],
      "stateMutability": "nonpayable",
      "type": "function"
    },
    {
      "inputs": [],
      "name": "totalAllocPoint",
      "outputs": [
        {
          "internalType": "uint256",
          "name": "",
          "type": "uint256"
        }
      ],
      "stateMutability": "view",
      "type": "function"
    },
    {
      "inputs": [
        {
          "internalType": "uint256",
          "name": "_pid",
          "type": "uint256"
        }
      ],
      "name": "updatePool",
      "outputs": [],
      "stateMutability": "nonpayable",
      "type": "function"
    },
    {
      "inputs": [
        {
          "internalType": "uint256",
          "name": "",
          "type": "uint256"
        },
        {
          "internalType": "address",
          "name": "",
          "type": "address"
        }
      ],
      "name": "userInfo",
      "outputs": [
        {
          "internalType": "uint256",
          "name": "amount",
          "type": "uint256"
        },
        {
          "internalType": "uint256",
          "name": "rewardDebt",
          "type": "uint256"
        }
      ],
      "stateMutability": "view",
      "type": "function"
    },
    {
      "inputs": [
        {
          "internalType": "uint256",
          "name": "_pid",
          "type": "uint256"
        },
        {
          "internalType": "uint256",
          "name": "_amount",
          "type": "uint256"
        }
      ],
      "name": "withdraw",
      "outputs": [],
      "stateMutability": "nonpayable",
      "type": "function"
    }
  ],
  "transactionHash": "0x06fc87fb1d6337aafce56656d256f9c0810d5914b071ee95e304971736cb5527",
  "args": [
    "0x56C68a33e6F20aBC6Bcb46695f1811fE5cbF92Fe",
    1660572000,
    "0x931FE2B7a6bED657D2222f8479F9E94A31E11C41",
    200
  ],
  "numDeployments": 1,
  "solcInputHash": "016aede46e161bc0b817367f139c4eee",
  "bytecode": "0x60806040526000600655670374699c6e62c0006009556202a300600a5534801561002857600080fd5b50604051611b02380380611b028339818101604052608081101561004b57600080fd5b508051602082015160408301516060909301519192909142831161009f576040805162461bcd60e51b815260206004808301919091526024820152636c61746560e01b604482015290519081900360640190fd5b6001600160a01b038416156100ca57600380546001600160a01b0319166001600160a01b0386161790555b6007839055600a54909201600855600180546001600160a01b039092166001600160a01b03199283161790556002919091556000805490911633179055506119eb806101176000396000f3fe608060405234801561001057600080fd5b506004361061018d5760003560e01c80635f96dc11116100e3578063943f013d1161008c578063a41cd03411610066578063a41cd034146103ea578063b3ab15fb146103f2578063e2bbb158146104185761018d565b8063943f013d1461037c57806396805e54146103845780639e987a19146103be5761018d565b80636e271dd5116100bd5780636e271dd5146103275780638d934f741461032f57806393f1a40b146103375761018d565b80635f96dc111461030f578063630b5ba11461031757806367a527931461031f5761018d565b8063441a3e70116101455780635312ea8e1161011f5780635312ea8e1461029857806354575af4146102b5578063570ca735146102eb5761018d565b8063441a3e7014610250578063456ebd021461027357806351eb05a61461027b5761018d565b806317caf6f11161017657806317caf6f1146102005780631ab06ee514610208578063231f0c6a1461022d5761018d565b806309cf6091146101925780631526fe27146101ac575b600080fd5b61019a61043b565b60408051918252519081900360200190f35b6101c9600480360360208110156101c257600080fd5b5035610449565b604080516001600160a01b039096168652602086019490945284840192909252606084015215156080830152519081900360a00190f35b61019a610494565b61022b6004803603604081101561021e57600080fd5b508035906020013561049a565b005b61019a6004803603604081101561024357600080fd5b5080359060200135610548565b61022b6004803603604081101561026657600080fd5b508035906020013561060d565b61019a6107d7565b61022b6004803603602081101561029157600080fd5b50356107dd565b61022b600480360360208110156102ae57600080fd5b5035610972565b61022b600480360360608110156102cb57600080fd5b506001600160a01b03813581169160208101359160409091013516610a0b565b6102f3610b7d565b604080516001600160a01b039092168252519081900360200190f35b61019a610b8c565b61022b610b92565b61019a610bb5565b61019a610bbb565b6102f3610bc1565b6103636004803603604081101561034d57600080fd5b50803590602001356001600160a01b0316610bd0565b6040805192835260208301919091528051918290030190f35b61019a610bf4565b61022b6004803603608081101561039a57600080fd5b508035906001600160a01b0360208201351690604081013515159060600135610bfa565b61019a600480360360408110156103d457600080fd5b50803590602001356001600160a01b0316610e2d565b6102f3610fa3565b61022b6004803603602081101561040857600080fd5b50356001600160a01b0316610fb2565b61022b6004803603604081101561042e57600080fd5b5080359060200135611035565b69091c02ad08de29e8000081565b6004818154811061045657fe5b6000918252602090912060059091020180546001820154600283015460038401546004909401546001600160a01b0390931694509092909160ff1685565b60065481565b6000546001600160a01b031633146104e35760405162461bcd60e51b815260040180806020018281038252602c81526020018061198a602c913960400191505060405180910390fd5b6104eb610b92565b6000600483815481106104fa57fe5b60009182526020909120600590910201600481015490915060ff16156105415761053d82610537836001015460065461124290919063ffffffff16565b9061129f565b6006555b6001015550565b600081831061055957506000610607565b60085482106105c157600854831061057357506000610607565b60075483116105a65761059f60095461059960075460085461124290919063ffffffff16565b90611300565b9050610607565b61059f6009546105998560085461124290919063ffffffff16565b60075482116105d257506000610607565b60075483116105f65761059f6009546105996007548561124290919063ffffffff16565b60095461059f906105998486611242565b92915050565b600033905060006004848154811061062157fe5b60009182526020808320878452600580835260408086206001600160a01b03891687529093529190932080549290910290920192508411156106aa576040805162461bcd60e51b815260206004820152601260248201527f77697468647261773a206e6f7420676f6f640000000000000000000000000000604482015290519081900360640190fd5b6106b3856107dd565b60006106f082600101546106ea670de0b6b3a76400006106e48760030154876000015461130090919063ffffffff16565b90611359565b90611242565b905080156107425761070284826113c0565b6040805182815290516001600160a01b038616917fe2403640ba68fed3a2f88b7557551d1993f84b99bb10ff833f0cf8db0c5e0486919081900360200190a25b841561076c5781546107549086611242565b8255825461076c906001600160a01b0316858761148f565b6003830154825461078a91670de0b6b3a7640000916106e491611300565b600183015560408051868152905187916001600160a01b038716917ff279e6a1f5e320cca91135676d9cb6e44ca8a08c0b88342bcdb1144f6511b5689181900360200190a3505050505050565b60095481565b6000600482815481106107ec57fe5b906000526020600020906005020190508060020154421161080d575061096f565b8054604080517f70a0823100000000000000000000000000000000000000000000000000000000815230600482015290516000926001600160a01b0316916370a08231916024808301926020929190829003018186803b15801561087057600080fd5b505afa158015610884573d6000803e3d6000fd5b505050506040513d602081101561089a57600080fd5b50519050806108b057504260029091015561096f565b600482015460ff166108ff576004820180547fffffffffffffffffffffffffffffffffffffffffffffffffffffffffffffff001660019081179091558201546006546108fb9161129f565b6006555b60065415610966576000610917836002015442610548565b905060006109386006546106e486600101548561130090919063ffffffff16565b905061095e610953846106e484670de0b6b3a7640000611300565b60038601549061129f565b600385015550505b50426002909101555b50565b60006004828154811061098157fe5b600091825260208083208584526005808352604080862033808852945285208054868255600182019690965593020180549094509192916109ce916001600160a01b03909116908361148f565b604080518281529051859133917fbb757047c2b5f3974fe26b7c10f732e7bce710b0952a71082702781e62ae05959181900360200190a350505050565b6000546001600160a01b03163314610a545760405162461bcd60e51b815260040180806020018281038252602c81526020018061198a602c913960400191505060405180910390fd5b6008546276a70001421015610b64576003546001600160a01b0384811691161415610ac6576040805162461bcd60e51b815260206004820152600560248201527f6772617665000000000000000000000000000000000000000000000000000000604482015290519081900360640190fd5b60045460005b81811015610b6157600060048281548110610ae357fe5b6000918252602090912060059091020180549091506001600160a01b0387811691161415610b58576040805162461bcd60e51b815260206004820152600a60248201527f706f6f6c2e746f6b656e00000000000000000000000000000000000000000000604482015290519081900360640190fd5b50600101610acc565b50505b610b786001600160a01b038416828461148f565b505050565b6000546001600160a01b031681565b60075481565b60045460005b81811015610bb157610ba9816107dd565b600101610b98565b5050565b60025481565b60085481565b6001546001600160a01b031681565b60056020908152600092835260408084209091529082529020805460019091015482565b600a5481565b6000546001600160a01b03163314610c435760405162461bcd60e51b815260040180806020018281038252602c81526020018061198a602c913960400191505060405180910390fd5b610c4c8361150f565b8115610c5a57610c5a610b92565b600754421015610c865780610c725750600754610c81565b600754811015610c8157506007545b610c9a565b801580610c9257504281105b15610c9a5750425b600060075482111580610cad5750428211155b6040805160a0810182526001600160a01b03878116825260208201898152928201868152600060608401818152861580156080870190815260048054600181018255945295517f8a35acfbc15ff81a39ae7d344fd709f28e8600b4aa8c65c6b64bfe7fe36bd19b600590940293840180547fffffffffffffffffffffffff000000000000000000000000000000000000000016919096161790945594517f8a35acfbc15ff81a39ae7d344fd709f28e8600b4aa8c65c6b64bfe7fe36bd19c82015590517f8a35acfbc15ff81a39ae7d344fd709f28e8600b4aa8c65c6b64bfe7fe36bd19d82015592517f8a35acfbc15ff81a39ae7d344fd709f28e8600b4aa8c65c6b64bfe7fe36bd19e84015590517f8a35acfbc15ff81a39ae7d344fd709f28e8600b4aa8c65c6b64bfe7fe36bd19f90920180547fffffffffffffffffffffffffffffffffffffffffffffffffffffffffffffff001692151592909217909155909150610e2657600654610e22908661129f565b6006555b5050505050565b60008060048481548110610e3d57fe5b60009182526020808320878452600580835260408086206001600160a01b03808b16885290855281872060039390960290930191820154825482517f70a0823100000000000000000000000000000000000000000000000000000000815230600482015292519398509596909590949316926370a0823192602480840193829003018186803b158015610ecf57600080fd5b505afa158015610ee3573d6000803e3d6000fd5b505050506040513d6020811015610ef957600080fd5b5051600285015490915042118015610f1057508015155b15610f6d576000610f25856002015442610548565b90506000610f466006546106e488600101548561130090919063ffffffff16565b9050610f68610f61846106e484670de0b6b3a7640000611300565b859061129f565b935050505b610f9883600101546106ea670de0b6b3a76400006106e486886000015461130090919063ffffffff16565b979650505050505050565b6003546001600160a01b031681565b6000546001600160a01b03163314610ffb5760405162461bcd60e51b815260040180806020018281038252602c81526020018061198a602c913960400191505060405180910390fd5b600080547fffffffffffffffffffffffff0000000000000000000000000000000000000000166001600160a01b0392909216919091179055565b600033905060006004848154811061104957fe5b60009182526020808320878452600580835260408086206001600160a01b03891687529093529190932091029091019150611083856107dd565b80541561110f5760006110bb82600101546106ea670de0b6b3a76400006106e48760030154876000015461130090919063ffffffff16565b9050801561110d576110cd84826113c0565b6040805182815290516001600160a01b038616917fe2403640ba68fed3a2f88b7557551d1993f84b99bb10ff833f0cf8db0c5e0486919081900360200190a25b505b83156111d8576001546001600160a01b031615801590611130575060025415155b156111b25760006111526127106106e46002548861130090919063ffffffff16565b6001548454919250611173916001600160a01b0390811691879116846115a9565b61119584306111828885611242565b86546001600160a01b03169291906115a9565b6111aa6111a28683611242565b83549061129f565b8255506111d8565b81546111c9906001600160a01b03168430876115a9565b80546111d5908561129f565b81555b600382015481546111f691670de0b6b3a7640000916106e491611300565b600182015560408051858152905186916001600160a01b038616917f90890809c654f11d6e72a28fa60149770a0d11ec6c92319d6ceb2bb0a4ea1a159181900360200190a35050505050565b600082821115611299576040805162461bcd60e51b815260206004820152601e60248201527f536166654d6174683a207375627472616374696f6e206f766572666c6f770000604482015290519081900360640190fd5b50900390565b6000828201838110156112f9576040805162461bcd60e51b815260206004820152601b60248201527f536166654d6174683a206164646974696f6e206f766572666c6f770000000000604482015290519081900360640190fd5b9392505050565b60008261130f57506000610607565b8282028284828161131c57fe5b04146112f95760405162461bcd60e51b815260040180806020018281038252602181526020018061193f6021913960400191505060405180910390fd5b60008082116113af576040805162461bcd60e51b815260206004820152601a60248201527f536166654d6174683a206469766973696f6e206279207a65726f000000000000604482015290519081900360640190fd5b8183816113b857fe5b049392505050565b600354604080517f70a0823100000000000000000000000000000000000000000000000000000000815230600482015290516000926001600160a01b0316916370a08231916024808301926020929190829003018186803b15801561142457600080fd5b505afa158015611438573d6000803e3d6000fd5b505050506040513d602081101561144e57600080fd5b505190508015610b78578082111561147c57600354611477906001600160a01b0316848361148f565b610b78565b600354610b78906001600160a01b031684845b604080516001600160a01b038416602482015260448082018490528251808303909101815260649091019091526020810180517bffffffffffffffffffffffffffffffffffffffffffffffffffffffff167fa9059cbb00000000000000000000000000000000000000000000000000000000179052610b78908490611637565b60045460005b81811015610b7857826001600160a01b03166004828154811061153457fe5b60009182526020909120600590910201546001600160a01b031614156115a1576040805162461bcd60e51b815260206004820181905260248201527f477261766547656e65736973506f6f6c3a206578697374696e6720706f6f6c3f604482015290519081900360640190fd5b600101611515565b604080516001600160a01b0380861660248301528416604482015260648082018490528251808303909101815260849091019091526020810180517bffffffffffffffffffffffffffffffffffffffffffffffffffffffff167f23b872dd00000000000000000000000000000000000000000000000000000000179052611631908590611637565b50505050565b606061168c826040518060400160405280602081526020017f5361666545524332303a206c6f772d6c6576656c2063616c6c206661696c6564815250856001600160a01b03166116e89092919063ffffffff16565b805190915015610b78578080602001905160208110156116ab57600080fd5b5051610b785760405162461bcd60e51b815260040180806020018281038252602a815260200180611960602a913960400191505060405180910390fd5b60606116f784846000856116ff565b949350505050565b6060824710156117405760405162461bcd60e51b81526004018080602001828103825260268152602001806119196026913960400191505060405180910390fd5b6117498561186e565b61179a576040805162461bcd60e51b815260206004820152601d60248201527f416464726573733a2063616c6c20746f206e6f6e2d636f6e7472616374000000604482015290519081900360640190fd5b60006060866001600160a01b031685876040518082805190602001908083835b602083106117f757805182527fffffffffffffffffffffffffffffffffffffffffffffffffffffffffffffffe090920191602091820191016117ba565b6001836020036101000a03801982511681845116808217855250505050505090500191505060006040518083038185875af1925050503d8060008114611859576040519150601f19603f3d011682016040523d82523d6000602084013e61185e565b606091505b5091509150610f98828286611874565b3b151590565b606083156118835750816112f9565b8251156118935782518084602001fd5b8160405162461bcd60e51b81526004018080602001828103825283818151815260200191508051906020019080838360005b838110156118dd5781810151838201526020016118c5565b50505050905090810190601f16801561190a5780820380516001836020036101000a031916815260200191505b509250505060405180910390fdfe416464726573733a20696e73756666696369656e742062616c616e636520666f722063616c6c536166654d6174683a206d756c7469706c69636174696f6e206f766572666c6f775361666545524332303a204552433230206f7065726174696f6e20646964206e6f742073756363656564477261766547656e65736973506f6f6c3a2063616c6c6572206973206e6f7420746865206f70657261746f72a2646970667358221220c2822953dca70a070c4aee046a5838a0bb5be84764e6ce193bd6f122bfa0857364736f6c634300060c0033",
  "devdoc": {
    "kind": "dev",
    "methods": {},
    "version": 1
  },
  "userdoc": {
    "kind": "user",
    "methods": {},
    "version": 1
  },
  "storageLayout": {
    "storage": [
      {
        "astId": 6361,
        "contract": "contracts/distribution/GraveGenesisRewardPool.sol:GraveGenesisRewardPool",
        "label": "operator",
        "offset": 0,
        "slot": "0",
        "type": "t_address"
      },
      {
        "astId": 6363,
        "contract": "contracts/distribution/GraveGenesisRewardPool.sol:GraveGenesisRewardPool",
        "label": "daoFund",
        "offset": 0,
        "slot": "1",
        "type": "t_address"
      },
      {
        "astId": 6365,
        "contract": "contracts/distribution/GraveGenesisRewardPool.sol:GraveGenesisRewardPool",
        "label": "depositFee",
        "offset": 0,
        "slot": "2",
        "type": "t_uint256"
      },
      {
        "astId": 6383,
        "contract": "contracts/distribution/GraveGenesisRewardPool.sol:GraveGenesisRewardPool",
        "label": "grave",
        "offset": 0,
        "slot": "3",
        "type": "t_contract(IERC20)1180"
      },
      {
        "astId": 6386,
        "contract": "contracts/distribution/GraveGenesisRewardPool.sol:GraveGenesisRewardPool",
        "label": "poolInfo",
        "offset": 0,
        "slot": "4",
        "type": "t_array(t_struct(PoolInfo)6381_storage)dyn_storage"
      },
      {
        "astId": 6392,
        "contract": "contracts/distribution/GraveGenesisRewardPool.sol:GraveGenesisRewardPool",
        "label": "userInfo",
        "offset": 0,
        "slot": "5",
        "type": "t_mapping(t_uint256,t_mapping(t_address,t_struct(UserInfo)6370_storage))"
      },
      {
        "astId": 6395,
        "contract": "contracts/distribution/GraveGenesisRewardPool.sol:GraveGenesisRewardPool",
        "label": "totalAllocPoint",
        "offset": 0,
        "slot": "6",
        "type": "t_uint256"
      },
      {
        "astId": 6397,
        "contract": "contracts/distribution/GraveGenesisRewardPool.sol:GraveGenesisRewardPool",
        "label": "poolStartTime",
        "offset": 0,
        "slot": "7",
        "type": "t_uint256"
      },
      {
        "astId": 6399,
        "contract": "contracts/distribution/GraveGenesisRewardPool.sol:GraveGenesisRewardPool",
        "label": "poolEndTime",
        "offset": 0,
        "slot": "8",
        "type": "t_uint256"
      },
      {
        "astId": 6402,
        "contract": "contracts/distribution/GraveGenesisRewardPool.sol:GraveGenesisRewardPool",
        "label": "gravePerSecond",
        "offset": 0,
        "slot": "9",
        "type": "t_uint256"
      },
      {
        "astId": 6405,
        "contract": "contracts/distribution/GraveGenesisRewardPool.sol:GraveGenesisRewardPool",
        "label": "runningTime",
        "offset": 0,
        "slot": "10",
        "type": "t_uint256"
      }
    ],
    "types": {
      "t_address": {
        "encoding": "inplace",
        "label": "address",
        "numberOfBytes": "20"
      },
      "t_array(t_struct(PoolInfo)6381_storage)dyn_storage": {
        "base": "t_struct(PoolInfo)6381_storage",
        "encoding": "dynamic_array",
        "label": "struct GraveGenesisRewardPool.PoolInfo[]",
        "numberOfBytes": "32"
      },
      "t_bool": {
        "encoding": "inplace",
        "label": "bool",
        "numberOfBytes": "1"
      },
      "t_contract(IERC20)1180": {
        "encoding": "inplace",
        "label": "contract IERC20",
        "numberOfBytes": "20"
      },
      "t_mapping(t_address,t_struct(UserInfo)6370_storage)": {
        "encoding": "mapping",
        "key": "t_address",
        "label": "mapping(address => struct GraveGenesisRewardPool.UserInfo)",
        "numberOfBytes": "32",
        "value": "t_struct(UserInfo)6370_storage"
      },
      "t_mapping(t_uint256,t_mapping(t_address,t_struct(UserInfo)6370_storage))": {
        "encoding": "mapping",
        "key": "t_uint256",
        "label": "mapping(uint256 => mapping(address => struct GraveGenesisRewardPool.UserInfo))",
        "numberOfBytes": "32",
        "value": "t_mapping(t_address,t_struct(UserInfo)6370_storage)"
      },
      "t_struct(PoolInfo)6381_storage": {
        "encoding": "inplace",
        "label": "struct GraveGenesisRewardPool.PoolInfo",
        "members": [
          {
            "astId": 6372,
            "contract": "contracts/distribution/GraveGenesisRewardPool.sol:GraveGenesisRewardPool",
            "label": "token",
            "offset": 0,
            "slot": "0",
            "type": "t_contract(IERC20)1180"
          },
          {
            "astId": 6374,
            "contract": "contracts/distribution/GraveGenesisRewardPool.sol:GraveGenesisRewardPool",
            "label": "allocPoint",
            "offset": 0,
            "slot": "1",
            "type": "t_uint256"
          },
          {
            "astId": 6376,
            "contract": "contracts/distribution/GraveGenesisRewardPool.sol:GraveGenesisRewardPool",
            "label": "lastRewardTime",
            "offset": 0,
            "slot": "2",
            "type": "t_uint256"
          },
          {
            "astId": 6378,
            "contract": "contracts/distribution/GraveGenesisRewardPool.sol:GraveGenesisRewardPool",
            "label": "accGravePerShare",
            "offset": 0,
            "slot": "3",
            "type": "t_uint256"
          },
          {
            "astId": 6380,
            "contract": "contracts/distribution/GraveGenesisRewardPool.sol:GraveGenesisRewardPool",
            "label": "isStarted",
            "offset": 0,
            "slot": "4",
            "type": "t_bool"
          }
        ],
        "numberOfBytes": "160"
      },
      "t_struct(UserInfo)6370_storage": {
        "encoding": "inplace",
        "label": "struct GraveGenesisRewardPool.UserInfo",
        "members": [
          {
            "astId": 6367,
            "contract": "contracts/distribution/GraveGenesisRewardPool.sol:GraveGenesisRewardPool",
            "label": "amount",
            "offset": 0,
            "slot": "0",
            "type": "t_uint256"
          },
          {
            "astId": 6369,
            "contract": "contracts/distribution/GraveGenesisRewardPool.sol:GraveGenesisRewardPool",
            "label": "rewardDebt",
            "offset": 0,
            "slot": "1",
            "type": "t_uint256"
          }
        ],
        "numberOfBytes": "64"
      },
      "t_uint256": {
        "encoding": "inplace",
        "label": "uint256",
        "numberOfBytes": "32"
      }
    }
  }
}