{
  "address": "0x8b25FcC21e9B55f638C3775E17206AD7445e06D0",
  "abi": [
    {
      "anonymous": false,
      "inputs": [
        {
          "indexed": false,
          "internalType": "uint256",
          "name": "timestamp",
          "type": "uint256"
        },
        {
          "indexed": false,
          "internalType": "uint256",
          "name": "seigniorage",
          "type": "uint256"
        }
      ],
      "name": "BoardroomFunded",
      "type": "event"
    },
    {
      "anonymous": false,
      "inputs": [
        {
          "indexed": true,
          "internalType": "address",
          "name": "from",
          "type": "address"
        },
        {
          "indexed": false,
          "internalType": "uint256",
          "name": "graveAmount",
          "type": "uint256"
        },
        {
          "indexed": false,
          "internalType": "uint256",
          "name": "bondAmount",
          "type": "uint256"
        }
      ],
      "name": "BoughtBonds",
      "type": "event"
    },
    {
      "anonymous": false,
      "inputs": [
        {
          "indexed": true,
          "internalType": "address",
          "name": "from",
          "type": "address"
        },
        {
          "indexed": false,
          "internalType": "uint256",
          "name": "bondAmount",
          "type": "uint256"
        }
      ],
      "name": "BurnedBonds",
      "type": "event"
    },
    {
      "anonymous": false,
      "inputs": [
        {
          "indexed": false,
          "internalType": "uint256",
          "name": "timestamp",
          "type": "uint256"
        },
        {
          "indexed": false,
          "internalType": "uint256",
          "name": "seigniorage",
          "type": "uint256"
        }
      ],
      "name": "DaoFundFunded",
      "type": "event"
    },
    {
      "anonymous": false,
      "inputs": [
        {
          "indexed": false,
          "internalType": "uint256",
          "name": "timestamp",
          "type": "uint256"
        },
        {
          "indexed": false,
          "internalType": "uint256",
          "name": "seigniorage",
          "type": "uint256"
        }
      ],
      "name": "DevFundFunded",
      "type": "event"
    },
    {
      "anonymous": false,
      "inputs": [
        {
          "indexed": true,
          "internalType": "address",
          "name": "executor",
          "type": "address"
        },
        {
          "indexed": false,
          "internalType": "uint256",
          "name": "at",
          "type": "uint256"
        }
      ],
      "name": "Initialized",
      "type": "event"
    },
    {
      "anonymous": false,
      "inputs": [
        {
          "indexed": true,
          "internalType": "address",
          "name": "from",
          "type": "address"
        },
        {
          "indexed": false,
          "internalType": "uint256",
          "name": "graveAmount",
          "type": "uint256"
        },
        {
          "indexed": false,
          "internalType": "uint256",
          "name": "bondAmount",
          "type": "uint256"
        }
      ],
      "name": "RedeemedBonds",
      "type": "event"
    },
    {
      "anonymous": false,
      "inputs": [
        {
          "indexed": false,
          "internalType": "uint256",
          "name": "timestamp",
          "type": "uint256"
        },
        {
          "indexed": false,
          "internalType": "uint256",
          "name": "seigniorage",
          "type": "uint256"
        }
      ],
      "name": "TreasuryFunded",
      "type": "event"
    },
    {
      "inputs": [],
      "name": "PERIOD",
      "outputs": [
        {
          "internalType": "uint256",
          "name": "",
          "type": "uint256"
        }
      ],
      "stateMutability": "view",
      "type": "function"
    },
    {
      "inputs": [],
      "name": "allocateSeigniorage",
      "outputs": [],
      "stateMutability": "nonpayable",
      "type": "function"
    },
    {
      "inputs": [],
      "name": "bondDepletionFloorPercent",
      "outputs": [
        {
          "internalType": "uint256",
          "name": "",
          "type": "uint256"
        }
      ],
      "stateMutability": "view",
      "type": "function"
    },
    {
      "inputs": [],
      "name": "bondSupplyExpansionPercent",
      "outputs": [
        {
          "internalType": "uint256",
          "name": "",
          "type": "uint256"
        }
      ],
      "stateMutability": "view",
      "type": "function"
    },
    {
      "inputs": [],
      "name": "bootstrapEpochs",
      "outputs": [
        {
          "internalType": "uint256",
          "name": "",
          "type": "uint256"
        }
      ],
      "stateMutability": "view",
      "type": "function"
    },
    {
      "inputs": [],
      "name": "bootstrapSupplyExpansionPercent",
      "outputs": [
        {
          "internalType": "uint256",
          "name": "",
          "type": "uint256"
        }
      ],
      "stateMutability": "view",
      "type": "function"
    },
    {
      "inputs": [
        {
          "internalType": "uint256",
          "name": "_graveAmount",
          "type": "uint256"
        },
        {
          "internalType": "uint256",
          "name": "targetPrice",
          "type": "uint256"
        }
      ],
      "name": "buyBonds",
      "outputs": [],
      "stateMutability": "nonpayable",
      "type": "function"
    },
    {
      "inputs": [],
      "name": "daoFund",
      "outputs": [
        {
          "internalType": "address",
          "name": "",
          "type": "address"
        }
      ],
      "stateMutability": "view",
      "type": "function"
    },
    {
      "inputs": [],
      "name": "daoFundSharedPercent",
      "outputs": [
        {
          "internalType": "uint256",
          "name": "",
          "type": "uint256"
        }
      ],
      "stateMutability": "view",
      "type": "function"
    },
    {
      "inputs": [],
      "name": "devFund",
      "outputs": [
        {
          "internalType": "address",
          "name": "",
          "type": "address"
        }
      ],
      "stateMutability": "view",
      "type": "function"
    },
    {
      "inputs": [],
      "name": "devFundSharedPercent",
      "outputs": [
        {
          "internalType": "uint256",
          "name": "",
          "type": "uint256"
        }
      ],
      "stateMutability": "view",
      "type": "function"
    },
    {
      "inputs": [],
      "name": "discountPercent",
      "outputs": [
        {
          "internalType": "uint256",
          "name": "",
          "type": "uint256"
        }
      ],
      "stateMutability": "view",
      "type": "function"
    },
    {
      "inputs": [],
      "name": "epoch",
      "outputs": [
        {
          "internalType": "uint256",
          "name": "",
          "type": "uint256"
        }
      ],
      "stateMutability": "view",
      "type": "function"
    },
    {
      "inputs": [],
      "name": "epochSupplyContractionLeft",
      "outputs": [
        {
          "internalType": "uint256",
          "name": "",
          "type": "uint256"
        }
      ],
      "stateMutability": "view",
      "type": "function"
    },
    {
      "inputs": [
        {
          "internalType": "uint256",
          "name": "",
          "type": "uint256"
        }
      ],
      "name": "excludedFromTotalSupply",
      "outputs": [
        {
          "internalType": "address",
          "name": "",
          "type": "address"
        }
      ],
      "stateMutability": "view",
      "type": "function"
    },
    {
      "inputs": [],
      "name": "getBondDiscountRate",
      "outputs": [
        {
          "internalType": "uint256",
          "name": "_rate",
          "type": "uint256"
        }
      ],
      "stateMutability": "view",
      "type": "function"
    },
    {
      "inputs": [],
      "name": "getBondPremiumRate",
      "outputs": [
        {
          "internalType": "uint256",
          "name": "_rate",
          "type": "uint256"
        }
      ],
      "stateMutability": "view",
      "type": "function"
    },
    {
      "inputs": [],
      "name": "getBurnableGraveLeft",
      "outputs": [
        {
          "internalType": "uint256",
          "name": "_burnableGraveLeft",
          "type": "uint256"
        }
      ],
      "stateMutability": "view",
      "type": "function"
    },
    {
      "inputs": [],
      "name": "getGraveCirculatingSupply",
      "outputs": [
        {
          "internalType": "uint256",
          "name": "",
          "type": "uint256"
        }
      ],
      "stateMutability": "view",
      "type": "function"
    },
    {
      "inputs": [],
      "name": "getGravePrice",
      "outputs": [
        {
          "internalType": "uint256",
          "name": "gravePrice",
          "type": "uint256"
        }
      ],
      "stateMutability": "view",
      "type": "function"
    },
    {
      "inputs": [],
      "name": "getGraveUpdatedPrice",
      "outputs": [
        {
          "internalType": "uint256",
          "name": "_gravePrice",
          "type": "uint256"
        }
      ],
      "stateMutability": "view",
      "type": "function"
    },
    {
      "inputs": [],
      "name": "getRedeemableBonds",
      "outputs": [
        {
          "internalType": "uint256",
          "name": "_redeemableBonds",
          "type": "uint256"
        }
      ],
      "stateMutability": "view",
      "type": "function"
    },
    {
      "inputs": [],
      "name": "getReserve",
      "outputs": [
        {
          "internalType": "uint256",
          "name": "",
          "type": "uint256"
        }
      ],
      "stateMutability": "view",
      "type": "function"
    },
    {
      "inputs": [
        {
          "internalType": "contract IERC20",
          "name": "_token",
          "type": "address"
        },
        {
          "internalType": "uint256",
          "name": "_amount",
          "type": "uint256"
        },
        {
          "internalType": "address",
          "name": "_to",
          "type": "address"
        }
      ],
      "name": "governanceRecoverUnsupported",
      "outputs": [],
      "stateMutability": "nonpayable",
      "type": "function"
    },
    {
      "inputs": [],
      "name": "grave",
      "outputs": [
        {
          "internalType": "address",
          "name": "",
          "type": "address"
        }
      ],
      "stateMutability": "view",
      "type": "function"
    },
    {
      "inputs": [],
      "name": "graveOracle",
      "outputs": [
        {
          "internalType": "address",
          "name": "",
          "type": "address"
        }
      ],
      "stateMutability": "view",
      "type": "function"
    },
    {
      "inputs": [],
      "name": "gravePriceCeiling",
      "outputs": [
        {
          "internalType": "uint256",
          "name": "",
          "type": "uint256"
        }
      ],
      "stateMutability": "view",
      "type": "function"
    },
    {
      "inputs": [],
      "name": "gravePriceOne",
      "outputs": [
        {
          "internalType": "uint256",
          "name": "",
          "type": "uint256"
        }
      ],
      "stateMutability": "view",
      "type": "function"
    },
    {
      "inputs": [
        {
          "internalType": "address",
          "name": "_grave",
          "type": "address"
        },
        {
          "internalType": "address",
          "name": "_xbond",
          "type": "address"
        },
        {
          "internalType": "address",
          "name": "_xshare",
          "type": "address"
        },
        {
          "internalType": "address",
          "name": "_graveOracle",
          "type": "address"
        },
        {
          "internalType": "address",
          "name": "_masonry",
          "type": "address"
        },
        {
          "internalType": "address",
          "name": "_genesisPool",
          "type": "address"
        },
        {
          "internalType": "uint256",
          "name": "_startTime",
          "type": "uint256"
        }
      ],
      "name": "initialize",
      "outputs": [],
      "stateMutability": "nonpayable",
      "type": "function"
    },
    {
      "inputs": [],
      "name": "initialized",
      "outputs": [
        {
          "internalType": "bool",
          "name": "",
          "type": "bool"
        }
      ],
      "stateMutability": "view",
      "type": "function"
    },
    {
      "inputs": [],
      "name": "isInitialized",
      "outputs": [
        {
          "internalType": "bool",
          "name": "",
          "type": "bool"
        }
      ],
      "stateMutability": "view",
      "type": "function"
    },
    {
      "inputs": [],
      "name": "masonry",
      "outputs": [
        {
          "internalType": "address",
          "name": "",
          "type": "address"
        }
      ],
      "stateMutability": "view",
      "type": "function"
    },
    {
      "inputs": [
        {
          "internalType": "uint256",
          "name": "amount",
          "type": "uint256"
        }
      ],
      "name": "masonryAllocateSeigniorage",
      "outputs": [],
      "stateMutability": "nonpayable",
      "type": "function"
    },
    {
      "inputs": [
        {
          "internalType": "address",
          "name": "_token",
          "type": "address"
        },
        {
          "internalType": "uint256",
          "name": "_amount",
          "type": "uint256"
        },
        {
          "internalType": "address",
          "name": "_to",
          "type": "address"
        }
      ],
      "name": "masonryGovernanceRecoverUnsupported",
      "outputs": [],
      "stateMutability": "nonpayable",
      "type": "function"
    },
    {
      "inputs": [
        {
          "internalType": "uint256",
          "name": "_withdrawLockupEpochs",
          "type": "uint256"
        },
        {
          "internalType": "uint256",
          "name": "_rewardLockupEpochs",
          "type": "uint256"
        }
      ],
      "name": "masonrySetLockUp",
      "outputs": [],
      "stateMutability": "nonpayable",
      "type": "function"
    },
    {
      "inputs": [
        {
          "internalType": "address",
          "name": "_operator",
          "type": "address"
        }
      ],
      "name": "masonrySetOperator",
      "outputs": [],
      "stateMutability": "nonpayable",
      "type": "function"
    },
    {
      "inputs": [],
      "name": "maxDebtRatioPercent",
      "outputs": [
        {
          "internalType": "uint256",
          "name": "",
          "type": "uint256"
        }
      ],
      "stateMutability": "view",
      "type": "function"
    },
    {
      "inputs": [],
      "name": "maxDiscountRate",
      "outputs": [
        {
          "internalType": "uint256",
          "name": "",
          "type": "uint256"
        }
      ],
      "stateMutability": "view",
      "type": "function"
    },
    {
      "inputs": [
        {
          "internalType": "uint256",
          "name": "",
          "type": "uint256"
        }
      ],
      "name": "maxExpansionTiers",
      "outputs": [
        {
          "internalType": "uint256",
          "name": "",
          "type": "uint256"
        }
      ],
      "stateMutability": "view",
      "type": "function"
    },
    {
      "inputs": [],
      "name": "maxPremiumRate",
      "outputs": [
        {
          "internalType": "uint256",
          "name": "",
          "type": "uint256"
        }
      ],
      "stateMutability": "view",
      "type": "function"
    },
    {
      "inputs": [],
      "name": "maxSupplyContractionPercent",
      "outputs": [
        {
          "internalType": "uint256",
          "name": "",
          "type": "uint256"
        }
      ],
      "stateMutability": "view",
      "type": "function"
    },
    {
      "inputs": [],
      "name": "maxSupplyExpansionPercent",
      "outputs": [
        {
          "internalType": "uint256",
          "name": "",
          "type": "uint256"
        }
      ],
      "stateMutability": "view",
      "type": "function"
    },
    {
      "inputs": [],
      "name": "mintingFactorForPayingDebt",
      "outputs": [
        {
          "internalType": "uint256",
          "name": "",
          "type": "uint256"
        }
      ],
      "stateMutability": "view",
      "type": "function"
    },
    {
      "inputs": [],
      "name": "nextEpochPoint",
      "outputs": [
        {
          "internalType": "uint256",
          "name": "",
          "type": "uint256"
        }
      ],
      "stateMutability": "view",
      "type": "function"
    },
    {
      "inputs": [],
      "name": "operator",
      "outputs": [
        {
          "internalType": "address",
          "name": "",
          "type": "address"
        }
      ],
      "stateMutability": "view",
      "type": "function"
    },
    {
      "inputs": [],
      "name": "premiumPercent",
      "outputs": [
        {
          "internalType": "uint256",
          "name": "",
          "type": "uint256"
        }
      ],
      "stateMutability": "view",
      "type": "function"
    },
    {
      "inputs": [],
      "name": "premiumThreshold",
      "outputs": [
        {
          "internalType": "uint256",
          "name": "",
          "type": "uint256"
        }
      ],
      "stateMutability": "view",
      "type": "function"
    },
    {
      "inputs": [],
      "name": "previousEpochGravePrice",
      "outputs": [
        {
          "internalType": "uint256",
          "name": "",
          "type": "uint256"
        }
      ],
      "stateMutability": "view",
      "type": "function"
    },
    {
      "inputs": [
        {
          "internalType": "uint256",
          "name": "_bondAmount",
          "type": "uint256"
        },
        {
          "internalType": "uint256",
          "name": "targetPrice",
          "type": "uint256"
        }
      ],
      "name": "redeemBonds",
      "outputs": [],
      "stateMutability": "nonpayable",
      "type": "function"
    },
    {
      "inputs": [],
      "name": "seigniorageExpansionFloorPercent",
      "outputs": [
        {
          "internalType": "uint256",
          "name": "",
          "type": "uint256"
        }
      ],
      "stateMutability": "view",
      "type": "function"
    },
    {
      "inputs": [],
      "name": "seigniorageSaved",
      "outputs": [
        {
          "internalType": "uint256",
          "name": "",
          "type": "uint256"
        }
      ],
      "stateMutability": "view",
      "type": "function"
    },
    {
      "inputs": [
        {
          "internalType": "address",
          "name": "_masonry",
          "type": "address"
        }
      ],
      "name": "setBoardroom",
      "outputs": [],
      "stateMutability": "nonpayable",
      "type": "function"
    },
    {
      "inputs": [
        {
          "internalType": "uint256",
          "name": "_bondDepletionFloorPercent",
          "type": "uint256"
        }
      ],
      "name": "setBondDepletionFloorPercent",
      "outputs": [],
      "stateMutability": "nonpayable",
      "type": "function"
    },
    {
      "inputs": [
        {
          "internalType": "uint256",
          "name": "_bondSupplyExpansionPercent",
          "type": "uint256"
        }
      ],
      "name": "setBondSupplyExpansionPercent",
      "outputs": [],
      "stateMutability": "nonpayable",
      "type": "function"
    },
    {
      "inputs": [
        {
          "internalType": "uint256",
          "name": "_bootstrapEpochs",
          "type": "uint256"
        },
        {
          "internalType": "uint256",
          "name": "_bootstrapSupplyExpansionPercent",
          "type": "uint256"
        }
      ],
      "name": "setBootstrap",
      "outputs": [],
      "stateMutability": "nonpayable",
      "type": "function"
    },
    {
      "inputs": [
        {
          "internalType": "uint256",
          "name": "_discountPercent",
          "type": "uint256"
        }
      ],
      "name": "setDiscountPercent",
      "outputs": [],
      "stateMutability": "nonpayable",
      "type": "function"
    },
    {
      "inputs": [
        {
          "internalType": "address",
          "name": "_daoFund",
          "type": "address"
        },
        {
          "internalType": "uint256",
          "name": "_daoFundSharedPercent",
          "type": "uint256"
        },
        {
          "internalType": "address",
          "name": "_devFund",
          "type": "address"
        },
        {
          "internalType": "uint256",
          "name": "_devFundSharedPercent",
          "type": "uint256"
        }
      ],
      "name": "setExtraFunds",
      "outputs": [],
      "stateMutability": "nonpayable",
      "type": "function"
    },
    {
      "inputs": [
        {
          "internalType": "address",
          "name": "_graveOracle",
          "type": "address"
        }
      ],
      "name": "setGraveOracle",
      "outputs": [],
      "stateMutability": "nonpayable",
      "type": "function"
    },
    {
      "inputs": [
        {
          "internalType": "uint256",
          "name": "_gravePriceCeiling",
          "type": "uint256"
        }
      ],
      "name": "setGravePriceCeiling",
      "outputs": [],
      "stateMutability": "nonpayable",
      "type": "function"
    },
    {
      "inputs": [
        {
          "internalType": "uint256",
          "name": "_maxDebtRatioPercent",
          "type": "uint256"
        }
      ],
      "name": "setMaxDebtRatioPercent",
      "outputs": [],
      "stateMutability": "nonpayable",
      "type": "function"
    },
    {
      "inputs": [
        {
          "internalType": "uint256",
          "name": "_maxDiscountRate",
          "type": "uint256"
        }
      ],
      "name": "setMaxDiscountRate",
      "outputs": [],
      "stateMutability": "nonpayable",
      "type": "function"
    },
    {
      "inputs": [
        {
          "internalType": "uint8",
          "name": "_index",
          "type": "uint8"
        },
        {
          "internalType": "uint256",
          "name": "_value",
          "type": "uint256"
        }
      ],
      "name": "setMaxExpansionTiersEntry",
      "outputs": [
        {
          "internalType": "bool",
          "name": "",
          "type": "bool"
        }
      ],
      "stateMutability": "nonpayable",
      "type": "function"
    },
    {
      "inputs": [
        {
          "internalType": "uint256",
          "name": "_maxPremiumRate",
          "type": "uint256"
        }
      ],
      "name": "setMaxPremiumRate",
      "outputs": [],
      "stateMutability": "nonpayable",
      "type": "function"
    },
    {
      "inputs": [
        {
          "internalType": "uint256",
          "name": "_maxSupplyContractionPercent",
          "type": "uint256"
        }
      ],
      "name": "setMaxSupplyContractionPercent",
      "outputs": [],
      "stateMutability": "nonpayable",
      "type": "function"
    },
    {
      "inputs": [
        {
          "internalType": "uint256",
          "name": "_maxSupplyExpansionPercent",
          "type": "uint256"
        }
      ],
      "name": "setMaxSupplyExpansionPercents",
      "outputs": [],
      "stateMutability": "nonpayable",
      "type": "function"
    },
    {
      "inputs": [
        {
          "internalType": "uint256",
          "name": "_mintingFactorForPayingDebt",
          "type": "uint256"
        }
      ],
      "name": "setMintingFactorForPayingDebt",
      "outputs": [],
      "stateMutability": "nonpayable",
      "type": "function"
    },
    {
      "inputs": [
        {
          "internalType": "address",
          "name": "_operator",
          "type": "address"
        }
      ],
      "name": "setOperator",
      "outputs": [],
      "stateMutability": "nonpayable",
      "type": "function"
    },
    {
      "inputs": [
        {
          "internalType": "uint256",
          "name": "_premiumPercent",
          "type": "uint256"
        }
      ],
      "name": "setPremiumPercent",
      "outputs": [],
      "stateMutability": "nonpayable",
      "type": "function"
    },
    {
      "inputs": [
        {
          "internalType": "uint256",
          "name": "_premiumThreshold",
          "type": "uint256"
        }
      ],
      "name": "setPremiumThreshold",
      "outputs": [],
      "stateMutability": "nonpayable",
      "type": "function"
    },
    {
      "inputs": [
        {
          "internalType": "uint8",
          "name": "_index",
          "type": "uint8"
        },
        {
          "internalType": "uint256",
          "name": "_value",
          "type": "uint256"
        }
      ],
      "name": "setSupplyTiersEntry",
      "outputs": [
        {
          "internalType": "bool",
          "name": "",
          "type": "bool"
        }
      ],
      "stateMutability": "nonpayable",
      "type": "function"
    },
    {
      "inputs": [],
      "name": "startTime",
      "outputs": [
        {
          "internalType": "uint256",
          "name": "",
          "type": "uint256"
        }
      ],
      "stateMutability": "view",
      "type": "function"
    },
    {
      "inputs": [
        {
          "internalType": "uint256",
          "name": "",
          "type": "uint256"
        }
      ],
      "name": "supplyTiers",
      "outputs": [
        {
          "internalType": "uint256",
          "name": "",
          "type": "uint256"
        }
      ],
      "stateMutability": "view",
      "type": "function"
    },
    {
      "inputs": [],
      "name": "xbond",
      "outputs": [
        {
          "internalType": "address",
          "name": "",
          "type": "address"
        }
      ],
      "stateMutability": "view",
      "type": "function"
    },
    {
      "inputs": [],
      "name": "xshare",
      "outputs": [
        {
          "internalType": "address",
          "name": "",
          "type": "address"
        }
      ],
      "stateMutability": "view",
      "type": "function"
    }
  ],
  "transactionHash": "0xec6638f4ea52cb3f0fe2338c0248f3f946094896dd3b513efd701747a0317974",
  "args": [],
  "numDeployments": 1,
  "solcInputHash": "016aede46e161bc0b817367f139c4eee",
  "bytecode": "0x60806040526001805460ff60a01b191690556000600381905560045534801561002757600080fd5b50614c8c806100376000396000f3fe608060405234801561001057600080fd5b50600436106104de5760003560e01c806378e9792511610286578063b4a5e9281161016b578063d4b14944116100e3578063f14698de11610097578063fb260df11161007c578063fb260df114610aab578063fcb6f00814610ab3578063ffff6dfb14610abb576104de565b8063f14698de14610a86578063f245245a14610a8e576104de565b8063da3ed419116100c8578063da3ed41914610a59578063e90b245414610a61578063e9c2ce1114610a69576104de565b8063d4b1494414610a2b578063d98f249514610a51576104de565b8063be266d541161013a578063c8412d021161011f578063c8412d02146109fe578063c8f987f314610a06578063cecce38e14610a0e576104de565b8063be266d54146109d9578063c5967c26146109f6576104de565b8063b4a5e92814610987578063b4d1d7951461098f578063b8a878f914610997578063bcc81f191461099f576104de565b8063951357d4116101fe578063a204452b116101cd578063b2a5fd81116101b2578063b2a5fd8114610933578063b3ab15fb1461093b578063b3ffc77714610961576104de565b8063a204452b1461090e578063a41cd0341461092b576104de565b8063951357d41461088157806398b762a1146108b757806399820025146108d4578063a0487eea146108f1576104de565b80638c664db611610255578063900cf0cf1161023a578063900cf0cf1461083057806391bbfed514610838578063940e60641461085b576104de565b80638c664db61461080b5780638d934f7414610828576104de565b806378e97925146107d657806381d11eaf146107de57806382cad838146107e6578063874106cc14610803576104de565b80634363f654116103c75780635a0fc79c1161033f57806366c17ead116102f35780636e5973f1116102d85780636e5973f1146107a357806372c054f9146107ab578063734f7096146107b3576104de565b806366c17ead146107935780636deec4731461079b576104de565b80635b86d859116103245780635b86d8591461075d57806362ac58e41461076557806363f96cf41461078b576104de565b80635a0fc79c1461074d5780635b75617914610755576104de565b806354f04a1111610396578063570ca7351161037b578063570ca73514610720578063591663e11461072857806359bf5d3914610745576104de565b806354f04a11146106f557806355ebdeef14610718576104de565b80634363f654146106925780634390d2a81461069a578063499f3f19146106a257806354575af4146106bf576104de565b8063154ec2db1161045a5780632e9c7b6511610429578063392e53cd1161040e578063392e53cd146106655780634013a08e1461066d57806340af7ba514610675576104de565b80632e9c7b6514610655578063349aa30a1461065d576104de565b8063154ec2db1461060c578063158ef93e1461062957806322f832cd1461064557806329ef19191461064d576104de565b80630b5bcec7116104b15780630db7eb0b116104965780630db7eb0b1461058b578063118ebbf9146105935780631460e390146105b6576104de565b80630b5bcec7146105665780630cf6017514610583576104de565b806303be7e76146104e357806304e5c7b1146104fd57806307e36ee31461051c5780630945958214610540575b600080fd5b6104eb610ac3565b60408051918252519081900360200190f35b61051a6004803603602081101561051357600080fd5b5035610ac9565b005b610524610b98565b604080516001600160a01b039092168252519081900360200190f35b61051a6004803603602081101561055657600080fd5b50356001600160a01b0316610ba7565b61051a6004803603602081101561057c57600080fd5b5035610c1f565b6104eb610cbb565b6104eb610d6d565b61051a600480360360408110156105a957600080fd5b5080359060200135610e0f565b61051a600480360360e08110156105cc57600080fd5b506001600160a01b038135811691602081013582169160408201358116916060810135821691608082013581169160a08101359091169060c001356114a2565b61051a6004803603602081101561062257600080fd5b5035611847565b6106316118ec565b604080519115158252519081900360200190f35b6104eb61190d565b6104eb611913565b6104eb611919565b6104eb61191f565b610631611925565b6104eb611947565b61051a6004803603602081101561068b57600080fd5b503561194d565b6105246119f2565b610524611a01565b61051a600480360360208110156106b857600080fd5b5035611a10565b61051a600480360360608110156106d557600080fd5b506001600160a01b03813581169160208101359160409091013516611aad565b61051a6004803603604081101561070b57600080fd5b5080359060200135611c3a565b6104eb6123b9565b6105246123bf565b61051a6004803603602081101561073e57600080fd5b50356123ce565b6104eb612481565b6104eb612487565b61051a61248d565b6104eb612b75565b61051a6004803603602081101561077b57600080fd5b50356001600160a01b0316612b7b565b610524612c46565b6104eb612c55565b610524612d4b565b6104eb612d5a565b6104eb612d60565b61051a600480360360408110156107c957600080fd5b5080359060200135612e39565b6104eb612f0b565b6104eb612f11565b610524600480360360208110156107fc57600080fd5b5035612f17565b6104eb612f3e565b61051a6004803603602081101561082157600080fd5b5035612f44565b610524612ff7565b6104eb613006565b61051a6004803603604081101561084e57600080fd5b508035906020013561300c565b6106316004803603604081101561087157600080fd5b5060ff8135169060200135613104565b61051a6004803603606081101561089757600080fd5b506001600160a01b03813581169160208101359160409091013516613220565b61051a600480360360208110156108cd57600080fd5b50356132fc565b6104eb600480360360208110156108ea57600080fd5b503561334a565b6104eb6004803603602081101561090757600080fd5b5035613368565b61051a6004803603602081101561092457600080fd5b5035613375565b6105246133c3565b6104eb6133d2565b61051a6004803603602081101561095157600080fd5b50356001600160a01b03166134d9565b61051a6004803603602081101561097757600080fd5b50356001600160a01b0316613551565b6104eb6135c9565b6104eb6135cf565b6104eb6135d5565b61051a600480360360808110156109b557600080fd5b506001600160a01b03813581169160208101359160408201351690606001356135db565b61051a600480360360208110156109ef57600080fd5b50356137d1565b6104eb613880565b6104eb6138aa565b6104eb6138b0565b61051a60048036036020811015610a2457600080fd5b50356138b6565b61063160048036036040811015610a4157600080fd5b5060ff8135169060200135613968565b6104eb613a6b565b6104eb613a71565b6104eb613a77565b61051a60048036036020811015610a7f57600080fd5b5035613a7d565b6104eb613b48565b61051a60048036036020811015610aa457600080fd5b5035613b4e565b6104eb613b9c565b6104eb613c17565b6104eb613c1d565b60225481565b6001546001600160a01b03163314610b125760405162461bcd60e51b8152600401808060200182810382526024815260200180614b2a6024913960400191505060405180910390fd5b600c54811015610b535760405162461bcd60e51b815260040180806020018281038252602b815260200180614bd4602b913960400191505060405180910390fd5b6096811115610b935760405162461bcd60e51b81526004018080602001828103825260248152602001806149866024913960400191505060405180910390fd5b601c55565b6008546001600160a01b031681565b6001546001600160a01b03163314610bf05760405162461bcd60e51b8152600401808060200182810382526024815260200180614b2a6024913960400191505060405180910390fd5b600a805473ffffffffffffffffffffffffffffffffffffffff19166001600160a01b0392909216919091179055565b6001546001600160a01b03163314610c685760405162461bcd60e51b8152600401808060200182810382526024815260200180614b2a6024913960400191505060405180910390fd5b600a8110158015610c7b57506103e88111155b610cb65760405162461bcd60e51b8152600401808060200182810382526028815260200180614aa26028913960400191505060405180910390fd5b601055565b600080610cc6613b9c565b9050600b548111610d6957601b54610ce257600b549150610d69565b6000610d0b82610d05670de0b6b3a7640000600b54613d8e90919063ffffffff16565b90613dee565b90506000610d36612710610d05601b54610d30600b5487613e5590919063ffffffff16565b90613d8e565b600b54909150610d469082613eb2565b93506000601954118015610d5b575060195484115b15610d665760195493505b50505b5090565b600080610d78613b9c565b9050600c54811115610d69576000610da26064610d05601c54600b54613d8e90919063ffffffff16565b9050808210610e04576000610dce612710610d05601d54610d30600b5488613e5590919063ffffffff16565b600b54909150610dde9082613eb2565b93506000601a54118015610df35750601a5484115b15610dfe57601a5493505b50610e0a565b600b5492505b505090565b610e17613f0c565b15610e535760405162461bcd60e51b8152600401808060200182810382526026815260200180614b786026913960400191505060405180910390fd5b610e5b613f2b565b15610e975760405162461bcd60e51b8152600401808060200182810382526026815260200180614b786026913960400191505060405180910390fd5b600254421015610eee576040805162461bcd60e51b815260206004820152601960248201527f54726561737572793a206e6f7420737461727465642079657400000000000000604482015290519081900360640190fd5b6006546040805163570ca73560e01b8152905130926001600160a01b03169163570ca735916004808301926020929190829003018186803b158015610f3257600080fd5b505afa158015610f46573d6000803e3d6000fd5b505050506040513d6020811015610f5c57600080fd5b50516001600160a01b0316148015610fea57506007546040805163570ca73560e01b8152905130926001600160a01b03169163570ca735916004808301926020929190829003018186803b158015610fb357600080fd5b505afa158015610fc7573d6000803e3d6000fd5b505050506040513d6020811015610fdd57600080fd5b50516001600160a01b0316145b801561106c57506008546040805163570ca73560e01b8152905130926001600160a01b03169163570ca735916004808301926020929190829003018186803b15801561103557600080fd5b505afa158015611049573d6000803e3d6000fd5b505050506040513d602081101561105f57600080fd5b50516001600160a01b0316145b80156110ee57506009546040805163570ca73560e01b8152905130926001600160a01b03169163570ca735916004808301926020929190829003018186803b1580156110b757600080fd5b505afa1580156110cb573d6000803e3d6000fd5b505050506040513d60208110156110e157600080fd5b50516001600160a01b0316145b61113f576040805162461bcd60e51b815260206004820152601e60248201527f54726561737572793a206e656564206d6f7265207065726d697373696f6e0000604482015290519081900360640190fd5b6000821161117e5760405162461bcd60e51b815260040180806020018281038252602e815260200180614958602e913960400191505060405180910390fd5b6000611188613b9c565b90508181146111de576040805162461bcd60e51b815260206004820152601b60248201527f54726561737572793a204752415645207072696365206d6f7665640000000000604482015290519081900360640190fd5b600c54811161121e5760405162461bcd60e51b8152600401808060200182810382526033815260200180614a466033913960400191505060405180910390fd5b6000611228610d6d565b90506000811161127f576040805162461bcd60e51b815260206004820152601b60248201527f54726561737572793a20696e76616c696420626f6e6420726174650000000000604482015290519081900360640190fd5b6000611297670de0b6b3a7640000610d058785613d8e565b600654604080517f70a08231000000000000000000000000000000000000000000000000000000008152306004820152905192935083926001600160a01b03909216916370a0823191602480820192602092909190829003018186803b15801561130057600080fd5b505afa158015611314573d6000803e3d6000fd5b505050506040513d602081101561132a57600080fd5b505110156113695760405162461bcd60e51b81526004018080602001828103825260258152602001806149d06025913960400191505060405180910390fd5b611381611378600d5483613f4a565b600d5490613e55565b600d55600754604080517f79cc67900000000000000000000000000000000000000000000000000000000081523360048201526024810188905290516001600160a01b03909216916379cc67909160448082019260009290919082900301818387803b1580156113f057600080fd5b505af1158015611404573d6000803e3d6000fd5b505060065461142092506001600160a01b031690503383613f60565b611428613fe0565b6040805182815260208101879052815133927f51e0d16595cabc591e64da08e45bb223577e5b9a39cd947b4ddc3472b2dd8878928290030190a25050436000908152602081815260408083203284529091528082208054600160ff1991821681179092553384529190922080549091169091179055505050565b60015474010000000000000000000000000000000000000000900460ff1615611512576040805162461bcd60e51b815260206004820152601d60248201527f54726561737572793a20616c726561647920696e697469616c697a6564000000604482015290519081900360640190fd5b6006805473ffffffffffffffffffffffffffffffffffffffff199081166001600160a01b038a811691909117909255600780548216898416179055600880548216888416179055600a80548216878416179055600980549091169185169190911790556002819055670de0b6b3a7640000600b81905561159a90606490610d05906065613d8e565b600c55600580546001810182556000919091527f036b6384b5eca791c62761152d0c79bb0604c104a5fb6f4eb0703f3154bb3db001805473ffffffffffffffffffffffffffffffffffffffff19166001600160a01b038416179055604080516101008101825269021e19e0c9bab2400000815269032d26d12e980b600000602082015269054b40b1f852bda00000918101919091526907695a92c20d6fe000006060820152690cb49b44ba602d80000060808201526934f086f3b33b6840000060a08201526969e10de76676d080000060c082015269d3c21bcecceda100000060e082015261168d90600e9060086148ac565b5060408051610100810182526101c28152610190602082015261015e9181019190915261012c606082015260fa608082015260c860a0820152609660c0820152607d60e08201526116e290600f906008614901565b506101c2601055612710601155610dac601281905561012c6013556014556101f4601555606e601c55611b58601d55600c60165560fa601755600654604080517f70a0823100000000000000000000000000000000000000000000000000000000815230600482015290516001600160a01b03909216916370a0823191602480820192602092909190829003018186803b15801561177f57600080fd5b505afa158015611793573d6000803e3d6000fd5b505050506040513d60208110156117a957600080fd5b5051600d556001805473ffffffffffffffffffffffffffffffffffffffff197fffffffffffffffffffffff00ffffffffffffffffffffffffffffffffffffffff909116740100000000000000000000000000000000000000001716339081179091556040805143815290517f25ff68dd81b34665b5ba7e553ee5511bf6812e12adb4a7e2c0d9e26b3099ce799181900360200190a250505050505050565b6001546001600160a01b031633146118905760405162461bcd60e51b8152600401808060200182810382526024815260200180614b2a6024913960400191505060405180910390fd5b614e208111156118e7576040805162461bcd60e51b815260206004820152601d60248201527f5f646973636f756e7450657263656e74206973206f7665722032303025000000604482015290519081900360640190fd5b601b55565b60015474010000000000000000000000000000000000000000900460ff1681565b60125481565b601b5481565b601a5481565b60155481565b60015474010000000000000000000000000000000000000000900460ff165b90565b601e5481565b6001546001600160a01b031633146119965760405162461bcd60e51b8152600401808060200182810382526024815260200180614b2a6024913960400191505060405180910390fd5b614e208111156119ed576040805162461bcd60e51b815260206004820152601c60248201527f5f7072656d69756d50657263656e74206973206f766572203230302500000000604482015290519081900360640190fd5b601d55565b6007546001600160a01b031681565b6021546001600160a01b031681565b6001546001600160a01b03163314611a595760405162461bcd60e51b8152600401808060200182810382526024815260200180614b2a6024913960400191505060405180910390fd5b6127108110158015611a6d5750614e208111155b611aa85760405162461bcd60e51b8152600401808060200182810382526029815260200180614a796029913960400191505060405180910390fd5b601e55565b6001546001600160a01b03163314611af65760405162461bcd60e51b8152600401808060200182810382526024815260200180614b2a6024913960400191505060405180910390fd5b6006546001600160a01b0384811691161415611b59576040805162461bcd60e51b815260206004820152600560248201527f6772617665000000000000000000000000000000000000000000000000000000604482015290519081900360640190fd5b6007546001600160a01b0384811691161415611bbe576040805162461bcd60e51b8152602060048083019190915260248201527f626f6e6400000000000000000000000000000000000000000000000000000000604482015290519081900360640190fd5b6008546001600160a01b0384811691161415611c21576040805162461bcd60e51b815260206004820152600560248201527f7368617265000000000000000000000000000000000000000000000000000000604482015290519081900360640190fd5b611c356001600160a01b0384168284613f60565b505050565b611c42613f0c565b15611c7e5760405162461bcd60e51b8152600401808060200182810382526026815260200180614b786026913960400191505060405180910390fd5b611c86613f2b565b15611cc25760405162461bcd60e51b8152600401808060200182810382526026815260200180614b786026913960400191505060405180910390fd5b600254421015611d19576040805162461bcd60e51b815260206004820152601960248201527f54726561737572793a206e6f7420737461727465642079657400000000000000604482015290519081900360640190fd5b6006546040805163570ca73560e01b8152905130926001600160a01b03169163570ca735916004808301926020929190829003018186803b158015611d5d57600080fd5b505afa158015611d71573d6000803e3d6000fd5b505050506040513d6020811015611d8757600080fd5b50516001600160a01b0316148015611e1557506007546040805163570ca73560e01b8152905130926001600160a01b03169163570ca735916004808301926020929190829003018186803b158015611dde57600080fd5b505afa158015611df2573d6000803e3d6000fd5b505050506040513d6020811015611e0857600080fd5b50516001600160a01b0316145b8015611e9757506008546040805163570ca73560e01b8152905130926001600160a01b03169163570ca735916004808301926020929190829003018186803b158015611e6057600080fd5b505afa158015611e74573d6000803e3d6000fd5b505050506040513d6020811015611e8a57600080fd5b50516001600160a01b0316145b8015611f1957506009546040805163570ca73560e01b8152905130926001600160a01b03169163570ca735916004808301926020929190829003018186803b158015611ee257600080fd5b505afa158015611ef6573d6000803e3d6000fd5b505050506040513d6020811015611f0c57600080fd5b50516001600160a01b0316145b611f6a576040805162461bcd60e51b815260206004820152601e60248201527f54726561737572793a206e656564206d6f7265207065726d697373696f6e0000604482015290519081900360640190fd5b60008211611fa95760405162461bcd60e51b8152600401808060200182810382526030815260200180614a166030913960400191505060405180910390fd5b6000611fb3613b9c565b9050818114612009576040805162461bcd60e51b815260206004820152601b60248201527f54726561737572793a204752415645207072696365206d6f7665640000000000604482015290519081900360640190fd5b600b5481106120495760405162461bcd60e51b8152600401808060200182810382526033815260200180614a466033913960400191505060405180910390fd5b60045483111561208a5760405162461bcd60e51b815260040180806020018281038252602a815260200180614bff602a913960400191505060405180910390fd5b6000612094610cbb565b9050600081116120eb576040805162461bcd60e51b815260206004820152601b60248201527f54726561737572793a20696e76616c696420626f6e6420726174650000000000604482015290519081900360640190fd5b6000612103670de0b6b3a7640000610d058785613d8e565b9050600061210f613c1d565b9050600061219783600760009054906101000a90046001600160a01b03166001600160a01b03166318160ddd6040518163ffffffff1660e01b815260040160206040518083038186803b15801561216557600080fd5b505afa158015612179573d6000803e3d6000fd5b505050506040513d602081101561218f57600080fd5b505190613eb2565b90506121b4612710610d0560145485613d8e90919063ffffffff16565b811115612208576040805162461bcd60e51b815260206004820152601360248201527f6f766572206d6178206465627420726174696f00000000000000000000000000604482015290519081900360640190fd5b600654604080517f79cc6790000000000000000000000000000000000000000000000000000000008152336004820152602481018a905290516001600160a01b03909216916379cc67909160448082019260009290919082900301818387803b15801561227457600080fd5b505af1158015612288573d6000803e3d6000fd5b5050600754604080517f40c10f190000000000000000000000000000000000000000000000000000000081523360048201526024810188905290516001600160a01b0390921693506340c10f1992506044808201926020929091908290030181600087803b1580156122f957600080fd5b505af115801561230d573d6000803e3d6000fd5b505050506040513d602081101561232357600080fd5b50506004546123329088613e55565b60045561233d613fe0565b6040805188815260208101859052815133927f73017f1b70789e2e66759eeb3c7ec11f59e6eedb55d921cfaec5410dd42a4799928290030190a25050436000908152602081815260408083203284529091528082208054600160ff19918216811790925533845291909220805490911690911790555050505050565b60205481565b6001546001600160a01b031681565b6001546001600160a01b031633146124175760405162461bcd60e51b8152600401808060200182810382526024815260200180614b2a6024913960400191505060405180910390fd5b6103e8811015801561242b57506127108111155b61247c576040805162461bcd60e51b815260206004820152600c60248201527f6f7574206f662072616e67650000000000000000000000000000000000000000604482015290519081900360640190fd5b601455565b600d5490565b600d5481565b612495613f0c565b156124d15760405162461bcd60e51b8152600401808060200182810382526026815260200180614b786026913960400191505060405180910390fd5b6124d9613f2b565b156125155760405162461bcd60e51b8152600401808060200182810382526026815260200180614b786026913960400191505060405180910390fd5b60025442101561256c576040805162461bcd60e51b815260206004820152601960248201527f54726561737572793a206e6f7420737461727465642079657400000000000000604482015290519081900360640190fd5b612574613880565b4210156125c8576040805162461bcd60e51b815260206004820152601860248201527f54726561737572793a206e6f74206f70656e6564207965740000000000000000604482015290519081900360640190fd5b6006546040805163570ca73560e01b8152905130926001600160a01b03169163570ca735916004808301926020929190829003018186803b15801561260c57600080fd5b505afa158015612620573d6000803e3d6000fd5b505050506040513d602081101561263657600080fd5b50516001600160a01b03161480156126c457506007546040805163570ca73560e01b8152905130926001600160a01b03169163570ca735916004808301926020929190829003018186803b15801561268d57600080fd5b505afa1580156126a1573d6000803e3d6000fd5b505050506040513d60208110156126b757600080fd5b50516001600160a01b0316145b801561274657506008546040805163570ca73560e01b8152905130926001600160a01b03169163570ca735916004808301926020929190829003018186803b15801561270f57600080fd5b505afa158015612723573d6000803e3d6000fd5b505050506040513d602081101561273957600080fd5b50516001600160a01b0316145b80156127c857506009546040805163570ca73560e01b8152905130926001600160a01b03169163570ca735916004808301926020929190829003018186803b15801561279157600080fd5b505afa1580156127a5573d6000803e3d6000fd5b505050506040513d60208110156127bb57600080fd5b50516001600160a01b0316145b612819576040805162461bcd60e51b815260206004820152601e60248201527f54726561737572793a206e656564206d6f7265207065726d697373696f6e0000604482015290519081900360640190fd5b612821613fe0565b612829613b9c565b601855600d546000906128449061283e613c1d565b90613e55565b9050601654600354101561287a57612875612870612710610d0560175485613d8e90919063ffffffff16565b614044565b612af9565b600c546018541115612af957600754604080517f18160ddd00000000000000000000000000000000000000000000000000000000815290516000926001600160a01b0316916318160ddd916004808301926020929190829003018186803b1580156128e457600080fd5b505afa1580156128f8573d6000803e3d6000fd5b505050506040513d602081101561290e57600080fd5b5051600b5460185491925060009161292591613e55565b9050600080600061293f655af3107a4000610d30886143eb565b90508084111561294d578093505b612968612710610d0560115488613d8e90919063ffffffff16565b600d541061298d57612986670de0b6b3a7640000610d058887613d8e565b91506129f9565b60006129a5670de0b6b3a7640000610d058988613d8e565b90506129c2612710610d0560125484613d8e90919063ffffffff16565b92506129ce8184613e55565b601e54909450156129f7576129f4612710610d05601e5487613d8e90919063ffffffff16565b93505b505b8115612a0857612a0882614044565b8215612af357600d54612a1b9084613eb2565b600d55600654604080517f40c10f190000000000000000000000000000000000000000000000000000000081523060048201526024810186905290516001600160a01b03909216916340c10f19916044808201926020929091908290030181600087803b158015612a8b57600080fd5b505af1158015612a9f573d6000803e3d6000fd5b505050506040513d6020811015612ab557600080fd5b5050604080514281526020810185905281517ff705142bf09f04297640495ddf7c59b7fd6f51894c5aea9602d631cf05f0efc2929181900390910190a15b50505050505b50600354612b08906001613eb2565b600355600c54612b16613b9c565b11612b3457612b2f612710610d05601354610d30613c1d565b612b37565b60005b600455436000908152602081815260408083203284529091528082208054600160ff1991821681179092553384529190922080549091169091179055565b600b5481565b6001546001600160a01b03163314612bc45760405162461bcd60e51b8152600401808060200182810382526024815260200180614b2a6024913960400191505060405180910390fd5b600954604080517fb3ab15fb0000000000000000000000000000000000000000000000000000000081526001600160a01b0384811660048301529151919092169163b3ab15fb91602480830192600092919082900301818387803b158015612c2b57600080fd5b505af1158015612c3f573d6000803e3d6000fd5b5050505050565b6009546001600160a01b031681565b600a54600654604080517f6808a1280000000000000000000000000000000000000000000000000000000081526001600160a01b039283166004820152670de0b6b3a7640000602482015290516000939290921691636808a12891604480820192602092909190829003018186803b158015612cd057600080fd5b505afa925050508015612cf557506040513d6020811015612cf057600080fd5b505160015b612d305760405162461bcd60e51b8152600401808060200182810382526037815260200180614af36037913960400191505060405180910390fd5b71ffffffffffffffffffffffffffffffffffff169050611944565b600a546001600160a01b031681565b60185481565b600080612d6b613b9c565b9050600c54811115610d6957600654604080517f70a0823100000000000000000000000000000000000000000000000000000000815230600482015290516000926001600160a01b0316916370a08231916024808301926020929190829003018186803b158015612ddb57600080fd5b505afa158015612def573d6000803e3d6000fd5b505050506040513d6020811015612e0557600080fd5b505190506000612e13610d6d565b90508015610d6657612e3181610d0584670de0b6b3a7640000613d8e565b935050505090565b6001546001600160a01b03163314612e825760405162461bcd60e51b8152600401808060200182810382526024815260200180614b2a6024913960400191505060405180910390fd5b600954604080517f2ffaaa09000000000000000000000000000000000000000000000000000000008152600481018590526024810184905290516001600160a01b0390921691632ffaaa099160448082019260009290919082900301818387803b158015612eef57600080fd5b505af1158015612f03573d6000803e3d6000fd5b505050505050565b60025481565b60115481565b60058181548110612f2457fe5b6000918252602090912001546001600160a01b0316905081565b60175481565b6001546001600160a01b03163314612f8d5760405162461bcd60e51b8152600401808060200182810382526024815260200180614b2a6024913960400191505060405180910390fd5b6101f48110158015612fa157506127108111155b612ff2576040805162461bcd60e51b815260206004820152600c60248201527f6f7574206f662072616e67650000000000000000000000000000000000000000604482015290519081900360640190fd5b601155565b601f546001600160a01b031681565b60035481565b6001546001600160a01b031633146130555760405162461bcd60e51b8152600401808060200182810382526024815260200180614b2a6024913960400191505060405180910390fd5b60788211156130ab576040805162461bcd60e51b815260206004820152601e60248201527f5f626f6f74737472617045706f6368733a206f7574206f662072616e67650000604482015290519081900360640190fd5b606481101580156130be57506103e88111155b6130f95760405162461bcd60e51b815260040180806020018281038252602e815260200180614c29602e913960400191505060405180910390fd5b601691909155601755565b6001546000906001600160a01b031633146131505760405162461bcd60e51b8152600401808060200182810382526024815260200180614b2a6024913960400191505060405180910390fd5b60098360ff16106131925760405162461bcd60e51b8152600401808060200182810382526029815260200180614aca6029913960400191505060405180910390fd5b60ff8316156131c457600e6001840360ff16815481106131ae57fe5b906000526020600020015482116131c457600080fd5b60088360ff1610156131f957600e8360010160ff16815481106131e357fe5b906000526020600020015482106131f957600080fd5b81600e8460ff168154811061320a57fe5b6000918252602090912001555060015b92915050565b6001546001600160a01b031633146132695760405162461bcd60e51b8152600401808060200182810382526024815260200180614b2a6024913960400191505060405180910390fd5b600954604080517f54575af40000000000000000000000000000000000000000000000000000000081526001600160a01b038681166004830152602482018690528481166044830152915191909216916354575af491606480830192600092919082900301818387803b1580156132df57600080fd5b505af11580156132f3573d6000803e3d6000fd5b50505050505050565b6001546001600160a01b031633146133455760405162461bcd60e51b8152600401808060200182810382526024815260200180614b2a6024913960400191505060405180910390fd5b601955565b600e818154811061335757fe5b600091825260209091200154905081565b600f818154811061335757fe5b6001546001600160a01b031633146133be5760405162461bcd60e51b8152600401808060200182810382526024815260200180614b2a6024913960400191505060405180910390fd5b601a55565b6006546001600160a01b031681565b6000806133dd613b9c565b9050600b548111610d695760006133f2613c1d565b90506000613411612710610d0560145485613d8e90919063ffffffff16565b90506000600760009054906101000a90046001600160a01b03166001600160a01b03166318160ddd6040518163ffffffff1660e01b815260040160206040518083038186803b15801561346357600080fd5b505afa158015613477573d6000803e3d6000fd5b505050506040513d602081101561348d57600080fd5b50519050808211156134d25760006134a58383613e55565b905060006134bf670de0b6b3a7640000610d058489613d8e565b90506134cd60045482613f4a565b965050505b5050505090565b6001546001600160a01b031633146135225760405162461bcd60e51b8152600401808060200182810382526024815260200180614b2a6024913960400191505060405180910390fd5b6001805473ffffffffffffffffffffffffffffffffffffffff19166001600160a01b0392909216919091179055565b6001546001600160a01b0316331461359a5760405162461bcd60e51b8152600401808060200182810382526024815260200180614b2a6024913960400191505060405180910390fd5b6009805473ffffffffffffffffffffffffffffffffffffffff19166001600160a01b0392909216919091179055565b600c5481565b61546081565b60195481565b6001546001600160a01b031633146136245760405162461bcd60e51b8152600401808060200182810382526024815260200180614b2a6024913960400191505060405180910390fd5b6001600160a01b038416613681576040805162461bcd60e51b8152602060048083019190915260248201527f7a65726f00000000000000000000000000000000000000000000000000000000604482015290519081900360640190fd5b610bb88311156136d8576040805162461bcd60e51b815260206004820152600c60248201527f6f7574206f662072616e67650000000000000000000000000000000000000000604482015290519081900360640190fd5b6001600160a01b038216613735576040805162461bcd60e51b8152602060048083019190915260248201527f7a65726f00000000000000000000000000000000000000000000000000000000604482015290519081900360640190fd5b6103e881111561378c576040805162461bcd60e51b815260206004820152600c60248201527f6f7574206f662072616e67650000000000000000000000000000000000000000604482015290519081900360640190fd5b601f805473ffffffffffffffffffffffffffffffffffffffff199081166001600160a01b03968716179091556020939093556021805490931691909316179055602255565b6001546001600160a01b0316331461381a5760405162461bcd60e51b8152600401808060200182810382526024815260200180614b2a6024913960400191505060405180910390fd5b600954604080517f97ffe1d70000000000000000000000000000000000000000000000000000000081526004810184905290516001600160a01b03909216916397ffe1d79160248082019260009290919082900301818387803b158015612c2b57600080fd5b60006138a561389c615460600354613d8e90919063ffffffff16565b60025490613eb2565b905090565b601d5481565b601c5481565b6001546001600160a01b031633146138ff5760405162461bcd60e51b8152600401808060200182810382526024815260200180614b2a6024913960400191505060405180910390fd5b6064811015801561391257506105dc8111155b613963576040805162461bcd60e51b815260206004820152600c60248201527f6f7574206f662072616e67650000000000000000000000000000000000000000604482015290519081900360640190fd5b601355565b6001546000906001600160a01b031633146139b45760405162461bcd60e51b8152600401808060200182810382526024815260200180614b2a6024913960400191505060405180910390fd5b60098360ff16106139f65760405162461bcd60e51b8152600401808060200182810382526029815260200180614aca6029913960400191505060405180910390fd5b600a8210158015613a0957506103e88211155b613a5a576040805162461bcd60e51b815260206004820152601460248201527f5f76616c75653a206f7574206f662072616e6765000000000000000000000000604482015290519081900360640190fd5b81600f8460ff168154811061320a57fe5b60105481565b60145481565b60135481565b6001546001600160a01b03163314613ac65760405162461bcd60e51b8152600401808060200182810382526024815260200180614b2a6024913960400191505060405180910390fd5b600b548110158015613af25750613aee6064610d056078600b54613d8e90919063ffffffff16565b8111155b613b43576040805162461bcd60e51b815260206004820152600c60248201527f6f7574206f662072616e67650000000000000000000000000000000000000000604482015290519081900360640190fd5b600c55565b60165481565b6001546001600160a01b03163314613b975760405162461bcd60e51b8152600401808060200182810382526024815260200180614b2a6024913960400191505060405180910390fd5b601555565b600a54600654604080517f3ddac9530000000000000000000000000000000000000000000000000000000081526001600160a01b039283166004820152670de0b6b3a7640000602482015290516000939290921691633ddac95391604480820192602092909190829003018186803b158015612cd057600080fd5b60045481565b600654604080517f18160ddd00000000000000000000000000000000000000000000000000000000815290516000926001600160a01b031691839183916318160ddd916004808301926020929190829003018186803b158015613c7f57600080fd5b505afa158015613c93573d6000803e3d6000fd5b505050506040513d6020811015613ca957600080fd5b505190506000805b60055460ff82161015613d8357613d79846001600160a01b03166370a0823160058460ff1681548110613ce057fe5b60009182526020918290200154604080517fffffffff0000000000000000000000000000000000000000000000000000000060e086901b1681526001600160a01b0390921660048301525160248083019392829003018186803b158015613d4657600080fd5b505afa158015613d5a573d6000803e3d6000fd5b505050506040513d6020811015613d7057600080fd5b50518390613eb2565b9150600101613cb1565b50612e318282613e55565b600082613d9d5750600061321a565b82820282848281613daa57fe5b0414613de75760405162461bcd60e51b81526004018080602001828103825260218152602001806149f56021913960400191505060405180910390fd5b9392505050565b6000808211613e44576040805162461bcd60e51b815260206004820152601a60248201527f536166654d6174683a206469766973696f6e206279207a65726f000000000000604482015290519081900360640190fd5b818381613e4d57fe5b049392505050565b600082821115613eac576040805162461bcd60e51b815260206004820152601e60248201527f536166654d6174683a207375627472616374696f6e206f766572666c6f770000604482015290519081900360640190fd5b50900390565b600082820183811015613de7576040805162461bcd60e51b815260206004820152601b60248201527f536166654d6174683a206164646974696f6e206f766572666c6f770000000000604482015290519081900360640190fd5b4360009081526020818152604080832032845290915290205460ff1690565b4360009081526020818152604080832033845290915290205460ff1690565b6000818310613f595781613de7565b5090919050565b604080516001600160a01b038416602482015260448082018490528251808303909101815260649091019091526020810180517bffffffffffffffffffffffffffffffffffffffffffffffffffffffff167fa9059cbb00000000000000000000000000000000000000000000000000000000179052611c35908490614466565b600a60009054906101000a90046001600160a01b03166001600160a01b031663a2e620456040518163ffffffff1660e01b8152600401600060405180830381600087803b15801561403057600080fd5b505af1925050508015614041575060015b50565b600654604080517f40c10f190000000000000000000000000000000000000000000000000000000081523060048201526024810184905290516001600160a01b03909216916340c10f19916044808201926020929091908290030181600087803b1580156140b157600080fd5b505af11580156140c5573d6000803e3d6000fd5b505050506040513d60208110156140db57600080fd5b5050602054600090156141df57614103612710610d0560205485613d8e90919063ffffffff16565b600654601f54604080517fa9059cbb0000000000000000000000000000000000000000000000000000000081526001600160a01b03928316600482015260248101859052905193945091169163a9059cbb916044808201926020929091908290030181600087803b15801561417757600080fd5b505af115801561418b573d6000803e3d6000fd5b505050506040513d60208110156141a157600080fd5b5050604080514281526020810183905281517fcb3f34aaa3445b461e6da5492dc89e5c257a59fa598131f3b6bbc97a3638e409929181900390910190a15b602254600090156142e157614205612710610d0560225486613d8e90919063ffffffff16565b600654602154604080517fa9059cbb0000000000000000000000000000000000000000000000000000000081526001600160a01b03928316600482015260248101859052905193945091169163a9059cbb916044808201926020929091908290030181600087803b15801561427957600080fd5b505af115801561428d573d6000803e3d6000fd5b505050506040513d60208110156142a357600080fd5b5050604080514281526020810183905281517fdc8b715b18523e58b7fd0da53259dfa91efd91df4a854d94b136e3333a3b9395929181900390910190a15b6142ef8161283e8585613e55565b600954600654919450614310916001600160a01b0390811691166000614517565b60095460065461432d916001600160a01b03918216911685614517565b600954604080517f97ffe1d70000000000000000000000000000000000000000000000000000000081526004810186905290516001600160a01b03909216916397ffe1d79160248082019260009290919082900301818387803b15801561439357600080fd5b505af11580156143a7573d6000803e3d6000fd5b5050604080514281526020810187905281517f03ca7276ab7799bf73fb79d27ff0610cd7049574f2508ef8445162833d439aea9450908190039091019150a1505050565b600060085b600e8160ff168154811061440057fe5b9060005260206000200154831061443557600f8160ff168154811061442157fe5b60009182526020909120015460105561445c565b7fffffffffffffffffffffffffffffffffffffffffffffffffffffffffffffffff016143f0565b5050601054919050565b60606144bb826040518060400160405280602081526020017f5361666545524332303a206c6f772d6c6576656c2063616c6c206661696c6564815250856001600160a01b03166146719092919063ffffffff16565b805190915015611c35578080602001905160208110156144da57600080fd5b5051611c355760405162461bcd60e51b815260040180806020018281038252602a815260200180614b4e602a913960400191505060405180910390fd5b8015806145b65750604080517fdd62ed3e0000000000000000000000000000000000000000000000000000000081523060048201526001600160a01b03848116602483015291519185169163dd62ed3e91604480820192602092909190829003018186803b15801561458857600080fd5b505afa15801561459c573d6000803e3d6000fd5b505050506040513d60208110156145b257600080fd5b5051155b6145f15760405162461bcd60e51b8152600401808060200182810382526036815260200180614b9e6036913960400191505060405180910390fd5b604080516001600160a01b038416602482015260448082018490528251808303909101815260649091019091526020810180517bffffffffffffffffffffffffffffffffffffffffffffffffffffffff167f095ea7b300000000000000000000000000000000000000000000000000000000179052611c35908490614466565b60606146808484600085614688565b949350505050565b6060824710156146c95760405162461bcd60e51b81526004018080602001828103825260268152602001806149aa6026913960400191505060405180910390fd5b6146d285614802565b614723576040805162461bcd60e51b815260206004820152601d60248201527f416464726573733a2063616c6c20746f206e6f6e2d636f6e7472616374000000604482015290519081900360640190fd5b60006060866001600160a01b031685876040518082805190602001908083835b6020831061478057805182527fffffffffffffffffffffffffffffffffffffffffffffffffffffffffffffffe09092019160209182019101614743565b6001836020036101000a03801982511681845116808217855250505050505090500191505060006040518083038185875af1925050503d80600081146147e2576040519150601f19603f3d011682016040523d82523d6000602084013e6147e7565b606091505b50915091506147f7828286614808565b979650505050505050565b3b151590565b60608315614817575081613de7565b8251156148275782518084602001fd5b8160405162461bcd60e51b81526004018080602001828103825283818151815260200191508051906020019080838360005b83811015614871578181015183820152602001614859565b50505050905090810190601f16801561489e5780820380516001836020036101000a031916815260200191505b509250505060405180910390fd5b8280548282559060005260206000209081019282156148f5579160200282015b828111156148f5578251829069ffffffffffffffffffff169055916020019190600101906148cc565b50610d69929150614942565b8280548282559060005260206000209081019282156148f5579160200282015b828111156148f5578251829061ffff16905591602001919060010190614921565b5b80821115610d69576000815560010161494356fe54726561737572793a2063616e6e6f742072656465656d20626f6e64732077697468207a65726f20616d6f756e745f7072656d69756d5468726573686f6c6420697320686967686572207468616e20312e35416464726573733a20696e73756666696369656e742062616c616e636520666f722063616c6c54726561737572793a20747265617375727920686173206e6f206d6f726520627564676574536166654d6174683a206d756c7469706c69636174696f6e206f766572666c6f7754726561737572793a2063616e6e6f7420707572636861736520626f6e64732077697468207a65726f20616d6f756e7454726561737572793a2067726176655072696365206e6f7420656c696769626c6520666f7220626f6e642070757263686173655f6d696e74696e67466163746f72466f72506179696e67446562743a206f7574206f662072616e67655f6d6178537570706c79457870616e73696f6e50657263656e743a206f7574206f662072616e6765496e6465782068617320746f206265206c6f776572207468616e20636f756e74206f6620746965727354726561737572793a206661696c656420746f20636f6e73756c742047524156452070726963652066726f6d20746865206f7261636c6554726561737572793a2063616c6c6572206973206e6f7420746865206f70657261746f725361666545524332303a204552433230206f7065726174696f6e20646964206e6f742073756363656564436f6e747261637447756172643a206f6e6520626c6f636b2c206f6e652066756e6374696f6e5361666545524332303a20617070726f76652066726f6d206e6f6e2d7a65726f20746f206e6f6e2d7a65726f20616c6c6f77616e63655f7072656d69756d5468726573686f6c64206578636565647320677261766550726963654365696c696e6754726561737572793a206e6f7420656e6f75676820626f6e64206c65667420746f2070757263686173655f626f6f747374726170537570706c79457870616e73696f6e50657263656e743a206f7574206f662072616e6765a2646970667358221220ecf0c0c4fb54a85e692e934edcd8769fbc7b630102fddc17e4c4cdb9550e937e64736f6c634300060c0033",
  "devdoc": {
    "kind": "dev",
    "methods": {},
    "version": 1
  },
  "userdoc": {
    "kind": "user",
    "methods": {},
    "version": 1
  },
  "storageLayout": {
    "storage": [
      {
        "astId": 10250,
        "contract": "contracts/Treasury.sol:Treasury",
        "label": "_status",
        "offset": 0,
        "slot": "0",
        "type": "t_mapping(t_uint256,t_mapping(t_address,t_bool))"
      },
      {
        "astId": 3881,
        "contract": "contracts/Treasury.sol:Treasury",
        "label": "operator",
        "offset": 0,
        "slot": "1",
        "type": "t_address"
      },
      {
        "astId": 3884,
        "contract": "contracts/Treasury.sol:Treasury",
        "label": "initialized",
        "offset": 20,
        "slot": "1",
        "type": "t_bool"
      },
      {
        "astId": 3886,
        "contract": "contracts/Treasury.sol:Treasury",
        "label": "startTime",
        "offset": 0,
        "slot": "2",
        "type": "t_uint256"
      },
      {
        "astId": 3889,
        "contract": "contracts/Treasury.sol:Treasury",
        "label": "epoch",
        "offset": 0,
        "slot": "3",
        "type": "t_uint256"
      },
      {
        "astId": 3892,
        "contract": "contracts/Treasury.sol:Treasury",
        "label": "epochSupplyContractionLeft",
        "offset": 0,
        "slot": "4",
        "type": "t_uint256"
      },
      {
        "astId": 3895,
        "contract": "contracts/Treasury.sol:Treasury",
        "label": "excludedFromTotalSupply",
        "offset": 0,
        "slot": "5",
        "type": "t_array(t_address)dyn_storage"
      },
      {
        "astId": 3897,
        "contract": "contracts/Treasury.sol:Treasury",
        "label": "grave",
        "offset": 0,
        "slot": "6",
        "type": "t_address"
      },
      {
        "astId": 3899,
        "contract": "contracts/Treasury.sol:Treasury",
        "label": "xbond",
        "offset": 0,
        "slot": "7",
        "type": "t_address"
      },
      {
        "astId": 3901,
        "contract": "contracts/Treasury.sol:Treasury",
        "label": "xshare",
        "offset": 0,
        "slot": "8",
        "type": "t_address"
      },
      {
        "astId": 3903,
        "contract": "contracts/Treasury.sol:Treasury",
        "label": "masonry",
        "offset": 0,
        "slot": "9",
        "type": "t_address"
      },
      {
        "astId": 3905,
        "contract": "contracts/Treasury.sol:Treasury",
        "label": "graveOracle",
        "offset": 0,
        "slot": "10",
        "type": "t_address"
      },
      {
        "astId": 3907,
        "contract": "contracts/Treasury.sol:Treasury",
        "label": "gravePriceOne",
        "offset": 0,
        "slot": "11",
        "type": "t_uint256"
      },
      {
        "astId": 3909,
        "contract": "contracts/Treasury.sol:Treasury",
        "label": "gravePriceCeiling",
        "offset": 0,
        "slot": "12",
        "type": "t_uint256"
      },
      {
        "astId": 3911,
        "contract": "contracts/Treasury.sol:Treasury",
        "label": "seigniorageSaved",
        "offset": 0,
        "slot": "13",
        "type": "t_uint256"
      },
      {
        "astId": 3914,
        "contract": "contracts/Treasury.sol:Treasury",
        "label": "supplyTiers",
        "offset": 0,
        "slot": "14",
        "type": "t_array(t_uint256)dyn_storage"
      },
      {
        "astId": 3917,
        "contract": "contracts/Treasury.sol:Treasury",
        "label": "maxExpansionTiers",
        "offset": 0,
        "slot": "15",
        "type": "t_array(t_uint256)dyn_storage"
      },
      {
        "astId": 3919,
        "contract": "contracts/Treasury.sol:Treasury",
        "label": "maxSupplyExpansionPercent",
        "offset": 0,
        "slot": "16",
        "type": "t_uint256"
      },
      {
        "astId": 3921,
        "contract": "contracts/Treasury.sol:Treasury",
        "label": "bondDepletionFloorPercent",
        "offset": 0,
        "slot": "17",
        "type": "t_uint256"
      },
      {
        "astId": 3923,
        "contract": "contracts/Treasury.sol:Treasury",
        "label": "seigniorageExpansionFloorPercent",
        "offset": 0,
        "slot": "18",
        "type": "t_uint256"
      },
      {
        "astId": 3925,
        "contract": "contracts/Treasury.sol:Treasury",
        "label": "maxSupplyContractionPercent",
        "offset": 0,
        "slot": "19",
        "type": "t_uint256"
      },
      {
        "astId": 3927,
        "contract": "contracts/Treasury.sol:Treasury",
        "label": "maxDebtRatioPercent",
        "offset": 0,
        "slot": "20",
        "type": "t_uint256"
      },
      {
        "astId": 3929,
        "contract": "contracts/Treasury.sol:Treasury",
        "label": "bondSupplyExpansionPercent",
        "offset": 0,
        "slot": "21",
        "type": "t_uint256"
      },
      {
        "astId": 3931,
        "contract": "contracts/Treasury.sol:Treasury",
        "label": "bootstrapEpochs",
        "offset": 0,
        "slot": "22",
        "type": "t_uint256"
      },
      {
        "astId": 3933,
        "contract": "contracts/Treasury.sol:Treasury",
        "label": "bootstrapSupplyExpansionPercent",
        "offset": 0,
        "slot": "23",
        "type": "t_uint256"
      },
      {
        "astId": 3935,
        "contract": "contracts/Treasury.sol:Treasury",
        "label": "previousEpochGravePrice",
        "offset": 0,
        "slot": "24",
        "type": "t_uint256"
      },
      {
        "astId": 3937,
        "contract": "contracts/Treasury.sol:Treasury",
        "label": "maxDiscountRate",
        "offset": 0,
        "slot": "25",
        "type": "t_uint256"
      },
      {
        "astId": 3939,
        "contract": "contracts/Treasury.sol:Treasury",
        "label": "maxPremiumRate",
        "offset": 0,
        "slot": "26",
        "type": "t_uint256"
      },
      {
        "astId": 3941,
        "contract": "contracts/Treasury.sol:Treasury",
        "label": "discountPercent",
        "offset": 0,
        "slot": "27",
        "type": "t_uint256"
      },
      {
        "astId": 3943,
        "contract": "contracts/Treasury.sol:Treasury",
        "label": "premiumThreshold",
        "offset": 0,
        "slot": "28",
        "type": "t_uint256"
      },
      {
        "astId": 3945,
        "contract": "contracts/Treasury.sol:Treasury",
        "label": "premiumPercent",
        "offset": 0,
        "slot": "29",
        "type": "t_uint256"
      },
      {
        "astId": 3947,
        "contract": "contracts/Treasury.sol:Treasury",
        "label": "mintingFactorForPayingDebt",
        "offset": 0,
        "slot": "30",
        "type": "t_uint256"
      },
      {
        "astId": 3949,
        "contract": "contracts/Treasury.sol:Treasury",
        "label": "daoFund",
        "offset": 0,
        "slot": "31",
        "type": "t_address"
      },
      {
        "astId": 3951,
        "contract": "contracts/Treasury.sol:Treasury",
        "label": "daoFundSharedPercent",
        "offset": 0,
        "slot": "32",
        "type": "t_uint256"
      },
      {
        "astId": 3953,
        "contract": "contracts/Treasury.sol:Treasury",
        "label": "devFund",
        "offset": 0,
        "slot": "33",
        "type": "t_address"
      },
      {
        "astId": 3955,
        "contract": "contracts/Treasury.sol:Treasury",
        "label": "devFundSharedPercent",
        "offset": 0,
        "slot": "34",
        "type": "t_uint256"
      }
    ],
    "types": {
      "t_address": {
        "encoding": "inplace",
        "label": "address",
        "numberOfBytes": "20"
      },
      "t_array(t_address)dyn_storage": {
        "base": "t_address",
        "encoding": "dynamic_array",
        "label": "address[]",
        "numberOfBytes": "32"
      },
      "t_array(t_uint256)dyn_storage": {
        "base": "t_uint256",
        "encoding": "dynamic_array",
        "label": "uint256[]",
        "numberOfBytes": "32"
      },
      "t_bool": {
        "encoding": "inplace",
        "label": "bool",
        "numberOfBytes": "1"
      },
      "t_mapping(t_address,t_bool)": {
        "encoding": "mapping",
        "key": "t_address",
        "label": "mapping(address => bool)",
        "numberOfBytes": "32",
        "value": "t_bool"
      },
      "t_mapping(t_uint256,t_mapping(t_address,t_bool))": {
        "encoding": "mapping",
        "key": "t_uint256",
        "label": "mapping(uint256 => mapping(address => bool))",
        "numberOfBytes": "32",
        "value": "t_mapping(t_address,t_bool)"
      },
      "t_uint256": {
        "encoding": "inplace",
        "label": "uint256",
        "numberOfBytes": "32"
      }
    }
  }
}