{
  "address": "0x20f4801EEbE41c6211fBd137383666600f1832BF",
  "abi": [
    {
      "inputs": [
        {
          "internalType": "address",
          "name": "_xshare",
          "type": "address"
        },
        {
          "internalType": "address",
          "name": "_daoFund",
          "type": "address"
        },
        {
          "internalType": "uint256",
          "name": "_poolStartTime",
          "type": "uint256"
        }
      ],
      "stateMutability": "nonpayable",
      "type": "constructor"
    },
    {
      "anonymous": false,
      "inputs": [
        {
          "indexed": true,
          "internalType": "address",
          "name": "user",
          "type": "address"
        },
        {
          "indexed": true,
          "internalType": "uint256",
          "name": "pid",
          "type": "uint256"
        },
        {
          "indexed": false,
          "internalType": "uint256",
          "name": "amount",
          "type": "uint256"
        }
      ],
      "name": "Deposit",
      "type": "event"
    },
    {
      "anonymous": false,
      "inputs": [
        {
          "indexed": true,
          "internalType": "address",
          "name": "user",
          "type": "address"
        },
        {
          "indexed": true,
          "internalType": "uint256",
          "name": "pid",
          "type": "uint256"
        },
        {
          "indexed": false,
          "internalType": "uint256",
          "name": "amount",
          "type": "uint256"
        }
      ],
      "name": "EmergencyWithdraw",
      "type": "event"
    },
    {
      "anonymous": false,
      "inputs": [
        {
          "indexed": true,
          "internalType": "address",
          "name": "user",
          "type": "address"
        },
        {
          "indexed": false,
          "internalType": "uint256",
          "name": "amount",
          "type": "uint256"
        }
      ],
      "name": "RewardPaid",
      "type": "event"
    },
    {
      "anonymous": false,
      "inputs": [
        {
          "indexed": true,
          "internalType": "address",
          "name": "user",
          "type": "address"
        },
        {
          "indexed": true,
          "internalType": "uint256",
          "name": "pid",
          "type": "uint256"
        },
        {
          "indexed": false,
          "internalType": "uint256",
          "name": "amount",
          "type": "uint256"
        }
      ],
      "name": "Withdraw",
      "type": "event"
    },
    {
      "inputs": [],
      "name": "TOTAL_REWARDS",
      "outputs": [
        {
          "internalType": "uint256",
          "name": "",
          "type": "uint256"
        }
      ],
      "stateMutability": "view",
      "type": "function"
    },
    {
      "inputs": [
        {
          "internalType": "uint256",
          "name": "_allocPoint",
          "type": "uint256"
        },
        {
          "internalType": "contract IERC20",
          "name": "_token",
          "type": "address"
        },
        {
          "internalType": "bool",
          "name": "_withUpdate",
          "type": "bool"
        },
        {
          "internalType": "uint256",
          "name": "_lastRewardTime",
          "type": "uint256"
        }
      ],
      "name": "add",
      "outputs": [],
      "stateMutability": "nonpayable",
      "type": "function"
    },
    {
      "inputs": [],
      "name": "daoFund",
      "outputs": [
        {
          "internalType": "address",
          "name": "",
          "type": "address"
        }
      ],
      "stateMutability": "view",
      "type": "function"
    },
    {
      "inputs": [
        {
          "internalType": "uint256",
          "name": "_pid",
          "type": "uint256"
        },
        {
          "internalType": "uint256",
          "name": "_amount",
          "type": "uint256"
        }
      ],
      "name": "deposit",
      "outputs": [],
      "stateMutability": "nonpayable",
      "type": "function"
    },
    {
      "inputs": [
        {
          "internalType": "uint256",
          "name": "_pid",
          "type": "uint256"
        }
      ],
      "name": "emergencyWithdraw",
      "outputs": [],
      "stateMutability": "nonpayable",
      "type": "function"
    },
    {
      "inputs": [
        {
          "internalType": "uint256",
          "name": "_fromTime",
          "type": "uint256"
        },
        {
          "internalType": "uint256",
          "name": "_toTime",
          "type": "uint256"
        }
      ],
      "name": "getGeneratedReward",
      "outputs": [
        {
          "internalType": "uint256",
          "name": "",
          "type": "uint256"
        }
      ],
      "stateMutability": "view",
      "type": "function"
    },
    {
      "inputs": [],
      "name": "getWithdrawFeePercent",
      "outputs": [
        {
          "internalType": "uint256",
          "name": "",
          "type": "uint256"
        }
      ],
      "stateMutability": "view",
      "type": "function"
    },
    {
      "inputs": [
        {
          "internalType": "contract IERC20",
          "name": "_token",
          "type": "address"
        },
        {
          "internalType": "uint256",
          "name": "amount",
          "type": "uint256"
        },
        {
          "internalType": "address",
          "name": "to",
          "type": "address"
        }
      ],
      "name": "governanceRecoverUnsupported",
      "outputs": [],
      "stateMutability": "nonpayable",
      "type": "function"
    },
    {
      "inputs": [],
      "name": "massUpdatePools",
      "outputs": [],
      "stateMutability": "nonpayable",
      "type": "function"
    },
    {
      "inputs": [],
      "name": "operator",
      "outputs": [
        {
          "internalType": "address",
          "name": "",
          "type": "address"
        }
      ],
      "stateMutability": "view",
      "type": "function"
    },
    {
      "inputs": [
        {
          "internalType": "uint256",
          "name": "_pid",
          "type": "uint256"
        },
        {
          "internalType": "address",
          "name": "_user",
          "type": "address"
        }
      ],
      "name": "pendingShare",
      "outputs": [
        {
          "internalType": "uint256",
          "name": "",
          "type": "uint256"
        }
      ],
      "stateMutability": "view",
      "type": "function"
    },
    {
      "inputs": [],
      "name": "poolEndTime",
      "outputs": [
        {
          "internalType": "uint256",
          "name": "",
          "type": "uint256"
        }
      ],
      "stateMutability": "view",
      "type": "function"
    },
    {
      "inputs": [
        {
          "internalType": "uint256",
          "name": "",
          "type": "uint256"
        }
      ],
      "name": "poolInfo",
      "outputs": [
        {
          "internalType": "contract IERC20",
          "name": "token",
          "type": "address"
        },
        {
          "internalType": "uint256",
          "name": "allocPoint",
          "type": "uint256"
        },
        {
          "internalType": "uint256",
          "name": "lastRewardTime",
          "type": "uint256"
        },
        {
          "internalType": "uint256",
          "name": "accXSharePerShare",
          "type": "uint256"
        },
        {
          "internalType": "bool",
          "name": "isStarted",
          "type": "bool"
        }
      ],
      "stateMutability": "view",
      "type": "function"
    },
    {
      "inputs": [],
      "name": "poolStartTime",
      "outputs": [
        {
          "internalType": "uint256",
          "name": "",
          "type": "uint256"
        }
      ],
      "stateMutability": "view",
      "type": "function"
    },
    {
      "inputs": [],
      "name": "runningTime",
      "outputs": [
        {
          "internalType": "uint256",
          "name": "",
          "type": "uint256"
        }
      ],
      "stateMutability": "view",
      "type": "function"
    },
    {
      "inputs": [
        {
          "internalType": "uint256",
          "name": "_pid",
          "type": "uint256"
        },
        {
          "internalType": "uint256",
          "name": "_allocPoint",
          "type": "uint256"
        }
      ],
      "name": "set",
      "outputs": [],
      "stateMutability": "nonpayable",
      "type": "function"
    },
    {
      "inputs": [
        {
          "internalType": "address",
          "name": "_daoFund",
          "type": "address"
        }
      ],
      "name": "setDaoFund",
      "outputs": [],
      "stateMutability": "nonpayable",
      "type": "function"
    },
    {
      "inputs": [
        {
          "internalType": "address",
          "name": "_operator",
          "type": "address"
        }
      ],
      "name": "setOperator",
      "outputs": [],
      "stateMutability": "nonpayable",
      "type": "function"
    },
    {
      "inputs": [
        {
          "internalType": "uint8",
          "name": "_index",
          "type": "uint8"
        },
        {
          "internalType": "uint256",
          "name": "_value",
          "type": "uint256"
        }
      ],
      "name": "setStakingTiersEntry",
      "outputs": [],
      "stateMutability": "nonpayable",
      "type": "function"
    },
    {
      "inputs": [
        {
          "internalType": "uint8",
          "name": "_index",
          "type": "uint8"
        },
        {
          "internalType": "uint256",
          "name": "_value",
          "type": "uint256"
        }
      ],
      "name": "setTaxTiersEntry",
      "outputs": [],
      "stateMutability": "nonpayable",
      "type": "function"
    },
    {
      "inputs": [
        {
          "internalType": "bool",
          "name": "_enableTaxes",
          "type": "bool"
        }
      ],
      "name": "setTaxesStatus",
      "outputs": [],
      "stateMutability": "nonpayable",
      "type": "function"
    },
    {
      "inputs": [
        {
          "internalType": "uint256",
          "name": "",
          "type": "uint256"
        }
      ],
      "name": "stakingTires",
      "outputs": [
        {
          "internalType": "uint256",
          "name": "",
          "type": "uint256"
        }
      ],
      "stateMutability": "view",
      "type": "function"
    },
    {
      "inputs": [],
      "name": "totalAllocPoint",
      "outputs": [
        {
          "internalType": "uint256",
          "name": "",
          "type": "uint256"
        }
      ],
      "stateMutability": "view",
      "type": "function"
    },
    {
      "inputs": [
        {
          "internalType": "uint256",
          "name": "_pid",
          "type": "uint256"
        }
      ],
      "name": "updatePool",
      "outputs": [],
      "stateMutability": "nonpayable",
      "type": "function"
    },
    {
      "inputs": [
        {
          "internalType": "uint256",
          "name": "",
          "type": "uint256"
        },
        {
          "internalType": "address",
          "name": "",
          "type": "address"
        }
      ],
      "name": "userInfo",
      "outputs": [
        {
          "internalType": "uint256",
          "name": "amount",
          "type": "uint256"
        },
        {
          "internalType": "uint256",
          "name": "rewardDebt",
          "type": "uint256"
        }
      ],
      "stateMutability": "view",
      "type": "function"
    },
    {
      "inputs": [
        {
          "internalType": "uint256",
          "name": "_pid",
          "type": "uint256"
        },
        {
          "internalType": "uint256",
          "name": "_amount",
          "type": "uint256"
        }
      ],
      "name": "withdraw",
      "outputs": [],
      "stateMutability": "nonpayable",
      "type": "function"
    },
    {
      "inputs": [
        {
          "internalType": "uint256",
          "name": "",
          "type": "uint256"
        }
      ],
      "name": "withdrawTaxTires",
      "outputs": [
        {
          "internalType": "uint256",
          "name": "",
          "type": "uint256"
        }
      ],
      "stateMutability": "view",
      "type": "function"
    },
    {
      "inputs": [],
      "name": "xSharePerSecond",
      "outputs": [
        {
          "internalType": "uint256",
          "name": "",
          "type": "uint256"
        }
      ],
      "stateMutability": "view",
      "type": "function"
    },
    {
      "inputs": [],
      "name": "xshare",
      "outputs": [
        {
          "internalType": "contract IERC20",
          "name": "",
          "type": "address"
        }
      ],
      "stateMutability": "view",
      "type": "function"
    }
  ],
  "transactionHash": "0xa37804df674b2192696a6884b099484944994d2d0b3b9d24985b8d718bf821ef",
  "args": [
    "0x93a069E3368ADB428A9AB1AE125667B9780F388c",
    "0x931FE2B7a6bED657D2222f8479F9E94A31E11C41",
    1660744800
  ],
  "numDeployments": 1,
  "solcInputHash": "a017526cec7c66408be286db1d263c72",
  "bytecode": "0x6000600590815566048e74491054006008556301e7cb00600955600a805460ff1916600117905561012060405262093a8060809081526212750060a052621baf8060c0526224ea0060e052622e2480610100526200006191600b9190620001d3565b506040805160a0810182526101f48152610190602082015261012c9181019190915260c8606082015260646080820152620000a190600c9060056200022a565b50348015620000af57600080fd5b506040516200208c3803806200208c83398181016040526060811015620000d557600080fd5b508051602082015160409092015190919042811162000124576040805162461bcd60e51b815260206004808301919091526024820152636c61746560e01b604482015290519081900360640190fd5b6001600160a01b038316156200015057600280546001600160a01b0319166001600160a01b0385161790555b6001600160a01b03821662000197576040805162461bcd60e51b815260206004820152600860248201526717d9185bd19d5b9960c21b604482015290519081900360640190fd5b600180546001600160a01b039093166001600160a01b031993841617905560068190556009540160075560008054909116331790555062000285565b82805482825590600052602060002090810192821562000218579160200282015b8281111562000218578251829062ffffff16905591602001919060010190620001f4565b50620002269291506200026e565b5090565b82805482825590600052602060002090810192821562000218579160200282015b8281111562000218578251829061ffff169055916020019190600101906200024b565b5b808211156200022657600081556001016200026f565b611df780620002956000396000f3fe608060405234801561001057600080fd5b50600436106101cf5760003560e01c806354575af4116101045780638d934f74116100a2578063b334988011610071578063b3349880146104cb578063b3ab15fb146104d3578063cf4b55cb146104f9578063e2bbb15814610525576101cf565b80638d934f741461043c57806393f1a40b14610444578063943f013d1461048957806396805e5414610491576101cf565b8063630b5ba1116100de578063630b5ba1146104055780636e271dd51461040d5780637628eb5e146104155780637a42481a1461041d576101cf565b806354575af4146103bf578063570ca735146103f55780635f96dc11146103fd576101cf565b80631c6e253f11610171578063441a3e701161014b578063441a3e701461033c578063497b21db1461035f57806351eb05a6146103855780635312ea8e146103a2576101cf565b80631c6e253f146102d6578063231f0c6a146102f35780632c559d2714610316576101cf565b806309cf6091116101ad57806309cf60911461024f5780631526fe271461025757806317caf6f1146102ab5780631ab06ee5146102b3576101cf565b806304567280146101d4578063070889b21461020357806307e36ee31461022b575b600080fd5b6101f1600480360360208110156101ea57600080fd5b5035610548565b60408051918252519081900360200190f35b6102296004803603604081101561021957600080fd5b5060ff8135169060200135610566565b005b610233610677565b604080516001600160a01b039092168252519081900360200190f35b6101f1610686565b6102746004803603602081101561026d57600080fd5b5035610694565b604080516001600160a01b039096168652602086019490945284840192909252606084015215156080830152519081900360a00190f35b6101f16106df565b610229600480360360408110156102c957600080fd5b50803590602001356106e5565b6101f1600480360360208110156102ec57600080fd5b5035610793565b6101f16004803603604081101561030957600080fd5b50803590602001356107a0565b6102296004803603602081101561032c57600080fd5b50356001600160a01b0316610865565b6102296004803603604081101561035257600080fd5b50803590602001356108dd565b6102296004803603604081101561037557600080fd5b5060ff8135169060200135610b1b565b6102296004803603602081101561039b57600080fd5b5035610c24565b610229600480360360208110156103b857600080fd5b5035610d82565b610229600480360360608110156103d557600080fd5b506001600160a01b03813581169160208101359160409091013516610e4a565b610233610fbc565b6101f1610fcb565b610229610fd1565b6101f1610ff4565b6101f1610ffa565b6102296004803603602081101561043357600080fd5b50351515611000565b61023361105c565b6104706004803603604081101561045a57600080fd5b50803590602001356001600160a01b031661106b565b6040805192835260208301919091528051918290030190f35b6101f161108f565b610229600480360360808110156104a757600080fd5b508035906001600160a01b0360208201351690604081013515159060600135611095565b6101f161129f565b610229600480360360208110156104e957600080fd5b50356001600160a01b0316611313565b6101f16004803603604081101561050f57600080fd5b50803590602001356001600160a01b031661138b565b6102296004803603604081101561053b57600080fd5b50803590602001356114ec565b600b818154811061055557fe5b600091825260209091200154905081565b6000546001600160a01b031633146105af5760405162461bcd60e51b815260040180806020018281038252602c815260200180611d6c602c913960400191505060405180910390fd5b600c5460ff8316106105f25760405162461bcd60e51b8152600401808060200182810382526029815260200180611d436029913960400191505060405180910390fd5b600a811015801561060557506107d08111155b610656576040805162461bcd60e51b815260206004820152601460248201527f5f76616c75653a206f7574206f662072616e6765000000000000000000000000604482015290519081900360640190fd5b80600c8360ff168154811061066757fe5b6000918252602090912001555050565b6002546001600160a01b031681565b6908ae9d4cd4b0a7a0000081565b600381815481106106a157fe5b6000918252602090912060059091020180546001820154600283015460038401546004909401546001600160a01b0390931694509092909160ff1685565b60055481565b6000546001600160a01b0316331461072e5760405162461bcd60e51b815260040180806020018281038252602c815260200180611d6c602c913960400191505060405180910390fd5b610736610fd1565b60006003838154811061074557fe5b60009182526020909120600590910201600481015490915060ff161561078c5761078882610782836001015460055461165c90919063ffffffff16565b906116b9565b6005555b6001015550565b600c818154811061055557fe5b60008183106107b15750600061085f565b60075482106108195760075483106107cb5750600061085f565b60065483116107fe576107f76008546107f160065460075461165c90919063ffffffff16565b9061171a565b905061085f565b6107f76008546107f18560075461165c90919063ffffffff16565b600654821161082a5750600061085f565b600654831161084e576107f76008546107f16006548561165c90919063ffffffff16565b6008546107f7906107f1848661165c565b92915050565b6000546001600160a01b031633146108ae5760405162461bcd60e51b815260040180806020018281038252602c815260200180611d6c602c913960400191505060405180910390fd5b6001805473ffffffffffffffffffffffffffffffffffffffff19166001600160a01b0392909216919091179055565b60003390506000600384815481106108f157fe5b600091825260208083208784526004825260408085206001600160a01b03881686529092529220805460059092029092019250841115610978576040805162461bcd60e51b815260206004820152601260248201527f77697468647261773a206e6f7420676f6f640000000000000000000000000000604482015290519081900360640190fd5b61098185610c24565b60006109be82600101546109b8670de0b6b3a76400006109b28760030154876000015461171a90919063ffffffff16565b90611773565b9061165c565b90508015610a10576109d084826117da565b6040805182815290516001600160a01b038616917fe2403640ba68fed3a2f88b7557551d1993f84b99bb10ff833f0cf8db0c5e0486919081900360200190a25b8415610ab0578154610a22908661165c565b82556000610a3e6127106109b2610a3761129f565b899061171a565b600a5490915060ff168015610a5257508015155b15610a98576001548454610a73916001600160a01b03918216911683611890565b610a9385610a81888461165c565b86546001600160a01b03169190611890565b610aae565b8354610aae906001600160a01b03168688611890565b505b60038301548254610ace91670de0b6b3a7640000916109b29161171a565b600183015560408051868152905187916001600160a01b038716917ff279e6a1f5e320cca91135676d9cb6e44ca8a08c0b88342bcdb1144f6511b5689181900360200190a3505050505050565b6000546001600160a01b03163314610b645760405162461bcd60e51b815260040180806020018281038252602c815260200180611d6c602c913960400191505060405180910390fd5b600b5460ff831610610ba75760405162461bcd60e51b8152600401808060200182810382526029815260200180611d436029913960400191505060405180910390fd5b60ff821615610bd957600b6001830360ff1681548110610bc357fe5b90600052602060002001548110610bd957600080fd5b600b546000190160ff83161015610c1357600b8260010160ff1681548110610bfd57fe5b90600052602060002001548111610c1357600080fd5b80600b8360ff168154811061066757fe5b600060038281548110610c3357fe5b9060005260206000209060050201905080600201544211610c545750610d7f565b8054604080516370a0823160e01b815230600482015290516000926001600160a01b0316916370a08231916024808301926020929190829003018186803b158015610c9e57600080fd5b505afa158015610cb2573d6000803e3d6000fd5b505050506040513d6020811015610cc857600080fd5b5051905080610cde575042600290910155610d7f565b600482015460ff16610d0f5760048201805460ff19166001908117909155820154600554610d0b916116b9565b6005555b60055415610d76576000610d278360020154426107a0565b90506000610d486005546109b286600101548561171a90919063ffffffff16565b9050610d6e610d63846109b284670de0b6b3a764000061171a565b6003860154906116b9565b600385015550505b50426002909101555b50565b600060038281548110610d9157fe5b600091825260208083208584526004825260408085203386529092529083208054848255600182018590556005909302909101935091610ddf6127106109b2610dd861129f565b859061171a565b6001548554919250610dfe916001600160a01b03908116911683611890565b610e0c33610a81848461165c565b604080518381529051869133917fbb757047c2b5f3974fe26b7c10f732e7bce710b0952a71082702781e62ae05959181900360200190a35050505050565b6000546001600160a01b03163314610e935760405162461bcd60e51b815260040180806020018281038252602c815260200180611d6c602c913960400191505060405180910390fd5b6007546276a70001421015610fa3576002546001600160a01b0384811691161415610f05576040805162461bcd60e51b815260206004820152600660248201527f7873686172650000000000000000000000000000000000000000000000000000604482015290519081900360640190fd5b60035460005b81811015610fa057600060038281548110610f2257fe5b6000918252602090912060059091020180549091506001600160a01b0387811691161415610f97576040805162461bcd60e51b815260206004820152600a60248201527f706f6f6c2e746f6b656e00000000000000000000000000000000000000000000604482015290519081900360640190fd5b50600101610f0b565b50505b610fb76001600160a01b0384168284611890565b505050565b6000546001600160a01b031681565b60065481565b60035460005b81811015610ff057610fe881610c24565b600101610fd7565b5050565b60075481565b60085481565b6000546001600160a01b031633146110495760405162461bcd60e51b815260040180806020018281038252602c815260200180611d6c602c913960400191505060405180910390fd5b600a805460ff1916911515919091179055565b6001546001600160a01b031681565b60046020908152600092835260408084209091529082529020805460019091015482565b60095481565b6000546001600160a01b031633146110de5760405162461bcd60e51b815260040180806020018281038252602c815260200180611d6c602c913960400191505060405180910390fd5b6110e783611910565b81156110f5576110f5610fd1565b600654421015611121578061110d575060065461111c565b60065481101561111c57506006545b611135565b80158061112d57504281105b156111355750425b6000600654821115806111485750428211155b6040805160a0810182526001600160a01b03878116825260208201898152928201868152600060608401818152861580156080870190815260038054600181018255945295517fc2575a0e9e593c00f959f8c92f12db2869c3395a3b0502d05e2516446f71f85b6005909402938401805473ffffffffffffffffffffffffffffffffffffffff1916919096161790945594517fc2575a0e9e593c00f959f8c92f12db2869c3395a3b0502d05e2516446f71f85c82015590517fc2575a0e9e593c00f959f8c92f12db2869c3395a3b0502d05e2516446f71f85d82015592517fc2575a0e9e593c00f959f8c92f12db2869c3395a3b0502d05e2516446f71f85e84015590517fc2575a0e9e593c00f959f8c92f12db2869c3395a3b0502d05e2516446f71f85f909201805460ff1916921515929092179091559091506112985760055461129490866116b9565b6005555b5050505050565b60004260065411156112b357506000611310565b60065442036000805b600b5481101561130b57600b81815481106112d357fe5b9060005260206000200154831161130357600c81815481106112f157fe5b9060005260206000200154915061130b565b6001016112bc565b509150505b90565b6000546001600160a01b0316331461135c5760405162461bcd60e51b815260040180806020018281038252602c815260200180611d6c602c913960400191505060405180910390fd5b6000805473ffffffffffffffffffffffffffffffffffffffff19166001600160a01b0392909216919091179055565b6000806003848154811061139b57fe5b60009182526020808320878452600480835260408086206001600160a01b038a811688529085528187206005969096029093016003810154815483516370a0823160e01b81523095810195909552925191985095969491909316926370a08231926024808201939291829003018186803b15801561141857600080fd5b505afa15801561142c573d6000803e3d6000fd5b505050506040513d602081101561144257600080fd5b505160028501549091504211801561145957508015155b156114b657600061146e8560020154426107a0565b9050600061148f6005546109b288600101548561171a90919063ffffffff16565b90506114b16114aa846109b284670de0b6b3a764000061171a565b85906116b9565b935050505b6114e183600101546109b8670de0b6b3a76400006109b286886000015461171a90919063ffffffff16565b979650505050505050565b600033905060006003848154811061150057fe5b600091825260208083208784526004825260408085206001600160a01b038816865290925292206005909102909101915061153a85610c24565b8054156115c657600061157282600101546109b8670de0b6b3a76400006109b28760030154876000015461171a90919063ffffffff16565b905080156115c45761158484826117da565b6040805182815290516001600160a01b038616917fe2403640ba68fed3a2f88b7557551d1993f84b99bb10ff833f0cf8db0c5e0486919081900360200190a25b505b83156115f25781546115e3906001600160a01b03168430876119aa565b80546115ef90856116b9565b81555b6003820154815461161091670de0b6b3a7640000916109b29161171a565b600182015560408051858152905186916001600160a01b038616917f90890809c654f11d6e72a28fa60149770a0d11ec6c92319d6ceb2bb0a4ea1a159181900360200190a35050505050565b6000828211156116b3576040805162461bcd60e51b815260206004820152601e60248201527f536166654d6174683a207375627472616374696f6e206f766572666c6f770000604482015290519081900360640190fd5b50900390565b600082820183811015611713576040805162461bcd60e51b815260206004820152601b60248201527f536166654d6174683a206164646974696f6e206f766572666c6f770000000000604482015290519081900360640190fd5b9392505050565b6000826117295750600061085f565b8282028284828161173657fe5b04146117135760405162461bcd60e51b8152600401808060200182810382526021815260200180611d226021913960400191505060405180910390fd5b60008082116117c9576040805162461bcd60e51b815260206004820152601a60248201527f536166654d6174683a206469766973696f6e206279207a65726f000000000000604482015290519081900360640190fd5b8183816117d257fe5b049392505050565b600254604080516370a0823160e01b815230600482015290516000926001600160a01b0316916370a08231916024808301926020929190829003018186803b15801561182557600080fd5b505afa158015611839573d6000803e3d6000fd5b505050506040513d602081101561184f57600080fd5b505190508015610fb7578082111561187d57600254611878906001600160a01b03168483611890565b610fb7565b600254610fb7906001600160a01b031684845b604080516001600160a01b038416602482015260448082018490528251808303909101815260649091019091526020810180517bffffffffffffffffffffffffffffffffffffffffffffffffffffffff167fa9059cbb00000000000000000000000000000000000000000000000000000000179052610fb7908490611a38565b60035460005b81811015610fb757826001600160a01b03166003828154811061193557fe5b60009182526020909120600590910201546001600160a01b031614156119a2576040805162461bcd60e51b815260206004820181905260248201527f585368617265526577617264506f6f6c3a206578697374696e6720706f6f6c3f604482015290519081900360640190fd5b600101611916565b604080516001600160a01b0380861660248301528416604482015260648082018490528251808303909101815260849091019091526020810180517bffffffffffffffffffffffffffffffffffffffffffffffffffffffff167f23b872dd00000000000000000000000000000000000000000000000000000000179052611a32908590611a38565b50505050565b6060611a8d826040518060400160405280602081526020017f5361666545524332303a206c6f772d6c6576656c2063616c6c206661696c6564815250856001600160a01b0316611ae99092919063ffffffff16565b805190915015610fb757808060200190516020811015611aac57600080fd5b5051610fb75760405162461bcd60e51b815260040180806020018281038252602a815260200180611d98602a913960400191505060405180910390fd5b6060611af88484600085611b00565b949350505050565b606082471015611b415760405162461bcd60e51b8152600401808060200182810382526026815260200180611cfc6026913960400191505060405180910390fd5b611b4a85611c51565b611b9b576040805162461bcd60e51b815260206004820152601d60248201527f416464726573733a2063616c6c20746f206e6f6e2d636f6e7472616374000000604482015290519081900360640190fd5b60006060866001600160a01b031685876040518082805190602001908083835b60208310611bda5780518252601f199092019160209182019101611bbb565b6001836020036101000a03801982511681845116808217855250505050505090500191505060006040518083038185875af1925050503d8060008114611c3c576040519150601f19603f3d011682016040523d82523d6000602084013e611c41565b606091505b50915091506114e1828286611c57565b3b151590565b60608315611c66575081611713565b825115611c765782518084602001fd5b8160405162461bcd60e51b81526004018080602001828103825283818151815260200191508051906020019080838360005b83811015611cc0578181015183820152602001611ca8565b50505050905090810190601f168015611ced5780820380516001836020036101000a031916815260200191505b509250505060405180910390fdfe416464726573733a20696e73756666696369656e742062616c616e636520666f722063616c6c536166654d6174683a206d756c7469706c69636174696f6e206f766572666c6f77496e6465782068617320746f206265206c6f776572207468616e20636f756e74206f66207469657273585368617265526577617264506f6f6c3a2063616c6c6572206973206e6f7420746865206f70657261746f725361666545524332303a204552433230206f7065726174696f6e20646964206e6f742073756363656564a2646970667358221220db3ebdd25f2e88e3679dbe89aa0b4e4bea9fa0c80f54f325d1f9f3b12276107e64736f6c634300060c0033"
}