{
  "_format": "hh-sol-artifact-1",
  "contractName": "LBond",
  "sourceName": "contracts/LBond.sol",
  "abi": [
    {
      "inputs": [],
      "stateMutability": "nonpayable",
      "type": "constructor"
    },
    {
      "anonymous": false,
      "inputs": [
        {
          "indexed": true,
          "internalType": "address",
          "name": "owner",
          "type": "address"
        },
        {
          "indexed": true,
          "internalType": "address",
          "name": "spender",
          "type": "address"
        },
        {
          "indexed": false,
          "internalType": "uint256",
          "name": "value",
          "type": "uint256"
        }
      ],
      "name": "Approval",
      "type": "event"
    },
    {
      "anonymous": false,
      "inputs": [
        {
          "indexed": true,
          "internalType": "address",
          "name": "previousOperator",
          "type": "address"
        },
        {
          "indexed": true,
          "internalType": "address",
          "name": "newOperator",
          "type": "address"
        }
      ],
      "name": "OperatorTransferred",
      "type": "event"
    },
    {
      "anonymous": false,
      "inputs": [
        {
          "indexed": true,
          "internalType": "address",
          "name": "previousOwner",
          "type": "address"
        },
        {
          "indexed": true,
          "internalType": "address",
          "name": "newOwner",
          "type": "address"
        }
      ],
      "name": "OwnershipTransferred",
      "type": "event"
    },
    {
      "anonymous": false,
      "inputs": [
        {
          "indexed": true,
          "internalType": "address",
          "name": "from",
          "type": "address"
        },
        {
          "indexed": true,
          "internalType": "address",
          "name": "to",
          "type": "address"
        },
        {
          "indexed": false,
          "internalType": "uint256",
          "name": "value",
          "type": "uint256"
        }
      ],
      "name": "Transfer",
      "type": "event"
    },
    {
      "inputs": [
        {
          "internalType": "address",
          "name": "owner",
          "type": "address"
        },
        {
          "internalType": "address",
          "name": "spender",
          "type": "address"
        }
      ],
      "name": "allowance",
      "outputs": [
        {
          "internalType": "uint256",
          "name": "",
          "type": "uint256"
        }
      ],
      "stateMutability": "view",
      "type": "function"
    },
    {
      "inputs": [
        {
          "internalType": "address",
          "name": "spender",
          "type": "address"
        },
        {
          "internalType": "uint256",
          "name": "amount",
          "type": "uint256"
        }
      ],
      "name": "approve",
      "outputs": [
        {
          "internalType": "bool",
          "name": "",
          "type": "bool"
        }
      ],
      "stateMutability": "nonpayable",
      "type": "function"
    },
    {
      "inputs": [
        {
          "internalType": "address",
          "name": "account",
          "type": "address"
        }
      ],
      "name": "balanceOf",
      "outputs": [
        {
          "internalType": "uint256",
          "name": "",
          "type": "uint256"
        }
      ],
      "stateMutability": "view",
      "type": "function"
    },
    {
      "inputs": [
        {
          "internalType": "uint256",
          "name": "amount",
          "type": "uint256"
        }
      ],
      "name": "burn",
      "outputs": [],
      "stateMutability": "nonpayable",
      "type": "function"
    },
    {
      "inputs": [
        {
          "internalType": "address",
          "name": "account",
          "type": "address"
        },
        {
          "internalType": "uint256",
          "name": "amount",
          "type": "uint256"
        }
      ],
      "name": "burnFrom",
      "outputs": [],
      "stateMutability": "nonpayable",
      "type": "function"
    },
    {
      "inputs": [],
      "name": "decimals",
      "outputs": [
        {
          "internalType": "uint8",
          "name": "",
          "type": "uint8"
        }
      ],
      "stateMutability": "view",
      "type": "function"
    },
    {
      "inputs": [
        {
          "internalType": "address",
          "name": "spender",
          "type": "address"
        },
        {
          "internalType": "uint256",
          "name": "subtractedValue",
          "type": "uint256"
        }
      ],
      "name": "decreaseAllowance",
      "outputs": [
        {
          "internalType": "bool",
          "name": "",
          "type": "bool"
        }
      ],
      "stateMutability": "nonpayable",
      "type": "function"
    },
    {
      "inputs": [
        {
          "internalType": "address",
          "name": "spender",
          "type": "address"
        },
        {
          "internalType": "uint256",
          "name": "addedValue",
          "type": "uint256"
        }
      ],
      "name": "increaseAllowance",
      "outputs": [
        {
          "internalType": "bool",
          "name": "",
          "type": "bool"
        }
      ],
      "stateMutability": "nonpayable",
      "type": "function"
    },
    {
      "inputs": [],
      "name": "isOperator",
      "outputs": [
        {
          "internalType": "bool",
          "name": "",
          "type": "bool"
        }
      ],
      "stateMutability": "view",
      "type": "function"
    },
    {
      "inputs": [
        {
          "internalType": "address",
          "name": "recipient_",
          "type": "address"
        },
        {
          "internalType": "uint256",
          "name": "amount_",
          "type": "uint256"
        }
      ],
      "name": "mint",
      "outputs": [
        {
          "internalType": "bool",
          "name": "",
          "type": "bool"
        }
      ],
      "stateMutability": "nonpayable",
      "type": "function"
    },
    {
      "inputs": [],
      "name": "name",
      "outputs": [
        {
          "internalType": "string",
          "name": "",
          "type": "string"
        }
      ],
      "stateMutability": "view",
      "type": "function"
    },
    {
      "inputs": [],
      "name": "operator",
      "outputs": [
        {
          "internalType": "address",
          "name": "",
          "type": "address"
        }
      ],
      "stateMutability": "view",
      "type": "function"
    },
    {
      "inputs": [],
      "name": "owner",
      "outputs": [
        {
          "internalType": "address",
          "name": "",
          "type": "address"
        }
      ],
      "stateMutability": "view",
      "type": "function"
    },
    {
      "inputs": [],
      "name": "renounceOwnership",
      "outputs": [],
      "stateMutability": "nonpayable",
      "type": "function"
    },
    {
      "inputs": [],
      "name": "symbol",
      "outputs": [
        {
          "internalType": "string",
          "name": "",
          "type": "string"
        }
      ],
      "stateMutability": "view",
      "type": "function"
    },
    {
      "inputs": [],
      "name": "totalSupply",
      "outputs": [
        {
          "internalType": "uint256",
          "name": "",
          "type": "uint256"
        }
      ],
      "stateMutability": "view",
      "type": "function"
    },
    {
      "inputs": [
        {
          "internalType": "address",
          "name": "recipient",
          "type": "address"
        },
        {
          "internalType": "uint256",
          "name": "amount",
          "type": "uint256"
        }
      ],
      "name": "transfer",
      "outputs": [
        {
          "internalType": "bool",
          "name": "",
          "type": "bool"
        }
      ],
      "stateMutability": "nonpayable",
      "type": "function"
    },
    {
      "inputs": [
        {
          "internalType": "address",
          "name": "sender",
          "type": "address"
        },
        {
          "internalType": "address",
          "name": "recipient",
          "type": "address"
        },
        {
          "internalType": "uint256",
          "name": "amount",
          "type": "uint256"
        }
      ],
      "name": "transferFrom",
      "outputs": [
        {
          "internalType": "bool",
          "name": "",
          "type": "bool"
        }
      ],
      "stateMutability": "nonpayable",
      "type": "function"
    },
    {
      "inputs": [
        {
          "internalType": "address",
          "name": "newOperator_",
          "type": "address"
        }
      ],
      "name": "transferOperator",
      "outputs": [],
      "stateMutability": "nonpayable",
      "type": "function"
    },
    {
      "inputs": [
        {
          "internalType": "address",
          "name": "newOwner",
          "type": "address"
        }
      ],
      "name": "transferOwnership",
      "outputs": [],
      "stateMutability": "nonpayable",
      "type": "function"
    }
  ],
  "bytecode": "0x60806040523480156200001157600080fd5b506040805180820182526012815271131a589c9848119a5b985b98d9481093d39160721b602080830191825283518085019094526005845264131093d39160da1b908401528151919291620000699160039162000151565b5080516200007f90600490602084019062000151565b50506005805460ff191660121790555060006200009b6200014d565b60058054610100600160a81b0319166101006001600160a01b03841690810291909117909155604051919250906000907f8be0079c531659141344cd1fd0a4f28419497f9722a3daafe3b4186f6b6457e0908290a350620000fb6200014d565b600680546001600160a01b0319166001600160a01b0392831617908190556040519116906000907f74da04524d50c64947f5dd5381ef1a4dca5cba8ed1d816243f9e48aa0b5617ed908290a3620001ed565b3390565b828054600181600116156101000203166002900490600052602060002090601f016020900481019282601f106200019457805160ff1916838001178555620001c4565b82800160010185558215620001c4579182015b82811115620001c4578251825591602001919060010190620001a7565b50620001d2929150620001d6565b5090565b5b80821115620001d25760008155600101620001d7565b6113e780620001fd6000396000f3fe608060405234801561001057600080fd5b506004361061016c5760003560e01c8063570ca735116100cd57806395d89b4111610081578063a9059cbb11610066578063a9059cbb146103fb578063dd62ed3e14610427578063f2fde38b146104555761016c565b806395d89b41146103c7578063a457c2d7146103cf5761016c565b8063715018a6116100b2578063715018a61461038b57806379cc6790146103935780638da5cb5b146103bf5761016c565b8063570ca7351461034157806370a08231146103655761016c565b8063313ce5671161012457806340c10f191161010957806340c10f19146102f057806342966c681461031c5780634456eda2146103395761016c565b8063313ce567146102a657806339509351146102c45761016c565b806318160ddd1161015557806318160ddd1461022e57806323b872dd1461024857806329605e771461027e5761016c565b806306fdde0314610171578063095ea7b3146101ee575b600080fd5b61017961047b565b6040805160208082528351818301528351919283929083019185019080838360005b838110156101b357818101518382015260200161019b565b50505050905090810190601f1680156101e05780820380516001836020036101000a031916815260200191505b509250505060405180910390f35b61021a6004803603604081101561020457600080fd5b506001600160a01b03813516906020013561052f565b604080519115158252519081900360200190f35b61023661054c565b60408051918252519081900360200190f35b61021a6004803603606081101561025e57600080fd5b506001600160a01b03813581169160208101359091169060400135610552565b6102a46004803603602081101561029457600080fd5b50356001600160a01b03166105d9565b005b6102ae610659565b6040805160ff9092168252519081900360200190f35b61021a600480360360408110156102da57600080fd5b506001600160a01b038135169060200135610662565b61021a6004803603604081101561030657600080fd5b506001600160a01b0381351690602001356106b0565b6102a46004803603602081101561033257600080fd5b503561072a565b61021a610733565b610349610759565b604080516001600160a01b039092168252519081900360200190f35b6102366004803603602081101561037b57600080fd5b50356001600160a01b0316610768565b6102a4610783565b6102a4600480360360408110156103a957600080fd5b506001600160a01b03813516906020013561085e565b6103496108b5565b6101796108c9565b61021a600480360360408110156103e557600080fd5b506001600160a01b038135169060200135610948565b61021a6004803603604081101561041157600080fd5b506001600160a01b0381351690602001356109b0565b6102366004803603604081101561043d57600080fd5b506001600160a01b03813581169160200135166109c4565b6102a46004803603602081101561046b57600080fd5b50356001600160a01b03166109ef565b60038054604080516020601f60027fffffffffffffffffffffffffffffffffffffffffffffffffffffffffffffffff6101006001881615020190951694909404938401819004810282018101909252828152606093909290918301828280156105255780601f106104fa57610100808354040283529160200191610525565b820191906000526020600020905b81548152906001019060200180831161050857829003601f168201915b5050505050905090565b600061054361053c610b26565b8484610b2a565b50600192915050565b60025490565b600061055f848484610c16565b6105cf8461056b610b26565b6105ca856040518060600160405280602881526020016112b3602891396001600160a01b038a166000908152600160205260408120906105a9610b26565b6001600160a01b031681526020810191909152604001600020549190610d71565b610b2a565b5060019392505050565b6105e1610b26565b6001600160a01b03166105f26108b5565b6001600160a01b03161461064d576040805162461bcd60e51b815260206004820181905260248201527f4f776e61626c653a2063616c6c6572206973206e6f7420746865206f776e6572604482015290519081900360640190fd5b61065681610e08565b50565b60055460ff1690565b600061054361066f610b26565b846105ca8560016000610680610b26565b6001600160a01b03908116825260208083019390935260409182016000908120918c168152925290205490610ebd565b6006546000906001600160a01b031633146106fc5760405162461bcd60e51b81526004018080602001828103825260248152602001806112ff6024913960400191505060405180910390fd5b600061070784610768565b90506107138484610f1e565b600061071e85610768565b91909111949350505050565b6106568161100e565b6006546000906001600160a01b031661074a610b26565b6001600160a01b031614905090565b6006546001600160a01b031690565b6001600160a01b031660009081526020819052604090205490565b61078b610b26565b6001600160a01b031661079c6108b5565b6001600160a01b0316146107f7576040805162461bcd60e51b815260206004820181905260248201527f4f776e61626c653a2063616c6c6572206973206e6f7420746865206f776e6572604482015290519081900360640190fd5b60055460405160009161010090046001600160a01b0316907f8be0079c531659141344cd1fd0a4f28419497f9722a3daafe3b4186f6b6457e0908390a3600580547fffffffffffffffffffffff0000000000000000000000000000000000000000ff169055565b6006546001600160a01b031633146108a75760405162461bcd60e51b81526004018080602001828103825260248152602001806112ff6024913960400191505060405180910390fd5b6108b1828261101f565b5050565b60055461010090046001600160a01b031690565b60048054604080516020601f60027fffffffffffffffffffffffffffffffffffffffffffffffffffffffffffffffff6101006001881615020190951694909404938401819004810282018101909252828152606093909290918301828280156105255780601f106104fa57610100808354040283529160200191610525565b6000610543610955610b26565b846105ca8560405180606001604052806025815260200161138d602591396001600061097f610b26565b6001600160a01b03908116825260208083019390935260409182016000908120918d16815292529020549190610d71565b60006105436109bd610b26565b8484610c16565b6001600160a01b03918216600090815260016020908152604080832093909416825291909152205490565b6109f7610b26565b6001600160a01b0316610a086108b5565b6001600160a01b031614610a63576040805162461bcd60e51b815260206004820181905260248201527f4f776e61626c653a2063616c6c6572206973206e6f7420746865206f776e6572604482015290519081900360640190fd5b6001600160a01b038116610aa85760405162461bcd60e51b81526004018080602001828103825260268152602001806112186026913960400191505060405180910390fd5b6005546040516001600160a01b0380841692610100900416907f8be0079c531659141344cd1fd0a4f28419497f9722a3daafe3b4186f6b6457e090600090a3600580546001600160a01b03909216610100027fffffffffffffffffffffff0000000000000000000000000000000000000000ff909216919091179055565b3390565b6001600160a01b038316610b6f5760405162461bcd60e51b81526004018080602001828103825260248152602001806113696024913960400191505060405180910390fd5b6001600160a01b038216610bb45760405162461bcd60e51b815260040180806020018281038252602281526020018061123e6022913960400191505060405180910390fd5b6001600160a01b03808416600081815260016020908152604080832094871680845294825291829020859055815185815291517f8c5be1e5ebec7d5bd14f71427d1e84f3dd0314c0f7b2291e5b200ac8c7c3b9259281900390910190a3505050565b6001600160a01b038316610c5b5760405162461bcd60e51b81526004018080602001828103825260258152602001806113446025913960400191505060405180910390fd5b6001600160a01b038216610ca05760405162461bcd60e51b81526004018080602001828103825260238152602001806111d36023913960400191505060405180910390fd5b610cab838383611074565b610ce881604051806060016040528060268152602001611260602691396001600160a01b0386166000908152602081905260409020549190610d71565b6001600160a01b038085166000908152602081905260408082209390935590841681522054610d179082610ebd565b6001600160a01b038084166000818152602081815260409182902094909455805185815290519193928716927fddf252ad1be2c89b69c2b068fc378daa952ba7f163c4a11628f55a4df523b3ef92918290030190a3505050565b60008184841115610e005760405162461bcd60e51b81526004018080602001828103825283818151815260200191508051906020019080838360005b83811015610dc5578181015183820152602001610dad565b50505050905090810190601f168015610df25780820380516001836020036101000a031916815260200191505b509250505060405180910390fd5b505050900390565b6001600160a01b038116610e4d5760405162461bcd60e51b815260040180806020018281038252602d815260200180611286602d913960400191505060405180910390fd5b6040516001600160a01b038216906000907f74da04524d50c64947f5dd5381ef1a4dca5cba8ed1d816243f9e48aa0b5617ed908290a3600680547fffffffffffffffffffffffff0000000000000000000000000000000000000000166001600160a01b0392909216919091179055565b600082820183811015610f17576040805162461bcd60e51b815260206004820152601b60248201527f536166654d6174683a206164646974696f6e206f766572666c6f770000000000604482015290519081900360640190fd5b9392505050565b6001600160a01b038216610f79576040805162461bcd60e51b815260206004820152601f60248201527f45524332303a206d696e7420746f20746865207a65726f206164647265737300604482015290519081900360640190fd5b610f8560008383611074565b600254610f929082610ebd565b6002556001600160a01b038216600090815260208190526040902054610fb89082610ebd565b6001600160a01b0383166000818152602081815260408083209490945583518581529351929391927fddf252ad1be2c89b69c2b068fc378daa952ba7f163c4a11628f55a4df523b3ef9281900390910190a35050565b610656611019610b26565b82611079565b6000611056826040518060600160405280602481526020016112db6024913961104f8661104a610b26565b6109c4565b9190610d71565b905061106a83611064610b26565b83610b2a565b6110748383611079565b505050565b6001600160a01b0382166110be5760405162461bcd60e51b81526004018080602001828103825260218152602001806113236021913960400191505060405180910390fd5b6110ca82600083611074565b611107816040518060600160405280602281526020016111f6602291396001600160a01b0385166000908152602081905260409020549190610d71565b6001600160a01b03831660009081526020819052604090205560025461112d9082611175565b6002556040805182815290516000916001600160a01b038516917fddf252ad1be2c89b69c2b068fc378daa952ba7f163c4a11628f55a4df523b3ef9181900360200190a35050565b6000828211156111cc576040805162461bcd60e51b815260206004820152601e60248201527f536166654d6174683a207375627472616374696f6e206f766572666c6f770000604482015290519081900360640190fd5b5090039056fe45524332303a207472616e7366657220746f20746865207a65726f206164647265737345524332303a206275726e20616d6f756e7420657863656564732062616c616e63654f776e61626c653a206e6577206f776e657220697320746865207a65726f206164647265737345524332303a20617070726f766520746f20746865207a65726f206164647265737345524332303a207472616e7366657220616d6f756e7420657863656564732062616c616e63656f70657261746f723a207a65726f206164647265737320676976656e20666f72206e6577206f70657261746f7245524332303a207472616e7366657220616d6f756e74206578636565647320616c6c6f77616e636545524332303a206275726e20616d6f756e74206578636565647320616c6c6f77616e63656f70657261746f723a2063616c6c6572206973206e6f7420746865206f70657261746f7245524332303a206275726e2066726f6d20746865207a65726f206164647265737345524332303a207472616e736665722066726f6d20746865207a65726f206164647265737345524332303a20617070726f76652066726f6d20746865207a65726f206164647265737345524332303a2064656372656173656420616c6c6f77616e63652062656c6f77207a65726fa264697066735822122030a7a5f2f87ef4060dfc1edfbfbc582f27624f25be52ed8d3dc44e868d6c7bda64736f6c634300060c0033",
  "linkReferences": {},
  "deployedLinkReferences": {}
}