{
  "_format": "hh-sol-artifact-1",
  "contractName": "Epoch",
  "sourceName": "contracts/utils/Epoch.sol",
  "abi": [
    {
      "inputs": [
        {
          "internalType": "uint256",
          "name": "_period",
          "type": "uint256"
        },
        {
          "internalType": "uint256",
          "name": "_startTime",
          "type": "uint256"
        },
        {
          "internalType": "uint256",
          "name": "_startEpoch",
          "type": "uint256"
        }
      ],
      "stateMutability": "nonpayable",
      "type": "constructor"
    },
    {
      "anonymous": false,
      "inputs": [
        {
          "indexed": true,
          "internalType": "address",
          "name": "previousOperator",
          "type": "address"
        },
        {
          "indexed": true,
          "internalType": "address",
          "name": "newOperator",
          "type": "address"
        }
      ],
      "name": "OperatorTransferred",
      "type": "event"
    },
    {
      "anonymous": false,
      "inputs": [
        {
          "indexed": true,
          "internalType": "address",
          "name": "previousOwner",
          "type": "address"
        },
        {
          "indexed": true,
          "internalType": "address",
          "name": "newOwner",
          "type": "address"
        }
      ],
      "name": "OwnershipTransferred",
      "type": "event"
    },
    {
      "inputs": [],
      "name": "getCurrentEpoch",
      "outputs": [
        {
          "internalType": "uint256",
          "name": "",
          "type": "uint256"
        }
      ],
      "stateMutability": "view",
      "type": "function"
    },
    {
      "inputs": [],
      "name": "getLastEpochTime",
      "outputs": [
        {
          "internalType": "uint256",
          "name": "",
          "type": "uint256"
        }
      ],
      "stateMutability": "view",
      "type": "function"
    },
    {
      "inputs": [],
      "name": "getPeriod",
      "outputs": [
        {
          "internalType": "uint256",
          "name": "",
          "type": "uint256"
        }
      ],
      "stateMutability": "view",
      "type": "function"
    },
    {
      "inputs": [],
      "name": "getStartTime",
      "outputs": [
        {
          "internalType": "uint256",
          "name": "",
          "type": "uint256"
        }
      ],
      "stateMutability": "view",
      "type": "function"
    },
    {
      "inputs": [],
      "name": "isOperator",
      "outputs": [
        {
          "internalType": "bool",
          "name": "",
          "type": "bool"
        }
      ],
      "stateMutability": "view",
      "type": "function"
    },
    {
      "inputs": [],
      "name": "nextEpochPoint",
      "outputs": [
        {
          "internalType": "uint256",
          "name": "",
          "type": "uint256"
        }
      ],
      "stateMutability": "view",
      "type": "function"
    },
    {
      "inputs": [],
      "name": "operator",
      "outputs": [
        {
          "internalType": "address",
          "name": "",
          "type": "address"
        }
      ],
      "stateMutability": "view",
      "type": "function"
    },
    {
      "inputs": [],
      "name": "owner",
      "outputs": [
        {
          "internalType": "address",
          "name": "",
          "type": "address"
        }
      ],
      "stateMutability": "view",
      "type": "function"
    },
    {
      "inputs": [],
      "name": "renounceOwnership",
      "outputs": [],
      "stateMutability": "nonpayable",
      "type": "function"
    },
    {
      "inputs": [
        {
          "internalType": "uint256",
          "name": "_epoch",
          "type": "uint256"
        }
      ],
      "name": "setEpoch",
      "outputs": [],
      "stateMutability": "nonpayable",
      "type": "function"
    },
    {
      "inputs": [
        {
          "internalType": "uint256",
          "name": "_period",
          "type": "uint256"
        }
      ],
      "name": "setPeriod",
      "outputs": [],
      "stateMutability": "nonpayable",
      "type": "function"
    },
    {
      "inputs": [
        {
          "internalType": "address",
          "name": "newOperator_",
          "type": "address"
        }
      ],
      "name": "transferOperator",
      "outputs": [],
      "stateMutability": "nonpayable",
      "type": "function"
    },
    {
      "inputs": [
        {
          "internalType": "address",
          "name": "newOwner",
          "type": "address"
        }
      ],
      "name": "transferOwnership",
      "outputs": [],
      "stateMutability": "nonpayable",
      "type": "function"
    }
  ],
  "bytecode": "0x608060405234801561001057600080fd5b50604051610ac2380380610ac28339818101604052606081101561003357600080fd5b5080516020820151604090920151909190600061004e61011c565b600080546001600160a01b0319166001600160a01b0383169081178255604051929350917f8be0079c531659141344cd1fd0a4f28419497f9722a3daafe3b4186f6b6457e0908290a3506100a061011c565b600180546001600160a01b0319166001600160a01b0392831617908190556040519116906000907f74da04524d50c64947f5dd5381ef1a4dca5cba8ed1d816243f9e48aa0b5617ed908290a36002839055600382905560058190556101108284610120602090811b6106eb17901c565b6004555061017d915050565b3390565b600082821115610177576040805162461bcd60e51b815260206004820152601e60248201527f536166654d6174683a207375627472616374696f6e206f766572666c6f770000604482015290519081900360640190fd5b50900390565b6109368061018c6000396000f3fe608060405234801561001057600080fd5b50600436106100df5760003560e01c8063715018a61161008c578063ba52245811610066578063ba522458146101d2578063c5967c26146101da578063c828371e146101e2578063f2fde38b146101ea576100df565b8063715018a6146101ba5780638da5cb5b146101c2578063b97dd9e2146101ca576100df565b806329605e77116100bd57806329605e771461013a5780634456eda21461016d578063570ca73514610189576100df565b80630ceb2cef146100e45780630f3a9f65146101035780631ed2419514610120575b600080fd5b610101600480360360208110156100fa57600080fd5b503561021d565b005b6101016004803603602081101561011957600080fd5b5035610278565b610128610339565b60408051918252519081900360200190f35b6101016004803603602081101561015057600080fd5b503573ffffffffffffffffffffffffffffffffffffffff1661033f565b6101756103d9565b604080519115158252519081900360200190f35b610191610419565b6040805173ffffffffffffffffffffffffffffffffffffffff9092168252519081900360200190f35b610101610435565b610191610532565b61012861054e565b610128610554565b61012861055a565b610128610578565b6101016004803603602081101561020057600080fd5b503573ffffffffffffffffffffffffffffffffffffffff1661057e565b60015473ffffffffffffffffffffffffffffffffffffffff1633146102735760405162461bcd60e51b81526004018080602001828103825260248152602001806108dd6024913960400191505060405180910390fd5b600555565b60015473ffffffffffffffffffffffffffffffffffffffff1633146102ce5760405162461bcd60e51b81526004018080602001828103825260248152602001806108dd6024913960400191505060405180910390fd5b610e1081101580156102e357506202a3008111155b610334576040805162461bcd60e51b815260206004820152601560248201527f5f706572696f643a206f7574206f662072616e67650000000000000000000000604482015290519081900360640190fd5b600255565b60025490565b610347610748565b73ffffffffffffffffffffffffffffffffffffffff16610365610532565b73ffffffffffffffffffffffffffffffffffffffff16146103cd576040805162461bcd60e51b815260206004820181905260248201527f4f776e61626c653a2063616c6c6572206973206e6f7420746865206f776e6572604482015290519081900360640190fd5b6103d68161074c565b50565b60015460009073ffffffffffffffffffffffffffffffffffffffff166103fd610748565b73ffffffffffffffffffffffffffffffffffffffff1614905090565b60015473ffffffffffffffffffffffffffffffffffffffff1690565b61043d610748565b73ffffffffffffffffffffffffffffffffffffffff1661045b610532565b73ffffffffffffffffffffffffffffffffffffffff16146104c3576040805162461bcd60e51b815260206004820181905260248201527f4f776e61626c653a2063616c6c6572206973206e6f7420746865206f776e6572604482015290519081900360640190fd5b6000805460405173ffffffffffffffffffffffffffffffffffffffff909116907f8be0079c531659141344cd1fd0a4f28419497f9722a3daafe3b4186f6b6457e0908390a3600080547fffffffffffffffffffffffff0000000000000000000000000000000000000000169055565b60005473ffffffffffffffffffffffffffffffffffffffff1690565b60055490565b60045490565b600061057360025460045461082890919063ffffffff16565b905090565b60035490565b610586610748565b73ffffffffffffffffffffffffffffffffffffffff166105a4610532565b73ffffffffffffffffffffffffffffffffffffffff161461060c576040805162461bcd60e51b815260206004820181905260248201527f4f776e61626c653a2063616c6c6572206973206e6f7420746865206f776e6572604482015290519081900360640190fd5b73ffffffffffffffffffffffffffffffffffffffff811661065e5760405162461bcd60e51b815260040180806020018281038252602681526020018061088a6026913960400191505060405180910390fd5b6000805460405173ffffffffffffffffffffffffffffffffffffffff808516939216917f8be0079c531659141344cd1fd0a4f28419497f9722a3daafe3b4186f6b6457e091a3600080547fffffffffffffffffffffffff00000000000000000000000000000000000000001673ffffffffffffffffffffffffffffffffffffffff92909216919091179055565b600082821115610742576040805162461bcd60e51b815260206004820152601e60248201527f536166654d6174683a207375627472616374696f6e206f766572666c6f770000604482015290519081900360640190fd5b50900390565b3390565b73ffffffffffffffffffffffffffffffffffffffff811661079e5760405162461bcd60e51b815260040180806020018281038252602d8152602001806108b0602d913960400191505060405180910390fd5b60405173ffffffffffffffffffffffffffffffffffffffff8216906000907f74da04524d50c64947f5dd5381ef1a4dca5cba8ed1d816243f9e48aa0b5617ed908290a3600180547fffffffffffffffffffffffff00000000000000000000000000000000000000001673ffffffffffffffffffffffffffffffffffffffff92909216919091179055565b600082820183811015610882576040805162461bcd60e51b815260206004820152601b60248201527f536166654d6174683a206164646974696f6e206f766572666c6f770000000000604482015290519081900360640190fd5b939250505056fe4f776e61626c653a206e6577206f776e657220697320746865207a65726f20616464726573736f70657261746f723a207a65726f206164647265737320676976656e20666f72206e6577206f70657261746f726f70657261746f723a2063616c6c6572206973206e6f7420746865206f70657261746f72a2646970667358221220f209bf39b14e5f95ab7d5a634f2d90a642029cda457ea396ead2cfc337a21c2c64736f6c634300060c0033",
  "linkReferences": {},
  "deployedLinkReferences": {}
}