{
  "address": "0x6c6BAdB56D11856ae59214f25902744f6276a35E",
  "abi": [
    {
      "inputs": [
        {
          "internalType": "address",
          "name": "_grave",
          "type": "address"
        },
        {
          "internalType": "uint256",
          "name": "_poolStartTime",
          "type": "uint256"
        }
      ],
      "stateMutability": "nonpayable",
      "type": "constructor"
    },
    {
      "anonymous": false,
      "inputs": [
        {
          "indexed": true,
          "internalType": "address",
          "name": "user",
          "type": "address"
        },
        {
          "indexed": true,
          "internalType": "uint256",
          "name": "pid",
          "type": "uint256"
        },
        {
          "indexed": false,
          "internalType": "uint256",
          "name": "amount",
          "type": "uint256"
        }
      ],
      "name": "Deposit",
      "type": "event"
    },
    {
      "anonymous": false,
      "inputs": [
        {
          "indexed": true,
          "internalType": "address",
          "name": "user",
          "type": "address"
        },
        {
          "indexed": true,
          "internalType": "uint256",
          "name": "pid",
          "type": "uint256"
        },
        {
          "indexed": false,
          "internalType": "uint256",
          "name": "amount",
          "type": "uint256"
        }
      ],
      "name": "EmergencyWithdraw",
      "type": "event"
    },
    {
      "anonymous": false,
      "inputs": [
        {
          "indexed": true,
          "internalType": "address",
          "name": "user",
          "type": "address"
        },
        {
          "indexed": false,
          "internalType": "uint256",
          "name": "amount",
          "type": "uint256"
        }
      ],
      "name": "RewardPaid",
      "type": "event"
    },
    {
      "anonymous": false,
      "inputs": [
        {
          "indexed": true,
          "internalType": "address",
          "name": "user",
          "type": "address"
        },
        {
          "indexed": true,
          "internalType": "uint256",
          "name": "pid",
          "type": "uint256"
        },
        {
          "indexed": false,
          "internalType": "uint256",
          "name": "amount",
          "type": "uint256"
        }
      ],
      "name": "Withdraw",
      "type": "event"
    },
    {
      "inputs": [],
      "name": "TOTAL_REWARDS",
      "outputs": [
        {
          "internalType": "uint256",
          "name": "",
          "type": "uint256"
        }
      ],
      "stateMutability": "view",
      "type": "function"
    },
    {
      "inputs": [
        {
          "internalType": "uint256",
          "name": "_allocPoint",
          "type": "uint256"
        },
        {
          "internalType": "contract IERC20",
          "name": "_token",
          "type": "address"
        },
        {
          "internalType": "bool",
          "name": "_withUpdate",
          "type": "bool"
        },
        {
          "internalType": "uint256",
          "name": "_lastRewardTime",
          "type": "uint256"
        }
      ],
      "name": "add",
      "outputs": [],
      "stateMutability": "nonpayable",
      "type": "function"
    },
    {
      "inputs": [
        {
          "internalType": "uint256",
          "name": "_pid",
          "type": "uint256"
        },
        {
          "internalType": "uint256",
          "name": "_amount",
          "type": "uint256"
        }
      ],
      "name": "deposit",
      "outputs": [],
      "stateMutability": "nonpayable",
      "type": "function"
    },
    {
      "inputs": [
        {
          "internalType": "uint256",
          "name": "_pid",
          "type": "uint256"
        }
      ],
      "name": "emergencyWithdraw",
      "outputs": [],
      "stateMutability": "nonpayable",
      "type": "function"
    },
    {
      "inputs": [
        {
          "internalType": "uint256",
          "name": "_fromTime",
          "type": "uint256"
        },
        {
          "internalType": "uint256",
          "name": "_toTime",
          "type": "uint256"
        }
      ],
      "name": "getGeneratedReward",
      "outputs": [
        {
          "internalType": "uint256",
          "name": "",
          "type": "uint256"
        }
      ],
      "stateMutability": "view",
      "type": "function"
    },
    {
      "inputs": [
        {
          "internalType": "contract IERC20",
          "name": "_token",
          "type": "address"
        },
        {
          "internalType": "uint256",
          "name": "amount",
          "type": "uint256"
        },
        {
          "internalType": "address",
          "name": "to",
          "type": "address"
        }
      ],
      "name": "governanceRecoverUnsupported",
      "outputs": [],
      "stateMutability": "nonpayable",
      "type": "function"
    },
    {
      "inputs": [],
      "name": "grave",
      "outputs": [
        {
          "internalType": "contract IERC20",
          "name": "",
          "type": "address"
        }
      ],
      "stateMutability": "view",
      "type": "function"
    },
    {
      "inputs": [],
      "name": "gravePerSecond",
      "outputs": [
        {
          "internalType": "uint256",
          "name": "",
          "type": "uint256"
        }
      ],
      "stateMutability": "view",
      "type": "function"
    },
    {
      "inputs": [],
      "name": "massUpdatePools",
      "outputs": [],
      "stateMutability": "nonpayable",
      "type": "function"
    },
    {
      "inputs": [],
      "name": "operator",
      "outputs": [
        {
          "internalType": "address",
          "name": "",
          "type": "address"
        }
      ],
      "stateMutability": "view",
      "type": "function"
    },
    {
      "inputs": [
        {
          "internalType": "uint256",
          "name": "_pid",
          "type": "uint256"
        },
        {
          "internalType": "address",
          "name": "_user",
          "type": "address"
        }
      ],
      "name": "pendingGRAVE",
      "outputs": [
        {
          "internalType": "uint256",
          "name": "",
          "type": "uint256"
        }
      ],
      "stateMutability": "view",
      "type": "function"
    },
    {
      "inputs": [],
      "name": "poolEndTime",
      "outputs": [
        {
          "internalType": "uint256",
          "name": "",
          "type": "uint256"
        }
      ],
      "stateMutability": "view",
      "type": "function"
    },
    {
      "inputs": [
        {
          "internalType": "uint256",
          "name": "",
          "type": "uint256"
        }
      ],
      "name": "poolInfo",
      "outputs": [
        {
          "internalType": "contract IERC20",
          "name": "token",
          "type": "address"
        },
        {
          "internalType": "uint256",
          "name": "allocPoint",
          "type": "uint256"
        },
        {
          "internalType": "uint256",
          "name": "lastRewardTime",
          "type": "uint256"
        },
        {
          "internalType": "uint256",
          "name": "accGravePerShare",
          "type": "uint256"
        },
        {
          "internalType": "bool",
          "name": "isStarted",
          "type": "bool"
        }
      ],
      "stateMutability": "view",
      "type": "function"
    },
    {
      "inputs": [],
      "name": "poolStartTime",
      "outputs": [
        {
          "internalType": "uint256",
          "name": "",
          "type": "uint256"
        }
      ],
      "stateMutability": "view",
      "type": "function"
    },
    {
      "inputs": [],
      "name": "runningTime",
      "outputs": [
        {
          "internalType": "uint256",
          "name": "",
          "type": "uint256"
        }
      ],
      "stateMutability": "view",
      "type": "function"
    },
    {
      "inputs": [
        {
          "internalType": "uint256",
          "name": "_pid",
          "type": "uint256"
        },
        {
          "internalType": "uint256",
          "name": "_allocPoint",
          "type": "uint256"
        }
      ],
      "name": "set",
      "outputs": [],
      "stateMutability": "nonpayable",
      "type": "function"
    },
    {
      "inputs": [
        {
          "internalType": "address",
          "name": "_operator",
          "type": "address"
        }
      ],
      "name": "setOperator",
      "outputs": [],
      "stateMutability": "nonpayable",
      "type": "function"
    },
    {
      "inputs": [],
      "name": "totalAllocPoint",
      "outputs": [
        {
          "internalType": "uint256",
          "name": "",
          "type": "uint256"
        }
      ],
      "stateMutability": "view",
      "type": "function"
    },
    {
      "inputs": [
        {
          "internalType": "uint256",
          "name": "_pid",
          "type": "uint256"
        }
      ],
      "name": "updatePool",
      "outputs": [],
      "stateMutability": "nonpayable",
      "type": "function"
    },
    {
      "inputs": [
        {
          "internalType": "uint256",
          "name": "",
          "type": "uint256"
        },
        {
          "internalType": "address",
          "name": "",
          "type": "address"
        }
      ],
      "name": "userInfo",
      "outputs": [
        {
          "internalType": "uint256",
          "name": "amount",
          "type": "uint256"
        },
        {
          "internalType": "uint256",
          "name": "rewardDebt",
          "type": "uint256"
        }
      ],
      "stateMutability": "view",
      "type": "function"
    },
    {
      "inputs": [
        {
          "internalType": "uint256",
          "name": "_pid",
          "type": "uint256"
        },
        {
          "internalType": "uint256",
          "name": "_amount",
          "type": "uint256"
        }
      ],
      "name": "withdraw",
      "outputs": [],
      "stateMutability": "nonpayable",
      "type": "function"
    }
  ],
  "transactionHash": "0x3e70438871a38e83e20ac1321715d6439442e617694440f81ec1ee74dc6c7f0e",
  "args": [
    "0xF5ed88D813dF0188e3e5681818d37133027038f2",
    1655902800
  ],
  "numDeployments": 1,
  "solcInputHash": "5cae3e7a750181ffc195328a8ebfc355",
  "bytecode": "0x60806040526000600455670156a8c3949620006007556203f48060085534801561002857600080fd5b506040516119fd3803806119fd8339818101604052604081101561004b57600080fd5b508051602090910151428111610091576040805162461bcd60e51b815260206004808301919091526024820152636c61746560e01b604482015290519081900360640190fd5b6001600160a01b038216156100bc57600180546001600160a01b0319166001600160a01b0384161790555b60058190556008540160065550600080546001600160a01b03191633179055611913806100ea6000396000f3fe608060405234801561001057600080fd5b50600436106101775760003560e01c8063570ca735116100d8578063943f013d1161008c578063a41cd03411610066578063a41cd034146103c4578063b3ab15fb146103cc578063e2bbb158146103f257610177565b8063943f013d1461035657806396805e541461035e5780639e987a191461039857610177565b8063630b5ba1116100bd578063630b5ba1146103015780636e271dd51461030957806393f1a40b1461031157610177565b8063570ca735146102d55780635f96dc11146102f957610177565b8063441a3e701161012f57806351eb05a61161011457806351eb05a6146102655780635312ea8e1461028257806354575af41461029f57610177565b8063441a3e701461023a578063456ebd021461025d57610177565b806317caf6f11161016057806317caf6f1146101ea5780631ab06ee5146101f2578063231f0c6a1461021757610177565b806309cf60911461017c5780631526fe2714610196575b600080fd5b610184610415565b60408051918252519081900360200190f35b6101b3600480360360208110156101ac57600080fd5b5035610423565b604080516001600160a01b039096168652602086019490945284840192909252606084015215156080830152519081900360a00190f35b61018461046e565b6102156004803603604081101561020857600080fd5b5080359060200135610474565b005b6101846004803603604081101561022d57600080fd5b5080359060200135610522565b6102156004803603604081101561025057600080fd5b50803590602001356105e7565b6101846107af565b6102156004803603602081101561027b57600080fd5b50356107b5565b6102156004803603602081101561029857600080fd5b503561094a565b610215600480360360608110156102b557600080fd5b506001600160a01b038135811691602081013591604090910135166109e6565b6102dd610b58565b604080516001600160a01b039092168252519081900360200190f35b610184610b67565b610215610b6d565b610184610b90565b61033d6004803603604081101561032757600080fd5b50803590602001356001600160a01b0316610b96565b6040805192835260208301919091528051918290030190f35b610184610bba565b6102156004803603608081101561037457600080fd5b508035906001600160a01b0360208201351690604081013515159060600135610bc0565b610184600480360360408110156103ae57600080fd5b50803590602001356001600160a01b0316610df3565b6102dd610f68565b610215600480360360208110156103e257600080fd5b50356001600160a01b0316610f77565b6102156004803603604081101561040857600080fd5b5080359060200135610ffa565b69054b40b1f852bda0000081565b6002818154811061043057fe5b6000918252602090912060059091020180546001820154600283015460038401546004909401546001600160a01b0390931694509092909160ff1685565b60045481565b6000546001600160a01b031633146104bd5760405162461bcd60e51b815260040180806020018281038252602c8152602001806118b2602c913960400191505060405180910390fd5b6104c5610b6d565b6000600283815481106104d457fe5b60009182526020909120600590910201600481015490915060ff161561051b5761051782610511836001015460045461116a90919063ffffffff16565b906111c7565b6004555b6001015550565b6000818310610533575060006105e1565b600654821061059b57600654831061054d575060006105e1565b60055483116105805761057960075461057360055460065461116a90919063ffffffff16565b90611228565b90506105e1565b6105796007546105738560065461116a90919063ffffffff16565b60055482116105ac575060006105e1565b60055483116105d0576105796007546105736005548561116a90919063ffffffff16565b60075461057990610573848661116a565b92915050565b60003390506000600284815481106105fb57fe5b600091825260208083208784526003825260408085206001600160a01b03881686529092529220805460059092029092019250841115610682576040805162461bcd60e51b815260206004820152601260248201527f77697468647261773a206e6f7420676f6f640000000000000000000000000000604482015290519081900360640190fd5b61068b856107b5565b60006106c882600101546106c2670de0b6b3a76400006106bc8760030154876000015461122890919063ffffffff16565b90611281565b9061116a565b9050801561071a576106da84826112e8565b6040805182815290516001600160a01b038616917fe2403640ba68fed3a2f88b7557551d1993f84b99bb10ff833f0cf8db0c5e0486919081900360200190a25b841561074457815461072c908661116a565b82558254610744906001600160a01b031685876113b7565b6003830154825461076291670de0b6b3a7640000916106bc91611228565b600183015560408051868152905187916001600160a01b038716917ff279e6a1f5e320cca91135676d9cb6e44ca8a08c0b88342bcdb1144f6511b5689181900360200190a3505050505050565b60075481565b6000600282815481106107c457fe5b90600052602060002090600502019050806002015442116107e55750610947565b8054604080517f70a0823100000000000000000000000000000000000000000000000000000000815230600482015290516000926001600160a01b0316916370a08231916024808301926020929190829003018186803b15801561084857600080fd5b505afa15801561085c573d6000803e3d6000fd5b505050506040513d602081101561087257600080fd5b5051905080610888575042600290910155610947565b600482015460ff166108d757600480830180547fffffffffffffffffffffffffffffffffffffffffffffffffffffffffffffff0016600190811790915583015490546108d3916111c7565b6004555b6004541561093e5760006108ef836002015442610522565b905060006109106004546106bc86600101548561122890919063ffffffff16565b905061093661092b846106bc84670de0b6b3a7640000611228565b6003860154906111c7565b600385015550505b50426002909101555b50565b60006002828154811061095957fe5b6000918252602080832085845260038252604080852033808752935284208054858255600182019590955560059093020180549094509192916109a9916001600160a01b039190911690836113b7565b604080518281529051859133917fbb757047c2b5f3974fe26b7c10f732e7bce710b0952a71082702781e62ae05959181900360200190a350505050565b6000546001600160a01b03163314610a2f5760405162461bcd60e51b815260040180806020018281038252602c8152602001806118b2602c913960400191505060405180910390fd5b6006546276a70001421015610b3f576001546001600160a01b0384811691161415610aa1576040805162461bcd60e51b815260206004820152600560248201527f6772617665000000000000000000000000000000000000000000000000000000604482015290519081900360640190fd5b60025460005b81811015610b3c57600060028281548110610abe57fe5b6000918252602090912060059091020180549091506001600160a01b0387811691161415610b33576040805162461bcd60e51b815260206004820152600a60248201527f706f6f6c2e746f6b656e00000000000000000000000000000000000000000000604482015290519081900360640190fd5b50600101610aa7565b50505b610b536001600160a01b03841682846113b7565b505050565b6000546001600160a01b031681565b60055481565b60025460005b81811015610b8c57610b84816107b5565b600101610b73565b5050565b60065481565b60036020908152600092835260408084209091529082529020805460019091015482565b60085481565b6000546001600160a01b03163314610c095760405162461bcd60e51b815260040180806020018281038252602c8152602001806118b2602c913960400191505060405180910390fd5b610c1283611437565b8115610c2057610c20610b6d565b600554421015610c4c5780610c385750600554610c47565b600554811015610c4757506005545b610c60565b801580610c5857504281105b15610c605750425b600060055482111580610c735750428211155b6040805160a0810182526001600160a01b03878116825260208201898152928201868152600060608401818152861580156080870190815260028054600181018255945295517f405787fa12a823e0f2b7631cc41b3ba8828b3321ca811111fa75cd3aa3bb5ace600590940293840180547fffffffffffffffffffffffff000000000000000000000000000000000000000016919096161790945594517f405787fa12a823e0f2b7631cc41b3ba8828b3321ca811111fa75cd3aa3bb5acf82015590517f405787fa12a823e0f2b7631cc41b3ba8828b3321ca811111fa75cd3aa3bb5ad082015592517f405787fa12a823e0f2b7631cc41b3ba8828b3321ca811111fa75cd3aa3bb5ad184015590517f405787fa12a823e0f2b7631cc41b3ba8828b3321ca811111fa75cd3aa3bb5ad290920180547fffffffffffffffffffffffffffffffffffffffffffffffffffffffffffffff001692151592909217909155909150610dec57600454610de890866111c7565b6004555b5050505050565b60008060028481548110610e0357fe5b60009182526020808320878452600380835260408086206001600160a01b03808b168852908552818720600590960290930191820154825482517f70a0823100000000000000000000000000000000000000000000000000000000815230600482015292519398509596909590949316926370a0823192602480840193829003018186803b158015610e9457600080fd5b505afa158015610ea8573d6000803e3d6000fd5b505050506040513d6020811015610ebe57600080fd5b5051600285015490915042118015610ed557508015155b15610f32576000610eea856002015442610522565b90506000610f0b6004546106bc88600101548561122890919063ffffffff16565b9050610f2d610f26846106bc84670de0b6b3a7640000611228565b85906111c7565b935050505b610f5d83600101546106c2670de0b6b3a76400006106bc86886000015461122890919063ffffffff16565b979650505050505050565b6001546001600160a01b031681565b6000546001600160a01b03163314610fc05760405162461bcd60e51b815260040180806020018281038252602c8152602001806118b2602c913960400191505060405180910390fd5b600080547fffffffffffffffffffffffff0000000000000000000000000000000000000000166001600160a01b0392909216919091179055565b600033905060006002848154811061100e57fe5b600091825260208083208784526003825260408085206001600160a01b0388168652909252922060059091029091019150611048856107b5565b8054156110d457600061108082600101546106c2670de0b6b3a76400006106bc8760030154876000015461122890919063ffffffff16565b905080156110d25761109284826112e8565b6040805182815290516001600160a01b038616917fe2403640ba68fed3a2f88b7557551d1993f84b99bb10ff833f0cf8db0c5e0486919081900360200190a25b505b83156111005781546110f1906001600160a01b03168430876114d1565b80546110fd90856111c7565b81555b6003820154815461111e91670de0b6b3a7640000916106bc91611228565b600182015560408051858152905186916001600160a01b038616917f90890809c654f11d6e72a28fa60149770a0d11ec6c92319d6ceb2bb0a4ea1a159181900360200190a35050505050565b6000828211156111c1576040805162461bcd60e51b815260206004820152601e60248201527f536166654d6174683a207375627472616374696f6e206f766572666c6f770000604482015290519081900360640190fd5b50900390565b600082820183811015611221576040805162461bcd60e51b815260206004820152601b60248201527f536166654d6174683a206164646974696f6e206f766572666c6f770000000000604482015290519081900360640190fd5b9392505050565b600082611237575060006105e1565b8282028284828161124457fe5b04146112215760405162461bcd60e51b81526004018080602001828103825260218152602001806118676021913960400191505060405180910390fd5b60008082116112d7576040805162461bcd60e51b815260206004820152601a60248201527f536166654d6174683a206469766973696f6e206279207a65726f000000000000604482015290519081900360640190fd5b8183816112e057fe5b049392505050565b600154604080517f70a0823100000000000000000000000000000000000000000000000000000000815230600482015290516000926001600160a01b0316916370a08231916024808301926020929190829003018186803b15801561134c57600080fd5b505afa158015611360573d6000803e3d6000fd5b505050506040513d602081101561137657600080fd5b505190508015610b5357808211156113a45760015461139f906001600160a01b031684836113b7565b610b53565b600154610b53906001600160a01b031684845b604080516001600160a01b038416602482015260448082018490528251808303909101815260649091019091526020810180517bffffffffffffffffffffffffffffffffffffffffffffffffffffffff167fa9059cbb00000000000000000000000000000000000000000000000000000000179052610b5390849061155f565b60025460005b81811015610b5357826001600160a01b03166002828154811061145c57fe5b60009182526020909120600590910201546001600160a01b031614156114c9576040805162461bcd60e51b815260206004820181905260248201527f477261766547656e65736973506f6f6c3a206578697374696e6720706f6f6c3f604482015290519081900360640190fd5b60010161143d565b604080516001600160a01b0380861660248301528416604482015260648082018490528251808303909101815260849091019091526020810180517bffffffffffffffffffffffffffffffffffffffffffffffffffffffff167f23b872dd0000000000000000000000000000000000000000000000000000000017905261155990859061155f565b50505050565b60606115b4826040518060400160405280602081526020017f5361666545524332303a206c6f772d6c6576656c2063616c6c206661696c6564815250856001600160a01b03166116109092919063ffffffff16565b805190915015610b53578080602001905160208110156115d357600080fd5b5051610b535760405162461bcd60e51b815260040180806020018281038252602a815260200180611888602a913960400191505060405180910390fd5b606061161f8484600085611627565b949350505050565b6060824710156116685760405162461bcd60e51b81526004018080602001828103825260268152602001806118416026913960400191505060405180910390fd5b61167185611796565b6116c2576040805162461bcd60e51b815260206004820152601d60248201527f416464726573733a2063616c6c20746f206e6f6e2d636f6e7472616374000000604482015290519081900360640190fd5b60006060866001600160a01b031685876040518082805190602001908083835b6020831061171f57805182527fffffffffffffffffffffffffffffffffffffffffffffffffffffffffffffffe090920191602091820191016116e2565b6001836020036101000a03801982511681845116808217855250505050505090500191505060006040518083038185875af1925050503d8060008114611781576040519150601f19603f3d011682016040523d82523d6000602084013e611786565b606091505b5091509150610f5d82828661179c565b3b151590565b606083156117ab575081611221565b8251156117bb5782518084602001fd5b8160405162461bcd60e51b81526004018080602001828103825283818151815260200191508051906020019080838360005b838110156118055781810151838201526020016117ed565b50505050905090810190601f1680156118325780820380516001836020036101000a031916815260200191505b509250505060405180910390fdfe416464726573733a20696e73756666696369656e742062616c616e636520666f722063616c6c536166654d6174683a206d756c7469706c69636174696f6e206f766572666c6f775361666545524332303a204552433230206f7065726174696f6e20646964206e6f742073756363656564477261766547656e65736973506f6f6c3a2063616c6c6572206973206e6f7420746865206f70657261746f72a2646970667358221220df8158aa35f3f5739eff83041af8604a339d1e553c716ebf4d0adafaa30d243264736f6c634300060c0033",
  "devdoc": {
    "kind": "dev",
    "methods": {},
    "version": 1
  },
  "userdoc": {
    "kind": "user",
    "methods": {},
    "version": 1
  },
  "storageLayout": {
    "storage": [
      {
        "astId": 6531,
        "contract": "contracts/distribution/GraveGenesisRewardPool.sol:GraveGenesisRewardPool",
        "label": "operator",
        "offset": 0,
        "slot": "0",
        "type": "t_address"
      },
      {
        "astId": 6549,
        "contract": "contracts/distribution/GraveGenesisRewardPool.sol:GraveGenesisRewardPool",
        "label": "grave",
        "offset": 0,
        "slot": "1",
        "type": "t_contract(IERC20)1180"
      },
      {
        "astId": 6552,
        "contract": "contracts/distribution/GraveGenesisRewardPool.sol:GraveGenesisRewardPool",
        "label": "poolInfo",
        "offset": 0,
        "slot": "2",
        "type": "t_array(t_struct(PoolInfo)6547_storage)dyn_storage"
      },
      {
        "astId": 6558,
        "contract": "contracts/distribution/GraveGenesisRewardPool.sol:GraveGenesisRewardPool",
        "label": "userInfo",
        "offset": 0,
        "slot": "3",
        "type": "t_mapping(t_uint256,t_mapping(t_address,t_struct(UserInfo)6536_storage))"
      },
      {
        "astId": 6561,
        "contract": "contracts/distribution/GraveGenesisRewardPool.sol:GraveGenesisRewardPool",
        "label": "totalAllocPoint",
        "offset": 0,
        "slot": "4",
        "type": "t_uint256"
      },
      {
        "astId": 6563,
        "contract": "contracts/distribution/GraveGenesisRewardPool.sol:GraveGenesisRewardPool",
        "label": "poolStartTime",
        "offset": 0,
        "slot": "5",
        "type": "t_uint256"
      },
      {
        "astId": 6565,
        "contract": "contracts/distribution/GraveGenesisRewardPool.sol:GraveGenesisRewardPool",
        "label": "poolEndTime",
        "offset": 0,
        "slot": "6",
        "type": "t_uint256"
      },
      {
        "astId": 6568,
        "contract": "contracts/distribution/GraveGenesisRewardPool.sol:GraveGenesisRewardPool",
        "label": "gravePerSecond",
        "offset": 0,
        "slot": "7",
        "type": "t_uint256"
      },
      {
        "astId": 6571,
        "contract": "contracts/distribution/GraveGenesisRewardPool.sol:GraveGenesisRewardPool",
        "label": "runningTime",
        "offset": 0,
        "slot": "8",
        "type": "t_uint256"
      }
    ],
    "types": {
      "t_address": {
        "encoding": "inplace",
        "label": "address",
        "numberOfBytes": "20"
      },
      "t_array(t_struct(PoolInfo)6547_storage)dyn_storage": {
        "base": "t_struct(PoolInfo)6547_storage",
        "encoding": "dynamic_array",
        "label": "struct GraveGenesisRewardPool.PoolInfo[]",
        "numberOfBytes": "32"
      },
      "t_bool": {
        "encoding": "inplace",
        "label": "bool",
        "numberOfBytes": "1"
      },
      "t_contract(IERC20)1180": {
        "encoding": "inplace",
        "label": "contract IERC20",
        "numberOfBytes": "20"
      },
      "t_mapping(t_address,t_struct(UserInfo)6536_storage)": {
        "encoding": "mapping",
        "key": "t_address",
        "label": "mapping(address => struct GraveGenesisRewardPool.UserInfo)",
        "numberOfBytes": "32",
        "value": "t_struct(UserInfo)6536_storage"
      },
      "t_mapping(t_uint256,t_mapping(t_address,t_struct(UserInfo)6536_storage))": {
        "encoding": "mapping",
        "key": "t_uint256",
        "label": "mapping(uint256 => mapping(address => struct GraveGenesisRewardPool.UserInfo))",
        "numberOfBytes": "32",
        "value": "t_mapping(t_address,t_struct(UserInfo)6536_storage)"
      },
      "t_struct(PoolInfo)6547_storage": {
        "encoding": "inplace",
        "label": "struct GraveGenesisRewardPool.PoolInfo",
        "members": [
          {
            "astId": 6538,
            "contract": "contracts/distribution/GraveGenesisRewardPool.sol:GraveGenesisRewardPool",
            "label": "token",
            "offset": 0,
            "slot": "0",
            "type": "t_contract(IERC20)1180"
          },
          {
            "astId": 6540,
            "contract": "contracts/distribution/GraveGenesisRewardPool.sol:GraveGenesisRewardPool",
            "label": "allocPoint",
            "offset": 0,
            "slot": "1",
            "type": "t_uint256"
          },
          {
            "astId": 6542,
            "contract": "contracts/distribution/GraveGenesisRewardPool.sol:GraveGenesisRewardPool",
            "label": "lastRewardTime",
            "offset": 0,
            "slot": "2",
            "type": "t_uint256"
          },
          {
            "astId": 6544,
            "contract": "contracts/distribution/GraveGenesisRewardPool.sol:GraveGenesisRewardPool",
            "label": "accGravePerShare",
            "offset": 0,
            "slot": "3",
            "type": "t_uint256"
          },
          {
            "astId": 6546,
            "contract": "contracts/distribution/GraveGenesisRewardPool.sol:GraveGenesisRewardPool",
            "label": "isStarted",
            "offset": 0,
            "slot": "4",
            "type": "t_bool"
          }
        ],
        "numberOfBytes": "160"
      },
      "t_struct(UserInfo)6536_storage": {
        "encoding": "inplace",
        "label": "struct GraveGenesisRewardPool.UserInfo",
        "members": [
          {
            "astId": 6533,
            "contract": "contracts/distribution/GraveGenesisRewardPool.sol:GraveGenesisRewardPool",
            "label": "amount",
            "offset": 0,
            "slot": "0",
            "type": "t_uint256"
          },
          {
            "astId": 6535,
            "contract": "contracts/distribution/GraveGenesisRewardPool.sol:GraveGenesisRewardPool",
            "label": "rewardDebt",
            "offset": 0,
            "slot": "1",
            "type": "t_uint256"
          }
        ],
        "numberOfBytes": "64"
      },
      "t_uint256": {
        "encoding": "inplace",
        "label": "uint256",
        "numberOfBytes": "32"
      }
    }
  }
}