{
  "address": "0x8E29364296C2FA1BFd73D989b424B5f74930c039",
  "abi": [
    {
      "anonymous": false,
      "inputs": [
        {
          "indexed": false,
          "internalType": "uint256",
          "name": "timestamp",
          "type": "uint256"
        },
        {
          "indexed": false,
          "internalType": "uint256",
          "name": "seigniorage",
          "type": "uint256"
        }
      ],
      "name": "BoardroomFunded",
      "type": "event"
    },
    {
      "anonymous": false,
      "inputs": [
        {
          "indexed": true,
          "internalType": "address",
          "name": "from",
          "type": "address"
        },
        {
          "indexed": false,
          "internalType": "uint256",
          "name": "graveAmount",
          "type": "uint256"
        },
        {
          "indexed": false,
          "internalType": "uint256",
          "name": "bondAmount",
          "type": "uint256"
        }
      ],
      "name": "BoughtBonds",
      "type": "event"
    },
    {
      "anonymous": false,
      "inputs": [
        {
          "indexed": true,
          "internalType": "address",
          "name": "from",
          "type": "address"
        },
        {
          "indexed": false,
          "internalType": "uint256",
          "name": "bondAmount",
          "type": "uint256"
        }
      ],
      "name": "BurnedBonds",
      "type": "event"
    },
    {
      "anonymous": false,
      "inputs": [
        {
          "indexed": false,
          "internalType": "uint256",
          "name": "timestamp",
          "type": "uint256"
        },
        {
          "indexed": false,
          "internalType": "uint256",
          "name": "seigniorage",
          "type": "uint256"
        }
      ],
      "name": "DaoFundFunded",
      "type": "event"
    },
    {
      "anonymous": false,
      "inputs": [
        {
          "indexed": false,
          "internalType": "uint256",
          "name": "timestamp",
          "type": "uint256"
        },
        {
          "indexed": false,
          "internalType": "uint256",
          "name": "seigniorage",
          "type": "uint256"
        }
      ],
      "name": "DevFundFunded",
      "type": "event"
    },
    {
      "anonymous": false,
      "inputs": [
        {
          "indexed": true,
          "internalType": "address",
          "name": "executor",
          "type": "address"
        },
        {
          "indexed": false,
          "internalType": "uint256",
          "name": "at",
          "type": "uint256"
        }
      ],
      "name": "Initialized",
      "type": "event"
    },
    {
      "anonymous": false,
      "inputs": [
        {
          "indexed": true,
          "internalType": "address",
          "name": "from",
          "type": "address"
        },
        {
          "indexed": false,
          "internalType": "uint256",
          "name": "graveAmount",
          "type": "uint256"
        },
        {
          "indexed": false,
          "internalType": "uint256",
          "name": "bondAmount",
          "type": "uint256"
        }
      ],
      "name": "RedeemedBonds",
      "type": "event"
    },
    {
      "anonymous": false,
      "inputs": [
        {
          "indexed": false,
          "internalType": "uint256",
          "name": "timestamp",
          "type": "uint256"
        },
        {
          "indexed": false,
          "internalType": "uint256",
          "name": "seigniorage",
          "type": "uint256"
        }
      ],
      "name": "TreasuryFunded",
      "type": "event"
    },
    {
      "inputs": [],
      "name": "PERIOD",
      "outputs": [
        {
          "internalType": "uint256",
          "name": "",
          "type": "uint256"
        }
      ],
      "stateMutability": "view",
      "type": "function"
    },
    {
      "inputs": [],
      "name": "allocateSeigniorage",
      "outputs": [],
      "stateMutability": "nonpayable",
      "type": "function"
    },
    {
      "inputs": [],
      "name": "bondDepletionFloorPercent",
      "outputs": [
        {
          "internalType": "uint256",
          "name": "",
          "type": "uint256"
        }
      ],
      "stateMutability": "view",
      "type": "function"
    },
    {
      "inputs": [],
      "name": "bondSupplyExpansionPercent",
      "outputs": [
        {
          "internalType": "uint256",
          "name": "",
          "type": "uint256"
        }
      ],
      "stateMutability": "view",
      "type": "function"
    },
    {
      "inputs": [],
      "name": "bondTreasury",
      "outputs": [
        {
          "internalType": "address",
          "name": "",
          "type": "address"
        }
      ],
      "stateMutability": "view",
      "type": "function"
    },
    {
      "inputs": [],
      "name": "bootstrapEpochs",
      "outputs": [
        {
          "internalType": "uint256",
          "name": "",
          "type": "uint256"
        }
      ],
      "stateMutability": "view",
      "type": "function"
    },
    {
      "inputs": [],
      "name": "bootstrapSupplyExpansionPercent",
      "outputs": [
        {
          "internalType": "uint256",
          "name": "",
          "type": "uint256"
        }
      ],
      "stateMutability": "view",
      "type": "function"
    },
    {
      "inputs": [
        {
          "internalType": "uint256",
          "name": "_graveAmount",
          "type": "uint256"
        },
        {
          "internalType": "uint256",
          "name": "targetPrice",
          "type": "uint256"
        }
      ],
      "name": "buyBonds",
      "outputs": [],
      "stateMutability": "nonpayable",
      "type": "function"
    },
    {
      "inputs": [],
      "name": "daoFund",
      "outputs": [
        {
          "internalType": "address",
          "name": "",
          "type": "address"
        }
      ],
      "stateMutability": "view",
      "type": "function"
    },
    {
      "inputs": [],
      "name": "daoFundSharedPercent",
      "outputs": [
        {
          "internalType": "uint256",
          "name": "",
          "type": "uint256"
        }
      ],
      "stateMutability": "view",
      "type": "function"
    },
    {
      "inputs": [],
      "name": "devFund",
      "outputs": [
        {
          "internalType": "address",
          "name": "",
          "type": "address"
        }
      ],
      "stateMutability": "view",
      "type": "function"
    },
    {
      "inputs": [],
      "name": "devFundSharedPercent",
      "outputs": [
        {
          "internalType": "uint256",
          "name": "",
          "type": "uint256"
        }
      ],
      "stateMutability": "view",
      "type": "function"
    },
    {
      "inputs": [],
      "name": "discountPercent",
      "outputs": [
        {
          "internalType": "uint256",
          "name": "",
          "type": "uint256"
        }
      ],
      "stateMutability": "view",
      "type": "function"
    },
    {
      "inputs": [],
      "name": "epoch",
      "outputs": [
        {
          "internalType": "uint256",
          "name": "",
          "type": "uint256"
        }
      ],
      "stateMutability": "view",
      "type": "function"
    },
    {
      "inputs": [],
      "name": "epochSupplyContractionLeft",
      "outputs": [
        {
          "internalType": "uint256",
          "name": "",
          "type": "uint256"
        }
      ],
      "stateMutability": "view",
      "type": "function"
    },
    {
      "inputs": [
        {
          "internalType": "uint256",
          "name": "",
          "type": "uint256"
        }
      ],
      "name": "excludedFromTotalSupply",
      "outputs": [
        {
          "internalType": "address",
          "name": "",
          "type": "address"
        }
      ],
      "stateMutability": "view",
      "type": "function"
    },
    {
      "inputs": [],
      "name": "getBondDiscountRate",
      "outputs": [
        {
          "internalType": "uint256",
          "name": "_rate",
          "type": "uint256"
        }
      ],
      "stateMutability": "view",
      "type": "function"
    },
    {
      "inputs": [],
      "name": "getBondPremiumRate",
      "outputs": [
        {
          "internalType": "uint256",
          "name": "_rate",
          "type": "uint256"
        }
      ],
      "stateMutability": "view",
      "type": "function"
    },
    {
      "inputs": [],
      "name": "getBurnableGraveLeft",
      "outputs": [
        {
          "internalType": "uint256",
          "name": "_burnableGraveLeft",
          "type": "uint256"
        }
      ],
      "stateMutability": "view",
      "type": "function"
    },
    {
      "inputs": [],
      "name": "getGraveCirculatingSupply",
      "outputs": [
        {
          "internalType": "uint256",
          "name": "",
          "type": "uint256"
        }
      ],
      "stateMutability": "view",
      "type": "function"
    },
    {
      "inputs": [],
      "name": "getGravePrice",
      "outputs": [
        {
          "internalType": "uint256",
          "name": "gravePrice",
          "type": "uint256"
        }
      ],
      "stateMutability": "view",
      "type": "function"
    },
    {
      "inputs": [],
      "name": "getGraveUpdatedPrice",
      "outputs": [
        {
          "internalType": "uint256",
          "name": "_gravePrice",
          "type": "uint256"
        }
      ],
      "stateMutability": "view",
      "type": "function"
    },
    {
      "inputs": [],
      "name": "getRedeemableBonds",
      "outputs": [
        {
          "internalType": "uint256",
          "name": "_redeemableBonds",
          "type": "uint256"
        }
      ],
      "stateMutability": "view",
      "type": "function"
    },
    {
      "inputs": [],
      "name": "getReserve",
      "outputs": [
        {
          "internalType": "uint256",
          "name": "",
          "type": "uint256"
        }
      ],
      "stateMutability": "view",
      "type": "function"
    },
    {
      "inputs": [
        {
          "internalType": "contract IERC20",
          "name": "_token",
          "type": "address"
        },
        {
          "internalType": "uint256",
          "name": "_amount",
          "type": "uint256"
        },
        {
          "internalType": "address",
          "name": "_to",
          "type": "address"
        }
      ],
      "name": "governanceRecoverUnsupported",
      "outputs": [],
      "stateMutability": "nonpayable",
      "type": "function"
    },
    {
      "inputs": [],
      "name": "grave",
      "outputs": [
        {
          "internalType": "address",
          "name": "",
          "type": "address"
        }
      ],
      "stateMutability": "view",
      "type": "function"
    },
    {
      "inputs": [],
      "name": "graveOracle",
      "outputs": [
        {
          "internalType": "address",
          "name": "",
          "type": "address"
        }
      ],
      "stateMutability": "view",
      "type": "function"
    },
    {
      "inputs": [],
      "name": "gravePriceCeiling",
      "outputs": [
        {
          "internalType": "uint256",
          "name": "",
          "type": "uint256"
        }
      ],
      "stateMutability": "view",
      "type": "function"
    },
    {
      "inputs": [],
      "name": "gravePriceOne",
      "outputs": [
        {
          "internalType": "uint256",
          "name": "",
          "type": "uint256"
        }
      ],
      "stateMutability": "view",
      "type": "function"
    },
    {
      "inputs": [
        {
          "internalType": "address",
          "name": "_grave",
          "type": "address"
        },
        {
          "internalType": "address",
          "name": "_xbond",
          "type": "address"
        },
        {
          "internalType": "address",
          "name": "_xshare",
          "type": "address"
        },
        {
          "internalType": "address",
          "name": "_graveOracle",
          "type": "address"
        },
        {
          "internalType": "address",
          "name": "_masonry",
          "type": "address"
        },
        {
          "internalType": "address",
          "name": "_genesisPool",
          "type": "address"
        },
        {
          "internalType": "address",
          "name": "_bondTreasury",
          "type": "address"
        },
        {
          "internalType": "uint256",
          "name": "_startTime",
          "type": "uint256"
        }
      ],
      "name": "initialize",
      "outputs": [],
      "stateMutability": "nonpayable",
      "type": "function"
    },
    {
      "inputs": [],
      "name": "initialized",
      "outputs": [
        {
          "internalType": "bool",
          "name": "",
          "type": "bool"
        }
      ],
      "stateMutability": "view",
      "type": "function"
    },
    {
      "inputs": [],
      "name": "isInitialized",
      "outputs": [
        {
          "internalType": "bool",
          "name": "",
          "type": "bool"
        }
      ],
      "stateMutability": "view",
      "type": "function"
    },
    {
      "inputs": [],
      "name": "masonry",
      "outputs": [
        {
          "internalType": "address",
          "name": "",
          "type": "address"
        }
      ],
      "stateMutability": "view",
      "type": "function"
    },
    {
      "inputs": [
        {
          "internalType": "uint256",
          "name": "amount",
          "type": "uint256"
        }
      ],
      "name": "masonryAllocateSeigniorage",
      "outputs": [],
      "stateMutability": "nonpayable",
      "type": "function"
    },
    {
      "inputs": [
        {
          "internalType": "address",
          "name": "_token",
          "type": "address"
        },
        {
          "internalType": "uint256",
          "name": "_amount",
          "type": "uint256"
        },
        {
          "internalType": "address",
          "name": "_to",
          "type": "address"
        }
      ],
      "name": "masonryGovernanceRecoverUnsupported",
      "outputs": [],
      "stateMutability": "nonpayable",
      "type": "function"
    },
    {
      "inputs": [
        {
          "internalType": "uint256",
          "name": "_withdrawLockupEpochs",
          "type": "uint256"
        },
        {
          "internalType": "uint256",
          "name": "_rewardLockupEpochs",
          "type": "uint256"
        }
      ],
      "name": "masonrySetLockUp",
      "outputs": [],
      "stateMutability": "nonpayable",
      "type": "function"
    },
    {
      "inputs": [
        {
          "internalType": "address",
          "name": "_operator",
          "type": "address"
        }
      ],
      "name": "masonrySetOperator",
      "outputs": [],
      "stateMutability": "nonpayable",
      "type": "function"
    },
    {
      "inputs": [],
      "name": "maxDebtRatioPercent",
      "outputs": [
        {
          "internalType": "uint256",
          "name": "",
          "type": "uint256"
        }
      ],
      "stateMutability": "view",
      "type": "function"
    },
    {
      "inputs": [],
      "name": "maxDiscountRate",
      "outputs": [
        {
          "internalType": "uint256",
          "name": "",
          "type": "uint256"
        }
      ],
      "stateMutability": "view",
      "type": "function"
    },
    {
      "inputs": [
        {
          "internalType": "uint256",
          "name": "",
          "type": "uint256"
        }
      ],
      "name": "maxExpansionTiers",
      "outputs": [
        {
          "internalType": "uint256",
          "name": "",
          "type": "uint256"
        }
      ],
      "stateMutability": "view",
      "type": "function"
    },
    {
      "inputs": [],
      "name": "maxPremiumRate",
      "outputs": [
        {
          "internalType": "uint256",
          "name": "",
          "type": "uint256"
        }
      ],
      "stateMutability": "view",
      "type": "function"
    },
    {
      "inputs": [],
      "name": "maxSupplyContractionPercent",
      "outputs": [
        {
          "internalType": "uint256",
          "name": "",
          "type": "uint256"
        }
      ],
      "stateMutability": "view",
      "type": "function"
    },
    {
      "inputs": [],
      "name": "maxSupplyExpansionPercent",
      "outputs": [
        {
          "internalType": "uint256",
          "name": "",
          "type": "uint256"
        }
      ],
      "stateMutability": "view",
      "type": "function"
    },
    {
      "inputs": [],
      "name": "mintingFactorForPayingDebt",
      "outputs": [
        {
          "internalType": "uint256",
          "name": "",
          "type": "uint256"
        }
      ],
      "stateMutability": "view",
      "type": "function"
    },
    {
      "inputs": [],
      "name": "nextEpochPoint",
      "outputs": [
        {
          "internalType": "uint256",
          "name": "",
          "type": "uint256"
        }
      ],
      "stateMutability": "view",
      "type": "function"
    },
    {
      "inputs": [],
      "name": "operator",
      "outputs": [
        {
          "internalType": "address",
          "name": "",
          "type": "address"
        }
      ],
      "stateMutability": "view",
      "type": "function"
    },
    {
      "inputs": [],
      "name": "premiumPercent",
      "outputs": [
        {
          "internalType": "uint256",
          "name": "",
          "type": "uint256"
        }
      ],
      "stateMutability": "view",
      "type": "function"
    },
    {
      "inputs": [],
      "name": "premiumThreshold",
      "outputs": [
        {
          "internalType": "uint256",
          "name": "",
          "type": "uint256"
        }
      ],
      "stateMutability": "view",
      "type": "function"
    },
    {
      "inputs": [],
      "name": "previousEpochGravePrice",
      "outputs": [
        {
          "internalType": "uint256",
          "name": "",
          "type": "uint256"
        }
      ],
      "stateMutability": "view",
      "type": "function"
    },
    {
      "inputs": [
        {
          "internalType": "uint256",
          "name": "_bondAmount",
          "type": "uint256"
        },
        {
          "internalType": "uint256",
          "name": "targetPrice",
          "type": "uint256"
        }
      ],
      "name": "redeemBonds",
      "outputs": [],
      "stateMutability": "nonpayable",
      "type": "function"
    },
    {
      "inputs": [],
      "name": "seigniorageExpansionFloorPercent",
      "outputs": [
        {
          "internalType": "uint256",
          "name": "",
          "type": "uint256"
        }
      ],
      "stateMutability": "view",
      "type": "function"
    },
    {
      "inputs": [],
      "name": "seigniorageSaved",
      "outputs": [
        {
          "internalType": "uint256",
          "name": "",
          "type": "uint256"
        }
      ],
      "stateMutability": "view",
      "type": "function"
    },
    {
      "inputs": [
        {
          "internalType": "address",
          "name": "_masonry",
          "type": "address"
        }
      ],
      "name": "setBoardroom",
      "outputs": [],
      "stateMutability": "nonpayable",
      "type": "function"
    },
    {
      "inputs": [
        {
          "internalType": "uint256",
          "name": "_bondDepletionFloorPercent",
          "type": "uint256"
        }
      ],
      "name": "setBondDepletionFloorPercent",
      "outputs": [],
      "stateMutability": "nonpayable",
      "type": "function"
    },
    {
      "inputs": [
        {
          "internalType": "uint256",
          "name": "_bondSupplyExpansionPercent",
          "type": "uint256"
        }
      ],
      "name": "setBondSupplyExpansionPercent",
      "outputs": [],
      "stateMutability": "nonpayable",
      "type": "function"
    },
    {
      "inputs": [
        {
          "internalType": "address",
          "name": "_bondTreasury",
          "type": "address"
        }
      ],
      "name": "setBondTreasury",
      "outputs": [],
      "stateMutability": "nonpayable",
      "type": "function"
    },
    {
      "inputs": [
        {
          "internalType": "uint256",
          "name": "_bootstrapEpochs",
          "type": "uint256"
        },
        {
          "internalType": "uint256",
          "name": "_bootstrapSupplyExpansionPercent",
          "type": "uint256"
        }
      ],
      "name": "setBootstrap",
      "outputs": [],
      "stateMutability": "nonpayable",
      "type": "function"
    },
    {
      "inputs": [
        {
          "internalType": "uint256",
          "name": "_discountPercent",
          "type": "uint256"
        }
      ],
      "name": "setDiscountPercent",
      "outputs": [],
      "stateMutability": "nonpayable",
      "type": "function"
    },
    {
      "inputs": [
        {
          "internalType": "address",
          "name": "_daoFund",
          "type": "address"
        },
        {
          "internalType": "uint256",
          "name": "_daoFundSharedPercent",
          "type": "uint256"
        },
        {
          "internalType": "address",
          "name": "_devFund",
          "type": "address"
        },
        {
          "internalType": "uint256",
          "name": "_devFundSharedPercent",
          "type": "uint256"
        }
      ],
      "name": "setExtraFunds",
      "outputs": [],
      "stateMutability": "nonpayable",
      "type": "function"
    },
    {
      "inputs": [
        {
          "internalType": "address",
          "name": "_graveOracle",
          "type": "address"
        }
      ],
      "name": "setGraveOracle",
      "outputs": [],
      "stateMutability": "nonpayable",
      "type": "function"
    },
    {
      "inputs": [
        {
          "internalType": "uint256",
          "name": "_gravePriceCeiling",
          "type": "uint256"
        }
      ],
      "name": "setGravePriceCeiling",
      "outputs": [],
      "stateMutability": "nonpayable",
      "type": "function"
    },
    {
      "inputs": [
        {
          "internalType": "uint256",
          "name": "_maxDebtRatioPercent",
          "type": "uint256"
        }
      ],
      "name": "setMaxDebtRatioPercent",
      "outputs": [],
      "stateMutability": "nonpayable",
      "type": "function"
    },
    {
      "inputs": [
        {
          "internalType": "uint256",
          "name": "_maxDiscountRate",
          "type": "uint256"
        }
      ],
      "name": "setMaxDiscountRate",
      "outputs": [],
      "stateMutability": "nonpayable",
      "type": "function"
    },
    {
      "inputs": [
        {
          "internalType": "uint8",
          "name": "_index",
          "type": "uint8"
        },
        {
          "internalType": "uint256",
          "name": "_value",
          "type": "uint256"
        }
      ],
      "name": "setMaxExpansionTiersEntry",
      "outputs": [
        {
          "internalType": "bool",
          "name": "",
          "type": "bool"
        }
      ],
      "stateMutability": "nonpayable",
      "type": "function"
    },
    {
      "inputs": [
        {
          "internalType": "uint256",
          "name": "_maxPremiumRate",
          "type": "uint256"
        }
      ],
      "name": "setMaxPremiumRate",
      "outputs": [],
      "stateMutability": "nonpayable",
      "type": "function"
    },
    {
      "inputs": [
        {
          "internalType": "uint256",
          "name": "_maxSupplyContractionPercent",
          "type": "uint256"
        }
      ],
      "name": "setMaxSupplyContractionPercent",
      "outputs": [],
      "stateMutability": "nonpayable",
      "type": "function"
    },
    {
      "inputs": [
        {
          "internalType": "uint256",
          "name": "_maxSupplyExpansionPercent",
          "type": "uint256"
        }
      ],
      "name": "setMaxSupplyExpansionPercents",
      "outputs": [],
      "stateMutability": "nonpayable",
      "type": "function"
    },
    {
      "inputs": [
        {
          "internalType": "uint256",
          "name": "_mintingFactorForPayingDebt",
          "type": "uint256"
        }
      ],
      "name": "setMintingFactorForPayingDebt",
      "outputs": [],
      "stateMutability": "nonpayable",
      "type": "function"
    },
    {
      "inputs": [
        {
          "internalType": "address",
          "name": "_operator",
          "type": "address"
        }
      ],
      "name": "setOperator",
      "outputs": [],
      "stateMutability": "nonpayable",
      "type": "function"
    },
    {
      "inputs": [
        {
          "internalType": "uint256",
          "name": "_premiumPercent",
          "type": "uint256"
        }
      ],
      "name": "setPremiumPercent",
      "outputs": [],
      "stateMutability": "nonpayable",
      "type": "function"
    },
    {
      "inputs": [
        {
          "internalType": "uint256",
          "name": "_premiumThreshold",
          "type": "uint256"
        }
      ],
      "name": "setPremiumThreshold",
      "outputs": [],
      "stateMutability": "nonpayable",
      "type": "function"
    },
    {
      "inputs": [
        {
          "internalType": "uint8",
          "name": "_index",
          "type": "uint8"
        },
        {
          "internalType": "uint256",
          "name": "_value",
          "type": "uint256"
        }
      ],
      "name": "setSupplyTiersEntry",
      "outputs": [
        {
          "internalType": "bool",
          "name": "",
          "type": "bool"
        }
      ],
      "stateMutability": "nonpayable",
      "type": "function"
    },
    {
      "inputs": [],
      "name": "startTime",
      "outputs": [
        {
          "internalType": "uint256",
          "name": "",
          "type": "uint256"
        }
      ],
      "stateMutability": "view",
      "type": "function"
    },
    {
      "inputs": [
        {
          "internalType": "uint256",
          "name": "",
          "type": "uint256"
        }
      ],
      "name": "supplyTiers",
      "outputs": [
        {
          "internalType": "uint256",
          "name": "",
          "type": "uint256"
        }
      ],
      "stateMutability": "view",
      "type": "function"
    },
    {
      "inputs": [],
      "name": "xbond",
      "outputs": [
        {
          "internalType": "address",
          "name": "",
          "type": "address"
        }
      ],
      "stateMutability": "view",
      "type": "function"
    },
    {
      "inputs": [],
      "name": "xshare",
      "outputs": [
        {
          "internalType": "address",
          "name": "",
          "type": "address"
        }
      ],
      "stateMutability": "view",
      "type": "function"
    }
  ],
  "transactionHash": "0xe79248e75d0e5fb0ead239eddcec548769720ec306ddb35a69f3cd3a916081e8",
  "args": [],
  "numDeployments": 1,
  "solcInputHash": "f9666cba4229220d8020540f3eae3bd9",
  "bytecode": "0x60806040526001805460ff60a01b191690556000600381905560045534801561002757600080fd5b50614fc5806100376000396000f3fe608060405234801561001057600080fd5b50600436106105145760003560e01c806381d11eaf116102a1578063b4a5e9281161016b578063d4b14944116100e3578063f14698de11610097578063fb260df11161007c578063fb260df114610b16578063fcb6f00814610b1e578063ffff6dfb14610b2657610514565b8063f14698de14610af1578063f245245a14610af957610514565b8063da3ed419116100c8578063da3ed41914610ac4578063e90b245414610acc578063e9c2ce1114610ad457610514565b8063d4b1494414610a96578063d98f249514610abc57610514565b8063be266d541161013a578063c8412d021161011f578063c8412d0214610a69578063c8f987f314610a71578063cecce38e14610a7957610514565b8063be266d5414610a44578063c5967c2614610a6157610514565b8063b4a5e928146109f2578063b4d1d795146109fa578063b8a878f914610a02578063bcc81f1914610a0a57610514565b8063951357d411610219578063a204452b116101cd578063b2a5fd81116101b2578063b2a5fd811461099e578063b3ab15fb146109a6578063b3ffc777146109cc57610514565b8063a204452b14610979578063a41cd0341461099657610514565b806399820025116101fe57806399820025146109375780639ab4f77514610954578063a0487eea1461095c57610514565b8063951357d4146108e457806398b762a11461091a57610514565b80638c664db611610270578063900cf0cf11610255578063900cf0cf1461089357806391bbfed51461089b578063940e6064146108be57610514565b80638c664db61461086e5780638d934f741461088b57610514565b806381d11eaf146107e457806382cad838146107ec578063874106cc14610809578063883019111461081157610514565b80634390d2a8116103e25780635b7561791161035a5780636deec4731161030e57806372c054f9116102f357806372c054f9146107b1578063734f7096146107b957806378e97925146107dc57610514565b80636deec473146107a15780636e5973f1146107a957610514565b806362ac58e41161033f57806362ac58e41461076b57806363f96cf41461079157806366c17ead1461079957610514565b80635b7561791461075b5780635b86d8591461076357610514565b806355ebdeef116103b1578063591663e111610396578063591663e11461072e57806359bf5d391461074b5780635a0fc79c1461075357610514565b806355ebdeef1461071e578063570ca7351461072657610514565b80634390d2a8146106a0578063499f3f19146106a857806354575af4146106c557806354f04a11146106fb57610514565b8063154ec2db11610490578063349aa30a116104445780634013a08e116104295780634013a08e1461067357806340af7ba51461067b5780634363f6541461069857610514565b8063349aa30a14610663578063392e53cd1461066b57610514565b806322f832cd1161047557806322f832cd1461064b57806329ef1919146106535780632e9c7b651461065b57610514565b8063154ec2db14610612578063158ef93e1461062f57610514565b80630a79c951116104e75780630cf60175116104cc5780630cf60175146105df5780630db7eb0b146105e7578063118ebbf9146105ef57610514565b80630a79c9511461059c5780630b5bcec7146105c257610514565b806303be7e761461051957806304e5c7b11461053357806307e36ee3146105525780630945958214610576575b600080fd5b610521610b2e565b60408051918252519081900360200190f35b6105506004803603602081101561054957600080fd5b5035610b34565b005b61055a610c03565b604080516001600160a01b039092168252519081900360200190f35b6105506004803603602081101561058c57600080fd5b50356001600160a01b0316610c12565b610550600480360360208110156105b257600080fd5b50356001600160a01b0316610c8a565b610550600480360360208110156105d857600080fd5b5035610d02565b610521610d9e565b610521610e50565b6105506004803603604081101561060557600080fd5b5080359060200135610ef2565b6105506004803603602081101561062857600080fd5b5035611585565b61063761162a565b604080519115158252519081900360200190f35b61052161164b565b610521611651565b610521611657565b61052161165d565b610637611663565b610521611685565b6105506004803603602081101561069157600080fd5b503561168b565b61055a611730565b61055a61173f565b610550600480360360208110156106be57600080fd5b503561174e565b610550600480360360608110156106db57600080fd5b506001600160a01b038135811691602081013591604090910135166117eb565b6105506004803603604081101561071157600080fd5b5080359060200135611978565b6105216120f7565b61055a6120fd565b6105506004803603602081101561074457600080fd5b503561210c565b6105216121bf565b6105216121c5565b6105506121cb565b6105216128d6565b6105506004803603602081101561078157600080fd5b50356001600160a01b03166128dc565b61055a6129a7565b6105216129b6565b61055a612aac565b610521612abb565b610521612ac1565b610550600480360360408110156107cf57600080fd5b5080359060200135612b9a565b610521612c6c565b610521612c72565b61055a6004803603602081101561080257600080fd5b5035612c78565b610521612c9f565b610550600480360361010081101561082857600080fd5b506001600160a01b038135811691602081013582169160408201358116916060810135821691608082013581169160a081013582169160c0820135169060e00135612ca5565b6105506004803603602081101561088457600080fd5b5035613088565b61055a61313b565b61052161314a565b610550600480360360408110156108b157600080fd5b5080359060200135613150565b610637600480360360408110156108d457600080fd5b5060ff8135169060200135613248565b610550600480360360608110156108fa57600080fd5b506001600160a01b03813581169160208101359160409091013516613364565b6105506004803603602081101561093057600080fd5b5035613440565b6105216004803603602081101561094d57600080fd5b503561348e565b61055a6134ac565b6105216004803603602081101561097257600080fd5b50356134bb565b6105506004803603602081101561098f57600080fd5b50356134c8565b61055a613516565b610521613525565b610550600480360360208110156109bc57600080fd5b50356001600160a01b031661362c565b610550600480360360208110156109e257600080fd5b50356001600160a01b03166136a4565b61052161371c565b610521613722565b610521613728565b61055060048036036080811015610a2057600080fd5b506001600160a01b038135811691602081013591604082013516906060013561372e565b61055060048036036020811015610a5a57600080fd5b5035613924565b6105216139d3565b6105216139fd565b610521613a03565b61055060048036036020811015610a8f57600080fd5b5035613a09565b61063760048036036040811015610aac57600080fd5b5060ff8135169060200135613abb565b610521613bbe565b610521613bc4565b610521613bca565b61055060048036036020811015610aea57600080fd5b5035613bd0565b610521613c9b565b61055060048036036020811015610b0f57600080fd5b5035613ca1565b610521613cef565b610521613d6a565b610521613d70565b60235481565b6001546001600160a01b03163314610b7d5760405162461bcd60e51b8152600401808060200182810382526024815260200180614e636024913960400191505060405180910390fd5b600d54811015610bbe5760405162461bcd60e51b815260040180806020018281038252602b815260200180614f0d602b913960400191505060405180910390fd5b6096811115610bfe5760405162461bcd60e51b8152600401808060200182810382526024815260200180614cbf6024913960400191505060405180910390fd5b601d55565b6008546001600160a01b031681565b6001546001600160a01b03163314610c5b5760405162461bcd60e51b8152600401808060200182810382526024815260200180614e636024913960400191505060405180910390fd5b600b805473ffffffffffffffffffffffffffffffffffffffff19166001600160a01b0392909216919091179055565b6001546001600160a01b03163314610cd35760405162461bcd60e51b8152600401808060200182810382526024815260200180614e636024913960400191505060405180910390fd5b600a805473ffffffffffffffffffffffffffffffffffffffff19166001600160a01b0392909216919091179055565b6001546001600160a01b03163314610d4b5760405162461bcd60e51b8152600401808060200182810382526024815260200180614e636024913960400191505060405180910390fd5b600a8110158015610d5e57506103e88111155b610d995760405162461bcd60e51b8152600401808060200182810382526028815260200180614ddb6028913960400191505060405180910390fd5b601155565b600080610da9613cef565b9050600c548111610e4c57601c54610dc557600c549150610e4c565b6000610dee82610de8670de0b6b3a7640000600c54613ee190919063ffffffff16565b90613f41565b90506000610e19612710610de8601c54610e13600c5487613fa890919063ffffffff16565b90613ee1565b600c54909150610e299082614005565b93506000601a54118015610e3e5750601a5484115b15610e4957601a5493505b50505b5090565b600080610e5b613cef565b9050600d54811115610e4c576000610e856064610de8601d54600c54613ee190919063ffffffff16565b9050808210610ee7576000610eb1612710610de8601e54610e13600c5488613fa890919063ffffffff16565b600c54909150610ec19082614005565b93506000601b54118015610ed65750601b5484115b15610ee157601b5493505b50610eed565b600c5492505b505090565b610efa61405f565b15610f365760405162461bcd60e51b8152600401808060200182810382526026815260200180614eb16026913960400191505060405180910390fd5b610f3e61407e565b15610f7a5760405162461bcd60e51b8152600401808060200182810382526026815260200180614eb16026913960400191505060405180910390fd5b600254421015610fd1576040805162461bcd60e51b815260206004820152601960248201527f54726561737572793a206e6f7420737461727465642079657400000000000000604482015290519081900360640190fd5b6006546040805163570ca73560e01b8152905130926001600160a01b03169163570ca735916004808301926020929190829003018186803b15801561101557600080fd5b505afa158015611029573d6000803e3d6000fd5b505050506040513d602081101561103f57600080fd5b50516001600160a01b03161480156110cd57506007546040805163570ca73560e01b8152905130926001600160a01b03169163570ca735916004808301926020929190829003018186803b15801561109657600080fd5b505afa1580156110aa573d6000803e3d6000fd5b505050506040513d60208110156110c057600080fd5b50516001600160a01b0316145b801561114f57506008546040805163570ca73560e01b8152905130926001600160a01b03169163570ca735916004808301926020929190829003018186803b15801561111857600080fd5b505afa15801561112c573d6000803e3d6000fd5b505050506040513d602081101561114257600080fd5b50516001600160a01b0316145b80156111d157506009546040805163570ca73560e01b8152905130926001600160a01b03169163570ca735916004808301926020929190829003018186803b15801561119a57600080fd5b505afa1580156111ae573d6000803e3d6000fd5b505050506040513d60208110156111c457600080fd5b50516001600160a01b0316145b611222576040805162461bcd60e51b815260206004820152601e60248201527f54726561737572793a206e656564206d6f7265207065726d697373696f6e0000604482015290519081900360640190fd5b600082116112615760405162461bcd60e51b815260040180806020018281038252602e815260200180614c91602e913960400191505060405180910390fd5b600061126b613cef565b90508181146112c1576040805162461bcd60e51b815260206004820152601b60248201527f54726561737572793a204752415645207072696365206d6f7665640000000000604482015290519081900360640190fd5b600d5481116113015760405162461bcd60e51b8152600401808060200182810382526033815260200180614d7f6033913960400191505060405180910390fd5b600061130b610e50565b905060008111611362576040805162461bcd60e51b815260206004820152601b60248201527f54726561737572793a20696e76616c696420626f6e6420726174650000000000604482015290519081900360640190fd5b600061137a670de0b6b3a7640000610de88785613ee1565b600654604080517f70a08231000000000000000000000000000000000000000000000000000000008152306004820152905192935083926001600160a01b03909216916370a0823191602480820192602092909190829003018186803b1580156113e357600080fd5b505afa1580156113f7573d6000803e3d6000fd5b505050506040513d602081101561140d57600080fd5b5051101561144c5760405162461bcd60e51b8152600401808060200182810382526025815260200180614d096025913960400191505060405180910390fd5b61146461145b600e548361409d565b600e5490613fa8565b600e55600754604080517f79cc67900000000000000000000000000000000000000000000000000000000081523360048201526024810188905290516001600160a01b03909216916379cc67909160448082019260009290919082900301818387803b1580156114d357600080fd5b505af11580156114e7573d6000803e3d6000fd5b505060065461150392506001600160a01b0316905033836140b3565b61150b614133565b6040805182815260208101879052815133927f51e0d16595cabc591e64da08e45bb223577e5b9a39cd947b4ddc3472b2dd8878928290030190a25050436000908152602081815260408083203284529091528082208054600160ff1991821681179092553384529190922080549091169091179055505050565b6001546001600160a01b031633146115ce5760405162461bcd60e51b8152600401808060200182810382526024815260200180614e636024913960400191505060405180910390fd5b614e20811115611625576040805162461bcd60e51b815260206004820152601d60248201527f5f646973636f756e7450657263656e74206973206f7665722032303025000000604482015290519081900360640190fd5b601c55565b60015474010000000000000000000000000000000000000000900460ff1681565b60135481565b601c5481565b601b5481565b60165481565b60015474010000000000000000000000000000000000000000900460ff165b90565b601f5481565b6001546001600160a01b031633146116d45760405162461bcd60e51b8152600401808060200182810382526024815260200180614e636024913960400191505060405180910390fd5b614e2081111561172b576040805162461bcd60e51b815260206004820152601c60248201527f5f7072656d69756d50657263656e74206973206f766572203230302500000000604482015290519081900360640190fd5b601e55565b6007546001600160a01b031681565b6022546001600160a01b031681565b6001546001600160a01b031633146117975760405162461bcd60e51b8152600401808060200182810382526024815260200180614e636024913960400191505060405180910390fd5b61271081101580156117ab5750614e208111155b6117e65760405162461bcd60e51b8152600401808060200182810382526029815260200180614db26029913960400191505060405180910390fd5b601f55565b6001546001600160a01b031633146118345760405162461bcd60e51b8152600401808060200182810382526024815260200180614e636024913960400191505060405180910390fd5b6006546001600160a01b0384811691161415611897576040805162461bcd60e51b815260206004820152600560248201527f6772617665000000000000000000000000000000000000000000000000000000604482015290519081900360640190fd5b6007546001600160a01b03848116911614156118fc576040805162461bcd60e51b8152602060048083019190915260248201527f626f6e6400000000000000000000000000000000000000000000000000000000604482015290519081900360640190fd5b6008546001600160a01b038481169116141561195f576040805162461bcd60e51b815260206004820152600560248201527f7368617265000000000000000000000000000000000000000000000000000000604482015290519081900360640190fd5b6119736001600160a01b03841682846140b3565b505050565b61198061405f565b156119bc5760405162461bcd60e51b8152600401808060200182810382526026815260200180614eb16026913960400191505060405180910390fd5b6119c461407e565b15611a005760405162461bcd60e51b8152600401808060200182810382526026815260200180614eb16026913960400191505060405180910390fd5b600254421015611a57576040805162461bcd60e51b815260206004820152601960248201527f54726561737572793a206e6f7420737461727465642079657400000000000000604482015290519081900360640190fd5b6006546040805163570ca73560e01b8152905130926001600160a01b03169163570ca735916004808301926020929190829003018186803b158015611a9b57600080fd5b505afa158015611aaf573d6000803e3d6000fd5b505050506040513d6020811015611ac557600080fd5b50516001600160a01b0316148015611b5357506007546040805163570ca73560e01b8152905130926001600160a01b03169163570ca735916004808301926020929190829003018186803b158015611b1c57600080fd5b505afa158015611b30573d6000803e3d6000fd5b505050506040513d6020811015611b4657600080fd5b50516001600160a01b0316145b8015611bd557506008546040805163570ca73560e01b8152905130926001600160a01b03169163570ca735916004808301926020929190829003018186803b158015611b9e57600080fd5b505afa158015611bb2573d6000803e3d6000fd5b505050506040513d6020811015611bc857600080fd5b50516001600160a01b0316145b8015611c5757506009546040805163570ca73560e01b8152905130926001600160a01b03169163570ca735916004808301926020929190829003018186803b158015611c2057600080fd5b505afa158015611c34573d6000803e3d6000fd5b505050506040513d6020811015611c4a57600080fd5b50516001600160a01b0316145b611ca8576040805162461bcd60e51b815260206004820152601e60248201527f54726561737572793a206e656564206d6f7265207065726d697373696f6e0000604482015290519081900360640190fd5b60008211611ce75760405162461bcd60e51b8152600401808060200182810382526030815260200180614d4f6030913960400191505060405180910390fd5b6000611cf1613cef565b9050818114611d47576040805162461bcd60e51b815260206004820152601b60248201527f54726561737572793a204752415645207072696365206d6f7665640000000000604482015290519081900360640190fd5b600c548110611d875760405162461bcd60e51b8152600401808060200182810382526033815260200180614d7f6033913960400191505060405180910390fd5b600454831115611dc85760405162461bcd60e51b815260040180806020018281038252602a815260200180614f38602a913960400191505060405180910390fd5b6000611dd2610d9e565b905060008111611e29576040805162461bcd60e51b815260206004820152601b60248201527f54726561737572793a20696e76616c696420626f6e6420726174650000000000604482015290519081900360640190fd5b6000611e41670de0b6b3a7640000610de88785613ee1565b90506000611e4d613d70565b90506000611ed583600760009054906101000a90046001600160a01b03166001600160a01b03166318160ddd6040518163ffffffff1660e01b815260040160206040518083038186803b158015611ea357600080fd5b505afa158015611eb7573d6000803e3d6000fd5b505050506040513d6020811015611ecd57600080fd5b505190614005565b9050611ef2612710610de860155485613ee190919063ffffffff16565b811115611f46576040805162461bcd60e51b815260206004820152601360248201527f6f766572206d6178206465627420726174696f00000000000000000000000000604482015290519081900360640190fd5b600654604080517f79cc6790000000000000000000000000000000000000000000000000000000008152336004820152602481018a905290516001600160a01b03909216916379cc67909160448082019260009290919082900301818387803b158015611fb257600080fd5b505af1158015611fc6573d6000803e3d6000fd5b5050600754604080517f40c10f190000000000000000000000000000000000000000000000000000000081523360048201526024810188905290516001600160a01b0390921693506340c10f1992506044808201926020929091908290030181600087803b15801561203757600080fd5b505af115801561204b573d6000803e3d6000fd5b505050506040513d602081101561206157600080fd5b50506004546120709088613fa8565b60045561207b614133565b6040805188815260208101859052815133927f73017f1b70789e2e66759eeb3c7ec11f59e6eedb55d921cfaec5410dd42a4799928290030190a25050436000908152602081815260408083203284529091528082208054600160ff19918216811790925533845291909220805490911690911790555050505050565b60215481565b6001546001600160a01b031681565b6001546001600160a01b031633146121555760405162461bcd60e51b8152600401808060200182810382526024815260200180614e636024913960400191505060405180910390fd5b6103e8811015801561216957506127108111155b6121ba576040805162461bcd60e51b815260206004820152600c60248201527f6f7574206f662072616e67650000000000000000000000000000000000000000604482015290519081900360640190fd5b601555565b600e5490565b600e5481565b6121d361405f565b1561220f5760405162461bcd60e51b8152600401808060200182810382526026815260200180614eb16026913960400191505060405180910390fd5b61221761407e565b156122535760405162461bcd60e51b8152600401808060200182810382526026815260200180614eb16026913960400191505060405180910390fd5b6002544210156122aa576040805162461bcd60e51b815260206004820152601960248201527f54726561737572793a206e6f7420737461727465642079657400000000000000604482015290519081900360640190fd5b6122b26139d3565b421015612306576040805162461bcd60e51b815260206004820152601860248201527f54726561737572793a206e6f74206f70656e6564207965740000000000000000604482015290519081900360640190fd5b6006546040805163570ca73560e01b8152905130926001600160a01b03169163570ca735916004808301926020929190829003018186803b15801561234a57600080fd5b505afa15801561235e573d6000803e3d6000fd5b505050506040513d602081101561237457600080fd5b50516001600160a01b031614801561240257506007546040805163570ca73560e01b8152905130926001600160a01b03169163570ca735916004808301926020929190829003018186803b1580156123cb57600080fd5b505afa1580156123df573d6000803e3d6000fd5b505050506040513d60208110156123f557600080fd5b50516001600160a01b0316145b801561248457506008546040805163570ca73560e01b8152905130926001600160a01b03169163570ca735916004808301926020929190829003018186803b15801561244d57600080fd5b505afa158015612461573d6000803e3d6000fd5b505050506040513d602081101561247757600080fd5b50516001600160a01b0316145b801561250657506009546040805163570ca73560e01b8152905130926001600160a01b03169163570ca735916004808301926020929190829003018186803b1580156124cf57600080fd5b505afa1580156124e3573d6000803e3d6000fd5b505050506040513d60208110156124f957600080fd5b50516001600160a01b0316145b612557576040805162461bcd60e51b815260206004820152601e60248201527f54726561737572793a206e656564206d6f7265207065726d697373696f6e0000604482015290519081900360640190fd5b61255f614133565b612567613cef565b601955600e546000906125829061257c613d70565b90613fa8565b90506125a76125a2612710610de860165485613ee190919063ffffffff16565b614197565b60175460035410156125db576125d66125d1612710610de860185485613ee190919063ffffffff16565b61437f565b61285a565b600d54601954111561285a57600754604080517f18160ddd00000000000000000000000000000000000000000000000000000000815290516000926001600160a01b0316916318160ddd916004808301926020929190829003018186803b15801561264557600080fd5b505afa158015612659573d6000803e3d6000fd5b505050506040513d602081101561266f57600080fd5b5051600c5460195491925060009161268691613fa8565b905060008060006126a0655af3107a4000610e1388614723565b9050808411156126ae578093505b6126c9612710610de860125488613ee190919063ffffffff16565b600e54106126ee576126e7670de0b6b3a7640000610de88887613ee1565b915061275a565b6000612706670de0b6b3a7640000610de88988613ee1565b9050612723612710610de860135484613ee190919063ffffffff16565b925061272f8184613fa8565b601f549094501561275857612755612710610de8601f5487613ee190919063ffffffff16565b93505b505b8115612769576127698261437f565b821561285457600e5461277c9084614005565b600e55600654604080517f40c10f190000000000000000000000000000000000000000000000000000000081523060048201526024810186905290516001600160a01b03909216916340c10f19916044808201926020929091908290030181600087803b1580156127ec57600080fd5b505af1158015612800573d6000803e3d6000fd5b505050506040513d602081101561281657600080fd5b5050604080514281526020810185905281517ff705142bf09f04297640495ddf7c59b7fd6f51894c5aea9602d631cf05f0efc2929181900390910190a15b50505050505b50600354612869906001614005565b600355600d54612877613cef565b1161289557612890612710610de8601454610e13613d70565b612898565b60005b600455436000908152602081815260408083203284529091528082208054600160ff1991821681179092553384529190922080549091169091179055565b600c5481565b6001546001600160a01b031633146129255760405162461bcd60e51b8152600401808060200182810382526024815260200180614e636024913960400191505060405180910390fd5b600954604080517fb3ab15fb0000000000000000000000000000000000000000000000000000000081526001600160a01b0384811660048301529151919092169163b3ab15fb91602480830192600092919082900301818387803b15801561298c57600080fd5b505af11580156129a0573d6000803e3d6000fd5b5050505050565b6009546001600160a01b031681565b600b54600654604080517f6808a1280000000000000000000000000000000000000000000000000000000081526001600160a01b039283166004820152670de0b6b3a7640000602482015290516000939290921691636808a12891604480820192602092909190829003018186803b158015612a3157600080fd5b505afa925050508015612a5657506040513d6020811015612a5157600080fd5b505160015b612a915760405162461bcd60e51b8152600401808060200182810382526037815260200180614e2c6037913960400191505060405180910390fd5b71ffffffffffffffffffffffffffffffffffff169050611682565b600b546001600160a01b031681565b60195481565b600080612acc613cef565b9050600d54811115610e4c57600654604080517f70a0823100000000000000000000000000000000000000000000000000000000815230600482015290516000926001600160a01b0316916370a08231916024808301926020929190829003018186803b158015612b3c57600080fd5b505afa158015612b50573d6000803e3d6000fd5b505050506040513d6020811015612b6657600080fd5b505190506000612b74610e50565b90508015610e4957612b9281610de884670de0b6b3a7640000613ee1565b935050505090565b6001546001600160a01b03163314612be35760405162461bcd60e51b8152600401808060200182810382526024815260200180614e636024913960400191505060405180910390fd5b600954604080517f2ffaaa09000000000000000000000000000000000000000000000000000000008152600481018590526024810184905290516001600160a01b0390921691632ffaaa099160448082019260009290919082900301818387803b158015612c5057600080fd5b505af1158015612c64573d6000803e3d6000fd5b505050505050565b60025481565b60125481565b60058181548110612c8557fe5b6000918252602090912001546001600160a01b0316905081565b60185481565b60015474010000000000000000000000000000000000000000900460ff1615612d15576040805162461bcd60e51b815260206004820152601d60248201527f54726561737572793a20616c726561647920696e697469616c697a6564000000604482015290519081900360640190fd5b6006805473ffffffffffffffffffffffffffffffffffffffff199081166001600160a01b038b8116919091179092556007805482168a8416179055600880548216898416179055600b80548216888416179055600980548216878416179055600a80549091169184169190911790556002819055670de0b6b3a7640000600c819055612da990606490610de8906065613ee1565b600d55600580546001818101835560008381527f036b6384b5eca791c62761152d0c79bb0604c104a5fb6f4eb0703f3154bb3db092830180546001600160a01b03808a1673ffffffffffffffffffffffffffffffffffffffff19928316179092558554938401909555919092018054918616919093161790915560408051610120810182529182526969e10de76676d0800000602083015269d3c21bcecceda1000000908201526a013da329b633647180000060608201526a01a784379d99db4200000060808201526a0422ca8b0a00a42500000060a08201526a084595161401484a00000060c08201526a108b2a2c2802909400000060e08201526a295be96e64066972000000610100820152612ec590600f906009614be4565b5060408051610120810182526101c28152610190602082015261015e9181019190915261012c606082015260fa608082015260c860a0820152609660c0820152607d60e08201526064610100820152612f22906010906009614c3a565b50610190601155612710601255610dac601381905561012c6014556015556101f46016819055606e601d55611b58601e55600c601755601855600654604080517f70a0823100000000000000000000000000000000000000000000000000000000815230600482015290516001600160a01b03909216916370a0823191602480820192602092909190829003018186803b158015612fbf57600080fd5b505afa158015612fd3573d6000803e3d6000fd5b505050506040513d6020811015612fe957600080fd5b5051600e556001805473ffffffffffffffffffffffffffffffffffffffff197fffffffffffffffffffffff00ffffffffffffffffffffffffffffffffffffffff909116740100000000000000000000000000000000000000001716339081179091556040805143815290517f25ff68dd81b34665b5ba7e553ee5511bf6812e12adb4a7e2c0d9e26b3099ce799181900360200190a25050505050505050565b6001546001600160a01b031633146130d15760405162461bcd60e51b8152600401808060200182810382526024815260200180614e636024913960400191505060405180910390fd5b6101f481101580156130e557506127108111155b613136576040805162461bcd60e51b815260206004820152600c60248201527f6f7574206f662072616e67650000000000000000000000000000000000000000604482015290519081900360640190fd5b601255565b6020546001600160a01b031681565b60035481565b6001546001600160a01b031633146131995760405162461bcd60e51b8152600401808060200182810382526024815260200180614e636024913960400191505060405180910390fd5b60788211156131ef576040805162461bcd60e51b815260206004820152601e60248201527f5f626f6f74737472617045706f6368733a206f7574206f662072616e67650000604482015290519081900360640190fd5b6064811015801561320257506103e88111155b61323d5760405162461bcd60e51b815260040180806020018281038252602e815260200180614f62602e913960400191505060405180910390fd5b601791909155601855565b6001546000906001600160a01b031633146132945760405162461bcd60e51b8152600401808060200182810382526024815260200180614e636024913960400191505060405180910390fd5b60098360ff16106132d65760405162461bcd60e51b8152600401808060200182810382526029815260200180614e036029913960400191505060405180910390fd5b60ff83161561330857600f6001840360ff16815481106132f257fe5b9060005260206000200154821161330857600080fd5b60088360ff16101561333d57600f8360010160ff168154811061332757fe5b9060005260206000200154821061333d57600080fd5b81600f8460ff168154811061334e57fe5b6000918252602090912001555060015b92915050565b6001546001600160a01b031633146133ad5760405162461bcd60e51b8152600401808060200182810382526024815260200180614e636024913960400191505060405180910390fd5b600954604080517f54575af40000000000000000000000000000000000000000000000000000000081526001600160a01b038681166004830152602482018690528481166044830152915191909216916354575af491606480830192600092919082900301818387803b15801561342357600080fd5b505af1158015613437573d6000803e3d6000fd5b50505050505050565b6001546001600160a01b031633146134895760405162461bcd60e51b8152600401808060200182810382526024815260200180614e636024913960400191505060405180910390fd5b601a55565b600f818154811061349b57fe5b600091825260209091200154905081565b600a546001600160a01b031681565b6010818154811061349b57fe5b6001546001600160a01b031633146135115760405162461bcd60e51b8152600401808060200182810382526024815260200180614e636024913960400191505060405180910390fd5b601b55565b6006546001600160a01b031681565b600080613530613cef565b9050600c548111610e4c576000613545613d70565b90506000613564612710610de860155485613ee190919063ffffffff16565b90506000600760009054906101000a90046001600160a01b03166001600160a01b03166318160ddd6040518163ffffffff1660e01b815260040160206040518083038186803b1580156135b657600080fd5b505afa1580156135ca573d6000803e3d6000fd5b505050506040513d60208110156135e057600080fd5b50519050808211156136255760006135f88383613fa8565b90506000613612670de0b6b3a7640000610de88489613ee1565b90506136206004548261409d565b965050505b5050505090565b6001546001600160a01b031633146136755760405162461bcd60e51b8152600401808060200182810382526024815260200180614e636024913960400191505060405180910390fd5b6001805473ffffffffffffffffffffffffffffffffffffffff19166001600160a01b0392909216919091179055565b6001546001600160a01b031633146136ed5760405162461bcd60e51b8152600401808060200182810382526024815260200180614e636024913960400191505060405180910390fd5b6009805473ffffffffffffffffffffffffffffffffffffffff19166001600160a01b0392909216919091179055565b600d5481565b61546081565b601a5481565b6001546001600160a01b031633146137775760405162461bcd60e51b8152600401808060200182810382526024815260200180614e636024913960400191505060405180910390fd5b6001600160a01b0384166137d4576040805162461bcd60e51b8152602060048083019190915260248201527f7a65726f00000000000000000000000000000000000000000000000000000000604482015290519081900360640190fd5b610bb883111561382b576040805162461bcd60e51b815260206004820152600c60248201527f6f7574206f662072616e67650000000000000000000000000000000000000000604482015290519081900360640190fd5b6001600160a01b038216613888576040805162461bcd60e51b8152602060048083019190915260248201527f7a65726f00000000000000000000000000000000000000000000000000000000604482015290519081900360640190fd5b6103e88111156138df576040805162461bcd60e51b815260206004820152600c60248201527f6f7574206f662072616e67650000000000000000000000000000000000000000604482015290519081900360640190fd5b6020805473ffffffffffffffffffffffffffffffffffffffff199081166001600160a01b03968716179091556021939093556022805490931691909316179055602355565b6001546001600160a01b0316331461396d5760405162461bcd60e51b8152600401808060200182810382526024815260200180614e636024913960400191505060405180910390fd5b600954604080517f97ffe1d70000000000000000000000000000000000000000000000000000000081526004810184905290516001600160a01b03909216916397ffe1d79160248082019260009290919082900301818387803b15801561298c57600080fd5b60006139f86139ef615460600354613ee190919063ffffffff16565b60025490614005565b905090565b601e5481565b601d5481565b6001546001600160a01b03163314613a525760405162461bcd60e51b8152600401808060200182810382526024815260200180614e636024913960400191505060405180910390fd5b60648110158015613a6557506105dc8111155b613ab6576040805162461bcd60e51b815260206004820152600c60248201527f6f7574206f662072616e67650000000000000000000000000000000000000000604482015290519081900360640190fd5b601455565b6001546000906001600160a01b03163314613b075760405162461bcd60e51b8152600401808060200182810382526024815260200180614e636024913960400191505060405180910390fd5b60098360ff1610613b495760405162461bcd60e51b8152600401808060200182810382526029815260200180614e036029913960400191505060405180910390fd5b600a8210158015613b5c57506103e88211155b613bad576040805162461bcd60e51b815260206004820152601460248201527f5f76616c75653a206f7574206f662072616e6765000000000000000000000000604482015290519081900360640190fd5b8160108460ff168154811061334e57fe5b60115481565b60155481565b60145481565b6001546001600160a01b03163314613c195760405162461bcd60e51b8152600401808060200182810382526024815260200180614e636024913960400191505060405180910390fd5b600c548110158015613c455750613c416064610de86078600c54613ee190919063ffffffff16565b8111155b613c96576040805162461bcd60e51b815260206004820152600c60248201527f6f7574206f662072616e67650000000000000000000000000000000000000000604482015290519081900360640190fd5b600d55565b60175481565b6001546001600160a01b03163314613cea5760405162461bcd60e51b8152600401808060200182810382526024815260200180614e636024913960400191505060405180910390fd5b601655565b600b54600654604080517f3ddac9530000000000000000000000000000000000000000000000000000000081526001600160a01b039283166004820152670de0b6b3a7640000602482015290516000939290921691633ddac95391604480820192602092909190829003018186803b158015612a3157600080fd5b60045481565b600654604080517f18160ddd00000000000000000000000000000000000000000000000000000000815290516000926001600160a01b031691839183916318160ddd916004808301926020929190829003018186803b158015613dd257600080fd5b505afa158015613de6573d6000803e3d6000fd5b505050506040513d6020811015613dfc57600080fd5b505190506000805b60055460ff82161015613ed657613ecc846001600160a01b03166370a0823160058460ff1681548110613e3357fe5b60009182526020918290200154604080517fffffffff0000000000000000000000000000000000000000000000000000000060e086901b1681526001600160a01b0390921660048301525160248083019392829003018186803b158015613e9957600080fd5b505afa158015613ead573d6000803e3d6000fd5b505050506040513d6020811015613ec357600080fd5b50518390614005565b9150600101613e04565b50612b928282613fa8565b600082613ef05750600061335e565b82820282848281613efd57fe5b0414613f3a5760405162461bcd60e51b8152600401808060200182810382526021815260200180614d2e6021913960400191505060405180910390fd5b9392505050565b6000808211613f97576040805162461bcd60e51b815260206004820152601a60248201527f536166654d6174683a206469766973696f6e206279207a65726f000000000000604482015290519081900360640190fd5b818381613fa057fe5b049392505050565b600082821115613fff576040805162461bcd60e51b815260206004820152601e60248201527f536166654d6174683a207375627472616374696f6e206f766572666c6f770000604482015290519081900360640190fd5b50900390565b600082820183811015613f3a576040805162461bcd60e51b815260206004820152601b60248201527f536166654d6174683a206164646974696f6e206f766572666c6f770000000000604482015290519081900360640190fd5b4360009081526020818152604080832032845290915290205460ff1690565b4360009081526020818152604080832033845290915290205460ff1690565b60008183106140ac5781613f3a565b5090919050565b604080516001600160a01b038416602482015260448082018490528251808303909101815260649091019091526020810180517bffffffffffffffffffffffffffffffffffffffffffffffffffffffff167fa9059cbb0000000000000000000000000000000000000000000000000000000017905261197390849061479e565b600b60009054906101000a90046001600160a01b03166001600160a01b031663a2e620456040518163ffffffff1660e01b8152600401600060405180830381600087803b15801561418357600080fd5b505af1925050508015614194575060015b50565b600654600a54604080517f70a082310000000000000000000000000000000000000000000000000000000081526001600160a01b039283166004820152905160009392909216916370a0823191602480820192602092909190829003018186803b15801561420457600080fd5b505afa158015614218573d6000803e3d6000fd5b505050506040513d602081101561422e57600080fd5b5051600a54604080517f199cbc5400000000000000000000000000000000000000000000000000000000815290519293506000926001600160a01b039092169163199cbc5491600480820192602092909190829003018186803b15801561429457600080fd5b505afa1580156142a8573d6000803e3d6000fd5b505050506040513d60208110156142be57600080fd5b505190508181106142d0575050614194565b60006142dc8383613fa8565b90508084111561437957600654600a546001600160a01b03918216916340c10f1991166143098785613fa8565b6040518363ffffffff1660e01b815260040180836001600160a01b0316815260200182815260200192505050602060405180830381600087803b15801561434f57600080fd5b505af1158015614363573d6000803e3d6000fd5b505050506040513d6020811015612c6457600080fd5b50505050565b600654604080517f40c10f190000000000000000000000000000000000000000000000000000000081523060048201526024810184905290516001600160a01b03909216916340c10f19916044808201926020929091908290030181600087803b1580156143ec57600080fd5b505af1158015614400573d6000803e3d6000fd5b505050506040513d602081101561441657600080fd5b5050602154600090156145175761443e612710610de860215485613ee190919063ffffffff16565b60065460208054604080517fa9059cbb0000000000000000000000000000000000000000000000000000000081526001600160a01b03928316600482015260248101869052905194955092169263a9059cbb9260448082019392918290030181600087803b1580156144af57600080fd5b505af11580156144c3573d6000803e3d6000fd5b505050506040513d60208110156144d957600080fd5b5050604080514281526020810183905281517fcb3f34aaa3445b461e6da5492dc89e5c257a59fa598131f3b6bbc97a3638e409929181900390910190a15b602354600090156146195761453d612710610de860235486613ee190919063ffffffff16565b600654602254604080517fa9059cbb0000000000000000000000000000000000000000000000000000000081526001600160a01b03928316600482015260248101859052905193945091169163a9059cbb916044808201926020929091908290030181600087803b1580156145b157600080fd5b505af11580156145c5573d6000803e3d6000fd5b505050506040513d60208110156145db57600080fd5b5050604080514281526020810183905281517fdc8b715b18523e58b7fd0da53259dfa91efd91df4a854d94b136e3333a3b9395929181900390910190a15b6146278161257c8585613fa8565b600954600654919450614648916001600160a01b039081169116600061484f565b600954600654614665916001600160a01b0391821691168561484f565b600954604080517f97ffe1d70000000000000000000000000000000000000000000000000000000081526004810186905290516001600160a01b03909216916397ffe1d79160248082019260009290919082900301818387803b1580156146cb57600080fd5b505af11580156146df573d6000803e3d6000fd5b5050604080514281526020810187905281517f03ca7276ab7799bf73fb79d27ff0610cd7049574f2508ef8445162833d439aea9450908190039091019150a1505050565b600060085b600f8160ff168154811061473857fe5b9060005260206000200154831061476d5760108160ff168154811061475957fe5b600091825260209091200154601155614794565b7fffffffffffffffffffffffffffffffffffffffffffffffffffffffffffffffff01614728565b5050601154919050565b60606147f3826040518060400160405280602081526020017f5361666545524332303a206c6f772d6c6576656c2063616c6c206661696c6564815250856001600160a01b03166149a99092919063ffffffff16565b8051909150156119735780806020019051602081101561481257600080fd5b50516119735760405162461bcd60e51b815260040180806020018281038252602a815260200180614e87602a913960400191505060405180910390fd5b8015806148ee5750604080517fdd62ed3e0000000000000000000000000000000000000000000000000000000081523060048201526001600160a01b03848116602483015291519185169163dd62ed3e91604480820192602092909190829003018186803b1580156148c057600080fd5b505afa1580156148d4573d6000803e3d6000fd5b505050506040513d60208110156148ea57600080fd5b5051155b6149295760405162461bcd60e51b8152600401808060200182810382526036815260200180614ed76036913960400191505060405180910390fd5b604080516001600160a01b038416602482015260448082018490528251808303909101815260649091019091526020810180517bffffffffffffffffffffffffffffffffffffffffffffffffffffffff167f095ea7b30000000000000000000000000000000000000000000000000000000017905261197390849061479e565b60606149b884846000856149c0565b949350505050565b606082471015614a015760405162461bcd60e51b8152600401808060200182810382526026815260200180614ce36026913960400191505060405180910390fd5b614a0a85614b3a565b614a5b576040805162461bcd60e51b815260206004820152601d60248201527f416464726573733a2063616c6c20746f206e6f6e2d636f6e7472616374000000604482015290519081900360640190fd5b60006060866001600160a01b031685876040518082805190602001908083835b60208310614ab857805182527fffffffffffffffffffffffffffffffffffffffffffffffffffffffffffffffe09092019160209182019101614a7b565b6001836020036101000a03801982511681845116808217855250505050505090500191505060006040518083038185875af1925050503d8060008114614b1a576040519150601f19603f3d011682016040523d82523d6000602084013e614b1f565b606091505b5091509150614b2f828286614b40565b979650505050505050565b3b151590565b60608315614b4f575081613f3a565b825115614b5f5782518084602001fd5b8160405162461bcd60e51b81526004018080602001828103825283818151815260200191508051906020019080838360005b83811015614ba9578181015183820152602001614b91565b50505050905090810190601f168015614bd65780820380516001836020036101000a031916815260200191505b509250505060405180910390fd5b828054828255906000526020600020908101928215614c2e579160200282015b82811115614c2e57825182906affffffffffffffffffffff16905591602001919060010190614c04565b50610e4c929150614c7b565b828054828255906000526020600020908101928215614c2e579160200282015b82811115614c2e578251829061ffff16905591602001919060010190614c5a565b5b80821115610e4c5760008155600101614c7c56fe54726561737572793a2063616e6e6f742072656465656d20626f6e64732077697468207a65726f20616d6f756e745f7072656d69756d5468726573686f6c6420697320686967686572207468616e20312e35416464726573733a20696e73756666696369656e742062616c616e636520666f722063616c6c54726561737572793a20747265617375727920686173206e6f206d6f726520627564676574536166654d6174683a206d756c7469706c69636174696f6e206f766572666c6f7754726561737572793a2063616e6e6f7420707572636861736520626f6e64732077697468207a65726f20616d6f756e7454726561737572793a2067726176655072696365206e6f7420656c696769626c6520666f7220626f6e642070757263686173655f6d696e74696e67466163746f72466f72506179696e67446562743a206f7574206f662072616e67655f6d6178537570706c79457870616e73696f6e50657263656e743a206f7574206f662072616e6765496e6465782068617320746f206265206c6f776572207468616e20636f756e74206f6620746965727354726561737572793a206661696c656420746f20636f6e73756c742047524156452070726963652066726f6d20746865206f7261636c6554726561737572793a2063616c6c6572206973206e6f7420746865206f70657261746f725361666545524332303a204552433230206f7065726174696f6e20646964206e6f742073756363656564436f6e747261637447756172643a206f6e6520626c6f636b2c206f6e652066756e6374696f6e5361666545524332303a20617070726f76652066726f6d206e6f6e2d7a65726f20746f206e6f6e2d7a65726f20616c6c6f77616e63655f7072656d69756d5468726573686f6c64206578636565647320677261766550726963654365696c696e6754726561737572793a206e6f7420656e6f75676820626f6e64206c65667420746f2070757263686173655f626f6f747374726170537570706c79457870616e73696f6e50657263656e743a206f7574206f662072616e6765a264697066735822122099f8dc4fc1d8750bea232889d79639dbfbb57a14d6b018b0b8cbb76f8f063a5364736f6c634300060c0033",
  "devdoc": {
    "kind": "dev",
    "methods": {},
    "version": 1
  },
  "userdoc": {
    "kind": "user",
    "methods": {},
    "version": 1
  },
  "storageLayout": {
    "storage": [
      {
        "astId": 10385,
        "contract": "contracts/Treasury.sol:Treasury",
        "label": "_status",
        "offset": 0,
        "slot": "0",
        "type": "t_mapping(t_uint256,t_mapping(t_address,t_bool))"
      },
      {
        "astId": 3853,
        "contract": "contracts/Treasury.sol:Treasury",
        "label": "operator",
        "offset": 0,
        "slot": "1",
        "type": "t_address"
      },
      {
        "astId": 3856,
        "contract": "contracts/Treasury.sol:Treasury",
        "label": "initialized",
        "offset": 20,
        "slot": "1",
        "type": "t_bool"
      },
      {
        "astId": 3858,
        "contract": "contracts/Treasury.sol:Treasury",
        "label": "startTime",
        "offset": 0,
        "slot": "2",
        "type": "t_uint256"
      },
      {
        "astId": 3861,
        "contract": "contracts/Treasury.sol:Treasury",
        "label": "epoch",
        "offset": 0,
        "slot": "3",
        "type": "t_uint256"
      },
      {
        "astId": 3864,
        "contract": "contracts/Treasury.sol:Treasury",
        "label": "epochSupplyContractionLeft",
        "offset": 0,
        "slot": "4",
        "type": "t_uint256"
      },
      {
        "astId": 3867,
        "contract": "contracts/Treasury.sol:Treasury",
        "label": "excludedFromTotalSupply",
        "offset": 0,
        "slot": "5",
        "type": "t_array(t_address)dyn_storage"
      },
      {
        "astId": 3869,
        "contract": "contracts/Treasury.sol:Treasury",
        "label": "grave",
        "offset": 0,
        "slot": "6",
        "type": "t_address"
      },
      {
        "astId": 3871,
        "contract": "contracts/Treasury.sol:Treasury",
        "label": "xbond",
        "offset": 0,
        "slot": "7",
        "type": "t_address"
      },
      {
        "astId": 3873,
        "contract": "contracts/Treasury.sol:Treasury",
        "label": "xshare",
        "offset": 0,
        "slot": "8",
        "type": "t_address"
      },
      {
        "astId": 3875,
        "contract": "contracts/Treasury.sol:Treasury",
        "label": "masonry",
        "offset": 0,
        "slot": "9",
        "type": "t_address"
      },
      {
        "astId": 3877,
        "contract": "contracts/Treasury.sol:Treasury",
        "label": "bondTreasury",
        "offset": 0,
        "slot": "10",
        "type": "t_address"
      },
      {
        "astId": 3879,
        "contract": "contracts/Treasury.sol:Treasury",
        "label": "graveOracle",
        "offset": 0,
        "slot": "11",
        "type": "t_address"
      },
      {
        "astId": 3881,
        "contract": "contracts/Treasury.sol:Treasury",
        "label": "gravePriceOne",
        "offset": 0,
        "slot": "12",
        "type": "t_uint256"
      },
      {
        "astId": 3883,
        "contract": "contracts/Treasury.sol:Treasury",
        "label": "gravePriceCeiling",
        "offset": 0,
        "slot": "13",
        "type": "t_uint256"
      },
      {
        "astId": 3885,
        "contract": "contracts/Treasury.sol:Treasury",
        "label": "seigniorageSaved",
        "offset": 0,
        "slot": "14",
        "type": "t_uint256"
      },
      {
        "astId": 3888,
        "contract": "contracts/Treasury.sol:Treasury",
        "label": "supplyTiers",
        "offset": 0,
        "slot": "15",
        "type": "t_array(t_uint256)dyn_storage"
      },
      {
        "astId": 3891,
        "contract": "contracts/Treasury.sol:Treasury",
        "label": "maxExpansionTiers",
        "offset": 0,
        "slot": "16",
        "type": "t_array(t_uint256)dyn_storage"
      },
      {
        "astId": 3893,
        "contract": "contracts/Treasury.sol:Treasury",
        "label": "maxSupplyExpansionPercent",
        "offset": 0,
        "slot": "17",
        "type": "t_uint256"
      },
      {
        "astId": 3895,
        "contract": "contracts/Treasury.sol:Treasury",
        "label": "bondDepletionFloorPercent",
        "offset": 0,
        "slot": "18",
        "type": "t_uint256"
      },
      {
        "astId": 3897,
        "contract": "contracts/Treasury.sol:Treasury",
        "label": "seigniorageExpansionFloorPercent",
        "offset": 0,
        "slot": "19",
        "type": "t_uint256"
      },
      {
        "astId": 3899,
        "contract": "contracts/Treasury.sol:Treasury",
        "label": "maxSupplyContractionPercent",
        "offset": 0,
        "slot": "20",
        "type": "t_uint256"
      },
      {
        "astId": 3901,
        "contract": "contracts/Treasury.sol:Treasury",
        "label": "maxDebtRatioPercent",
        "offset": 0,
        "slot": "21",
        "type": "t_uint256"
      },
      {
        "astId": 3903,
        "contract": "contracts/Treasury.sol:Treasury",
        "label": "bondSupplyExpansionPercent",
        "offset": 0,
        "slot": "22",
        "type": "t_uint256"
      },
      {
        "astId": 3905,
        "contract": "contracts/Treasury.sol:Treasury",
        "label": "bootstrapEpochs",
        "offset": 0,
        "slot": "23",
        "type": "t_uint256"
      },
      {
        "astId": 3907,
        "contract": "contracts/Treasury.sol:Treasury",
        "label": "bootstrapSupplyExpansionPercent",
        "offset": 0,
        "slot": "24",
        "type": "t_uint256"
      },
      {
        "astId": 3909,
        "contract": "contracts/Treasury.sol:Treasury",
        "label": "previousEpochGravePrice",
        "offset": 0,
        "slot": "25",
        "type": "t_uint256"
      },
      {
        "astId": 3911,
        "contract": "contracts/Treasury.sol:Treasury",
        "label": "maxDiscountRate",
        "offset": 0,
        "slot": "26",
        "type": "t_uint256"
      },
      {
        "astId": 3913,
        "contract": "contracts/Treasury.sol:Treasury",
        "label": "maxPremiumRate",
        "offset": 0,
        "slot": "27",
        "type": "t_uint256"
      },
      {
        "astId": 3915,
        "contract": "contracts/Treasury.sol:Treasury",
        "label": "discountPercent",
        "offset": 0,
        "slot": "28",
        "type": "t_uint256"
      },
      {
        "astId": 3917,
        "contract": "contracts/Treasury.sol:Treasury",
        "label": "premiumThreshold",
        "offset": 0,
        "slot": "29",
        "type": "t_uint256"
      },
      {
        "astId": 3919,
        "contract": "contracts/Treasury.sol:Treasury",
        "label": "premiumPercent",
        "offset": 0,
        "slot": "30",
        "type": "t_uint256"
      },
      {
        "astId": 3921,
        "contract": "contracts/Treasury.sol:Treasury",
        "label": "mintingFactorForPayingDebt",
        "offset": 0,
        "slot": "31",
        "type": "t_uint256"
      },
      {
        "astId": 3923,
        "contract": "contracts/Treasury.sol:Treasury",
        "label": "daoFund",
        "offset": 0,
        "slot": "32",
        "type": "t_address"
      },
      {
        "astId": 3925,
        "contract": "contracts/Treasury.sol:Treasury",
        "label": "daoFundSharedPercent",
        "offset": 0,
        "slot": "33",
        "type": "t_uint256"
      },
      {
        "astId": 3927,
        "contract": "contracts/Treasury.sol:Treasury",
        "label": "devFund",
        "offset": 0,
        "slot": "34",
        "type": "t_address"
      },
      {
        "astId": 3929,
        "contract": "contracts/Treasury.sol:Treasury",
        "label": "devFundSharedPercent",
        "offset": 0,
        "slot": "35",
        "type": "t_uint256"
      }
    ],
    "types": {
      "t_address": {
        "encoding": "inplace",
        "label": "address",
        "numberOfBytes": "20"
      },
      "t_array(t_address)dyn_storage": {
        "base": "t_address",
        "encoding": "dynamic_array",
        "label": "address[]",
        "numberOfBytes": "32"
      },
      "t_array(t_uint256)dyn_storage": {
        "base": "t_uint256",
        "encoding": "dynamic_array",
        "label": "uint256[]",
        "numberOfBytes": "32"
      },
      "t_bool": {
        "encoding": "inplace",
        "label": "bool",
        "numberOfBytes": "1"
      },
      "t_mapping(t_address,t_bool)": {
        "encoding": "mapping",
        "key": "t_address",
        "label": "mapping(address => bool)",
        "numberOfBytes": "32",
        "value": "t_bool"
      },
      "t_mapping(t_uint256,t_mapping(t_address,t_bool))": {
        "encoding": "mapping",
        "key": "t_uint256",
        "label": "mapping(uint256 => mapping(address => bool))",
        "numberOfBytes": "32",
        "value": "t_mapping(t_address,t_bool)"
      },
      "t_uint256": {
        "encoding": "inplace",
        "label": "uint256",
        "numberOfBytes": "32"
      }
    }
  }
}