{
  "_format": "hh-sol-artifact-1",
  "contractName": "Oracle",
  "sourceName": "contracts/Oracle.sol",
  "abi": [
    {
      "inputs": [
        {
          "internalType": "contract IUniswapV2Pair",
          "name": "_pair",
          "type": "address"
        },
        {
          "internalType": "uint256",
          "name": "_period",
          "type": "uint256"
        },
        {
          "internalType": "uint256",
          "name": "_startTime",
          "type": "uint256"
        }
      ],
      "stateMutability": "nonpayable",
      "type": "constructor"
    },
    {
      "anonymous": false,
      "inputs": [
        {
          "indexed": true,
          "internalType": "address",
          "name": "previousOperator",
          "type": "address"
        },
        {
          "indexed": true,
          "internalType": "address",
          "name": "newOperator",
          "type": "address"
        }
      ],
      "name": "OperatorTransferred",
      "type": "event"
    },
    {
      "anonymous": false,
      "inputs": [
        {
          "indexed": true,
          "internalType": "address",
          "name": "previousOwner",
          "type": "address"
        },
        {
          "indexed": true,
          "internalType": "address",
          "name": "newOwner",
          "type": "address"
        }
      ],
      "name": "OwnershipTransferred",
      "type": "event"
    },
    {
      "anonymous": false,
      "inputs": [
        {
          "indexed": false,
          "internalType": "uint256",
          "name": "price0CumulativeLast",
          "type": "uint256"
        },
        {
          "indexed": false,
          "internalType": "uint256",
          "name": "price1CumulativeLast",
          "type": "uint256"
        }
      ],
      "name": "Updated",
      "type": "event"
    },
    {
      "inputs": [],
      "name": "blockTimestampLast",
      "outputs": [
        {
          "internalType": "uint32",
          "name": "",
          "type": "uint32"
        }
      ],
      "stateMutability": "view",
      "type": "function"
    },
    {
      "inputs": [
        {
          "internalType": "address",
          "name": "_token",
          "type": "address"
        },
        {
          "internalType": "uint256",
          "name": "_amountIn",
          "type": "uint256"
        }
      ],
      "name": "consult",
      "outputs": [
        {
          "internalType": "uint144",
          "name": "amountOut",
          "type": "uint144"
        }
      ],
      "stateMutability": "view",
      "type": "function"
    },
    {
      "inputs": [],
      "name": "getCurrentEpoch",
      "outputs": [
        {
          "internalType": "uint256",
          "name": "",
          "type": "uint256"
        }
      ],
      "stateMutability": "view",
      "type": "function"
    },
    {
      "inputs": [],
      "name": "getLastEpochTime",
      "outputs": [
        {
          "internalType": "uint256",
          "name": "",
          "type": "uint256"
        }
      ],
      "stateMutability": "view",
      "type": "function"
    },
    {
      "inputs": [],
      "name": "getPeriod",
      "outputs": [
        {
          "internalType": "uint256",
          "name": "",
          "type": "uint256"
        }
      ],
      "stateMutability": "view",
      "type": "function"
    },
    {
      "inputs": [],
      "name": "getStartTime",
      "outputs": [
        {
          "internalType": "uint256",
          "name": "",
          "type": "uint256"
        }
      ],
      "stateMutability": "view",
      "type": "function"
    },
    {
      "inputs": [],
      "name": "isOperator",
      "outputs": [
        {
          "internalType": "bool",
          "name": "",
          "type": "bool"
        }
      ],
      "stateMutability": "view",
      "type": "function"
    },
    {
      "inputs": [],
      "name": "nextEpochPoint",
      "outputs": [
        {
          "internalType": "uint256",
          "name": "",
          "type": "uint256"
        }
      ],
      "stateMutability": "view",
      "type": "function"
    },
    {
      "inputs": [],
      "name": "operator",
      "outputs": [
        {
          "internalType": "address",
          "name": "",
          "type": "address"
        }
      ],
      "stateMutability": "view",
      "type": "function"
    },
    {
      "inputs": [],
      "name": "owner",
      "outputs": [
        {
          "internalType": "address",
          "name": "",
          "type": "address"
        }
      ],
      "stateMutability": "view",
      "type": "function"
    },
    {
      "inputs": [],
      "name": "pair",
      "outputs": [
        {
          "internalType": "contract IUniswapV2Pair",
          "name": "",
          "type": "address"
        }
      ],
      "stateMutability": "view",
      "type": "function"
    },
    {
      "inputs": [],
      "name": "price0Average",
      "outputs": [
        {
          "internalType": "uint224",
          "name": "_x",
          "type": "uint224"
        }
      ],
      "stateMutability": "view",
      "type": "function"
    },
    {
      "inputs": [],
      "name": "price0CumulativeLast",
      "outputs": [
        {
          "internalType": "uint256",
          "name": "",
          "type": "uint256"
        }
      ],
      "stateMutability": "view",
      "type": "function"
    },
    {
      "inputs": [],
      "name": "price1Average",
      "outputs": [
        {
          "internalType": "uint224",
          "name": "_x",
          "type": "uint224"
        }
      ],
      "stateMutability": "view",
      "type": "function"
    },
    {
      "inputs": [],
      "name": "price1CumulativeLast",
      "outputs": [
        {
          "internalType": "uint256",
          "name": "",
          "type": "uint256"
        }
      ],
      "stateMutability": "view",
      "type": "function"
    },
    {
      "inputs": [],
      "name": "renounceOwnership",
      "outputs": [],
      "stateMutability": "nonpayable",
      "type": "function"
    },
    {
      "inputs": [
        {
          "internalType": "uint256",
          "name": "_epoch",
          "type": "uint256"
        }
      ],
      "name": "setEpoch",
      "outputs": [],
      "stateMutability": "nonpayable",
      "type": "function"
    },
    {
      "inputs": [
        {
          "internalType": "uint256",
          "name": "_period",
          "type": "uint256"
        }
      ],
      "name": "setPeriod",
      "outputs": [],
      "stateMutability": "nonpayable",
      "type": "function"
    },
    {
      "inputs": [],
      "name": "token0",
      "outputs": [
        {
          "internalType": "address",
          "name": "",
          "type": "address"
        }
      ],
      "stateMutability": "view",
      "type": "function"
    },
    {
      "inputs": [],
      "name": "token1",
      "outputs": [
        {
          "internalType": "address",
          "name": "",
          "type": "address"
        }
      ],
      "stateMutability": "view",
      "type": "function"
    },
    {
      "inputs": [
        {
          "internalType": "address",
          "name": "newOperator_",
          "type": "address"
        }
      ],
      "name": "transferOperator",
      "outputs": [],
      "stateMutability": "nonpayable",
      "type": "function"
    },
    {
      "inputs": [
        {
          "internalType": "address",
          "name": "newOwner",
          "type": "address"
        }
      ],
      "name": "transferOwnership",
      "outputs": [],
      "stateMutability": "nonpayable",
      "type": "function"
    },
    {
      "inputs": [
        {
          "internalType": "address",
          "name": "_token",
          "type": "address"
        },
        {
          "internalType": "uint256",
          "name": "_amountIn",
          "type": "uint256"
        }
      ],
      "name": "twap",
      "outputs": [
        {
          "internalType": "uint144",
          "name": "_amountOut",
          "type": "uint144"
        }
      ],
      "stateMutability": "view",
      "type": "function"
    },
    {
      "inputs": [],
      "name": "update",
      "outputs": [],
      "stateMutability": "nonpayable",
      "type": "function"
    }
  ],
  "bytecode": "0x60806040523480156200001157600080fd5b50604051620019af380380620019af833981810160405260608110156200003757600080fd5b508051602082015160409092015190919081816000806200005762000462565b600080546001600160a01b0319166001600160a01b0383169081178255604051929350917f8be0079c531659141344cd1fd0a4f28419497f9722a3daafe3b4186f6b6457e0908290a350620000ab62000462565b600180546001600160a01b0319166001600160a01b0392831617908190556040519116906000907f74da04524d50c64947f5dd5381ef1a4dca5cba8ed1d816243f9e48aa0b5617ed908290a36002839055600382905560058190556200011e828462000466602090811b62000e9f17901c565b6004908155600880546001600160a01b0319166001600160a01b03898116919091179182905560408051630dfe168160e01b81529051929091169550630dfe16819450808301935060209290829003018186803b1580156200017f57600080fd5b505afa15801562000194573d6000803e3d6000fd5b505050506040513d6020811015620001ab57600080fd5b5051600680546001600160a01b0319166001600160a01b039283161790556008546040805163d21220a760e01b81529051919092169163d21220a7916004808301926020929190829003018186803b1580156200020757600080fd5b505afa1580156200021c573d6000803e3d6000fd5b505050506040513d60208110156200023357600080fd5b5051600780546001600160a01b0319166001600160a01b0392831617905560085460408051635909c0d560e01b815290519190921691635909c0d5916004808301926020929190829003018186803b1580156200028f57600080fd5b505afa158015620002a4573d6000803e3d6000fd5b505050506040513d6020811015620002bb57600080fd5b505160095560085460408051635a3d549360e01b815290516001600160a01b0390921691635a3d549391600480820192602092909190829003018186803b1580156200030657600080fd5b505afa1580156200031b573d6000803e3d6000fd5b505050506040513d60208110156200033257600080fd5b5051600a5560085460408051630240bc6b60e21b8152905160009283926001600160a01b0390911691630902f1ac91600480820192606092909190829003018186803b1580156200038257600080fd5b505afa15801562000397573d6000803e3d6000fd5b505050506040513d6060811015620003ae57600080fd5b50805160208201516040909201516008805463ffffffff909216600160a01b0263ffffffff60a01b19909216919091179055925090506001600160701b038216158015906200040557506001600160701b03811615155b62000457576040805162461bcd60e51b815260206004820152601360248201527f4f7261636c653a204e4f5f524553455256455300000000000000000000000000604482015290519081900360640190fd5b5050505050620004c4565b3390565b600082821115620004be576040805162461bcd60e51b815260206004820152601e60248201527f536166654d6174683a207375627472616374696f6e206f766572666c6f770000604482015290519081900360640190fd5b50900390565b6114db80620004d46000396000f3fe608060405234801561001057600080fd5b50600436106101985760003560e01c8063715018a6116100e3578063ba5224581161008c578063c828371e11610066578063c828371e1461038a578063d21220a714610392578063f2fde38b1461039a57610198565b8063ba52245814610359578063c5700a0214610361578063c5967c261461038257610198565b8063a6bb4539116100bd578063a6bb453914610341578063a8aa1b3114610349578063b97dd9e21461035157610198565b8063715018a6146103295780638da5cb5b14610331578063a2e620451461033957610198565b80634456eda2116101455780635a3d54931161011f5780635a3d5493146102bc5780635e6aaf2c146102c45780636808a128146102fd57610198565b80634456eda214610290578063570ca735146102ac5780635909c0d5146102b457610198565b80631ed24195116101765780631ed24195146101fd57806329605e77146102175780633ddac9531461023d57610198565b80630ceb2cef1461019d5780630dfe1681146101bc5780630f3a9f65146101e0575b600080fd5b6101ba600480360360208110156101b357600080fd5b50356103c0565b005b6101c461040e565b604080516001600160a01b039092168252519081900360200190f35b6101ba600480360360208110156101f657600080fd5b503561041d565b6102056104d1565b60408051918252519081900360200190f35b6101ba6004803603602081101561022d57600080fd5b50356001600160a01b03166104d7565b6102696004803603604081101561025357600080fd5b506001600160a01b038135169060200135610557565b6040805171ffffffffffffffffffffffffffffffffffff9092168252519081900360200190f35b61029861065f565b604080519115158252519081900360200190f35b6101c4610685565b610205610694565b61020561069a565b6102cc6106a0565b604080517bffffffffffffffffffffffffffffffffffffffffffffffffffffffff9092168252519081900360200190f35b6102696004803603604081101561031357600080fd5b506001600160a01b0381351690602001356106c4565b6101ba6107c0565b6101c4610896565b6101ba6108a5565b6102cc610cdd565b6101c4610d01565b610205610d10565b610205610d16565b610369610d1c565b6040805163ffffffff9092168252519081900360200190f35b610205610d40565b610205610d5e565b6101c4610d64565b6101ba600480360360208110156103b057600080fd5b50356001600160a01b0316610d73565b6001546001600160a01b031633146104095760405162461bcd60e51b815260040180806020018281038252602481526020018061145f6024913960400191505060405180910390fd5b600555565b6006546001600160a01b031681565b6001546001600160a01b031633146104665760405162461bcd60e51b815260040180806020018281038252602481526020018061145f6024913960400191505060405180910390fd5b610e10811015801561047b57506202a3008111155b6104cc576040805162461bcd60e51b815260206004820152601560248201527f5f706572696f643a206f7574206f662072616e67650000000000000000000000604482015290519081900360640190fd5b600255565b60025490565b6104df610efc565b6001600160a01b03166104f0610896565b6001600160a01b03161461054b576040805162461bcd60e51b815260206004820181905260248201527f4f776e61626c653a2063616c6c6572206973206e6f7420746865206f776e6572604482015290519081900360640190fd5b61055481610f00565b50565b6006546000906001600160a01b03848116911614156105b8576040805160208101909152600b547bffffffffffffffffffffffffffffffffffffffffffffffffffffffff1681526105b1906105ac9084610fb5565b611048565b9050610659565b6007546001600160a01b0384811691161461061a576040805162461bcd60e51b815260206004820152601560248201527f4f7261636c653a20494e56414c49445f544f4b454e0000000000000000000000604482015290519081900360640190fd5b6040805160208101909152600c547bffffffffffffffffffffffffffffffffffffffffffffffffffffffff168152610656906105ac9084610fb5565b90505b92915050565b6001546000906001600160a01b0316610676610efc565b6001600160a01b031614905090565b6001546001600160a01b031690565b60095481565b600a5481565b600c547bffffffffffffffffffffffffffffffffffffffffffffffffffffffff1681565b6008546000908190819081906106e2906001600160a01b031661104f565b600854600654939650919450925063ffffffff74010000000000000000000000000000000000000000909104168203906001600160a01b0388811691161415610778576107716105ac8760405180602001604052808563ffffffff166009548a038161074a57fe5b047bffffffffffffffffffffffffffffffffffffffffffffffffffffffff16905290610fb5565b94506107b6565b6007546001600160a01b03888116911614156107b6576107b36105ac8760405180602001604052808563ffffffff16600a5489038161074a57fe5b94505b5050505092915050565b6107c8610efc565b6001600160a01b03166107d9610896565b6001600160a01b031614610834576040805162461bcd60e51b815260206004820181905260248201527f4f776e61626c653a2063616c6c6572206973206e6f7420746865206f776e6572604482015290519081900360640190fd5b600080546040516001600160a01b03909116907f8be0079c531659141344cd1fd0a4f28419497f9722a3daafe3b4186f6b6457e0908390a3600080547fffffffffffffffffffffffff0000000000000000000000000000000000000000169055565b6000546001600160a01b031690565b60006108af610d40565b905080421015610ae4576108c1610685565b6001600160a01b0316336001600160a01b0316146109105760405162461bcd60e51b815260040180806020018281038252602a815260200180611408602a913960400191505060405180910390fd5b6008546000908190819061092c906001600160a01b031661104f565b600854929550909350915063ffffffff74010000000000000000000000000000000000000000909104811682039081166109695750505050610adf565b60405180602001604052808263ffffffff1660095487038161098757fe5b047bffffffffffffffffffffffffffffffffffffffffffffffffffffffff9081169091529051600b80547fffffffff0000000000000000000000000000000000000000000000000000000016919092161790556040805160208101909152600a54819063ffffffff8416908603816109fb57fe5b047bffffffffffffffffffffffffffffffffffffffffffffffffffffffff9081169091529051600c80547fffffffff0000000000000000000000000000000000000000000000000000000016919092161790556009849055600a839055600880547fffffffffffffffff00000000ffffffffffffffffffffffffffffffffffffffff167401000000000000000000000000000000000000000063ffffffff851602179055604080518581526020810185905281517fd78a0cb8bb633d06981248b816e7bd33c2a35a6089241d099fa519e361cab902929181900390910190a1505050505b610554565b60085460009081908190610b00906001600160a01b031661104f565b600854929550909350915063ffffffff7401000000000000000000000000000000000000000090910481168203908116610b3d5750505050610cb3565b60405180602001604052808263ffffffff16600954870381610b5b57fe5b047bffffffffffffffffffffffffffffffffffffffffffffffffffffffff9081169091529051600b80547fffffffff0000000000000000000000000000000000000000000000000000000016919092161790556040805160208101909152600a54819063ffffffff841690860381610bcf57fe5b047bffffffffffffffffffffffffffffffffffffffffffffffffffffffff9081169091529051600c80547fffffffff0000000000000000000000000000000000000000000000000000000016919092161790556009849055600a839055600880547fffffffffffffffff00000000ffffffffffffffffffffffffffffffffffffffff167401000000000000000000000000000000000000000063ffffffff851602179055604080518581526020810185905281517fd78a0cb8bb633d06981248b816e7bd33c2a35a6089241d099fa519e361cab902929181900390910190a1505050505b6004819055600580546001019055610cc9610d40565b905080421015610cd857610554565b610cb3565b600b547bffffffffffffffffffffffffffffffffffffffffffffffffffffffff1681565b6008546001600160a01b031681565b60055490565b60045490565b60085474010000000000000000000000000000000000000000900463ffffffff1681565b6000610d5960025460045461127a90919063ffffffff16565b905090565b60035490565b6007546001600160a01b031681565b610d7b610efc565b6001600160a01b0316610d8c610896565b6001600160a01b031614610de7576040805162461bcd60e51b815260206004820181905260248201527f4f776e61626c653a2063616c6c6572206973206e6f7420746865206f776e6572604482015290519081900360640190fd5b6001600160a01b038116610e2c5760405162461bcd60e51b81526004018080602001828103825260268152602001806113e26026913960400191505060405180910390fd5b600080546040516001600160a01b03808516939216917f8be0079c531659141344cd1fd0a4f28419497f9722a3daafe3b4186f6b6457e091a3600080547fffffffffffffffffffffffff0000000000000000000000000000000000000000166001600160a01b0392909216919091179055565b600082821115610ef6576040805162461bcd60e51b815260206004820152601e60248201527f536166654d6174683a207375627472616374696f6e206f766572666c6f770000604482015290519081900360640190fd5b50900390565b3390565b6001600160a01b038116610f455760405162461bcd60e51b815260040180806020018281038252602d815260200180611432602d913960400191505060405180910390fd5b6040516001600160a01b038216906000907f74da04524d50c64947f5dd5381ef1a4dca5cba8ed1d816243f9e48aa0b5617ed908290a3600180547fffffffffffffffffffffffff0000000000000000000000000000000000000000166001600160a01b0392909216919091179055565b610fbd6113bc565b6000821580610ff857505082517bffffffffffffffffffffffffffffffffffffffffffffffffffffffff1682810290838281610ff557fe5b04145b6110335760405162461bcd60e51b81526004018080602001828103825260238152602001806114836023913960400191505060405180910390fd5b60408051602081019091529081529392505050565b5160701c90565b600080600061105c6112d4565b9050836001600160a01b0316635909c0d56040518163ffffffff1660e01b815260040160206040518083038186803b15801561109757600080fd5b505afa1580156110ab573d6000803e3d6000fd5b505050506040513d60208110156110c157600080fd5b5051604080517f5a3d549300000000000000000000000000000000000000000000000000000000815290519194506001600160a01b03861691635a3d549391600480820192602092909190829003018186803b15801561112057600080fd5b505afa158015611134573d6000803e3d6000fd5b505050506040513d602081101561114a57600080fd5b5051604080517f0902f1ac0000000000000000000000000000000000000000000000000000000081529051919350600091829182916001600160a01b03891691630902f1ac916004808301926060929190829003018186803b1580156111af57600080fd5b505afa1580156111c3573d6000803e3d6000fd5b505050506040513d60608110156111d957600080fd5b5080516020820151604090920151909450909250905063ffffffff808216908516146112705780840363ffffffff811661121384866112de565b517bffffffffffffffffffffffffffffffffffffffffffffffffffffffff1602969096019563ffffffff811661124985856112de565b517bffffffffffffffffffffffffffffffffffffffffffffffffffffffff16029590950194505b5050509193909250565b600082820183811015610656576040805162461bcd60e51b815260206004820152601b60248201527f536166654d6174683a206164646974696f6e206f766572666c6f770000000000604482015290519081900360640190fd5b63ffffffff421690565b6112e66113cf565b6000826dffffffffffffffffffffffffffff161161134b576040805162461bcd60e51b815260206004820152601760248201527f4669786564506f696e743a204449565f42595f5a45524f000000000000000000604482015290519081900360640190fd5b6040805160208101909152806dffffffffffffffffffffffffffff84167bffffffffffffffffffffffffffff0000000000000000000000000000607087901b168161139257fe5b047bffffffffffffffffffffffffffffffffffffffffffffffffffffffff16815250905092915050565b6040518060200160405280600081525090565b6040805160208101909152600081529056fe4f776e61626c653a206e6577206f776e657220697320746865207a65726f206164647265737345706f63683a206f6e6c79206f70657261746f7220616c6c6f77656420666f72207072652d65706f63686f70657261746f723a207a65726f206164647265737320676976656e20666f72206e6577206f70657261746f726f70657261746f723a2063616c6c6572206973206e6f7420746865206f70657261746f724669786564506f696e743a204d554c5449504c49434154494f4e5f4f564552464c4f57a26469706673582212200eafe98ec80025a13468916e8b33f35b2b600eda3a733bcfb814cf51c7bee71d64736f6c634300060c0033",
  "linkReferences": {},
  "deployedLinkReferences": {}
}